:020000040800F2
:1000000050E00020E9020008F7290008B9210008A3
:10001000F52900085F060008E9300008000000002C
:10002000000000000000000000000000290200089D
:100030002D0700080000000085020008EB2C0008D6
:100040000303000803030008030300080303000878
:100050000303000803030008030300080303000868
:100060000303000803030008030300080303000858
:100070000303000803030008030300080303000848
:100080000303000803030008030300080303000838
:100090000303000803030008030300080303000828
:1000A0000303000803030008030300080303000818
:1000B0000303000803030008030300080303000808
:1000C000030300080303000803030008F9290008DC
:1000D000030300080303000803030008D1300008ED
:1000E00003030008030300080303000803030008D8
:1000F00003030008A92D00080303000803030008F8
:1001000003030008030300080303000803030008B7
:1001100003030008030300080303000803030008A7
:1001200003030008650600080303000871060008C1
:100130000303000803030008030300080303000887
:100140000303000803030008030300080303000877
:10015000030300087D06000803030008DD300008E3
:100160000303000803030008030300080303000857
:100170000303000803030008030300080000000055
:10018000030300080303000800F002F800F03CF845
:100190000AA090E8000C82448344AAF10107DA45E2
:1001A00001D100F031F8AFF2090EBAE80F0013F0F8
:1001B000010F18BFFB1A43F0010318472461000028
:1001C00044610000103A24BF78C878C1FAD85207B9
:1001D00024BF30C830C144BF04680C6070470000C1
:1001E0000023002400250026103A28BF78C1FBD840
:1001F000520728BF30C148BF0B6070471FB504F0DD
:100200009DFC1FBD10B510BD00F0EFF91146FFF7C2
:10021000F5FF02F07AFF00F00DFA03B4FFF7F2FFEA
:1002200003BC00F015FA00002C4B19680868B0E810
:10023000F04F80F30988BFF36F8F4FF0000080F319
:10024000118870470000000008480068006880F3CB
:1002500008884FF0000080F3148862B661B6BFF3DF
:100260004F8FBFF36F8F00DF00BF00BF08ED00E0CE
:10027000DFF80C00016841F470010160704700BFB5
:1002800088ED00E0EFF30980BFF36F8F134B1A681E
:100290001EF0100F08BF20ED108A20E9F04F10600B
:1002A00009B44FF0500080F31188BFF34F8FBFF3B4
:1002B0006F8F03F0E3FE4FF0000080F3118809BC5C
:1002C00019680868B0E8F04F1EF0100F08BFB0ECD6
:1002D000108A80F30988BFF36F8F70472C000020CD
:1002E000EFF3058070470000094880470948004740
:1002F000FEE7FEE7FEE7FEE7FEE7FEE7FEE7FEE7D6
:10030000FEE7FEE704480549054A064B7047000032
:10031000992D00088901000850DA002050E00020E3
:1003200050DC002050DC002053EA020C00F0698011
:100330002DE9F04B4FF00006002B1FBFB3FA83F5F9
:1003400003FA05F424FA05F65E4012BF1643B2FA2A
:1003500082F502FA05F4C5F120051EBF22FA05FC5C
:1003600044EA0C04203556EA044C4FEA144418BF02
:10037000641C4FF000084FF00009904271EB030C31
:1003800039D3002919BFB1FA81F701FA07F6B0FA9B
:1003900080F700FA07F6C7F120071EBF20FA07FC16
:1003A00046EA0C062037B6FBF4FCA7EB0507103F26
:1003B00007F01F0BCBF120060CFA0BFB2CFA06F60C
:1003C00044BFB3460026202FA4BF5E464FF0000B6B
:1003D0005BEA060C08BF4FF0010B19EB0B09ABFBF6
:1003E000027C48EB0608C01B06FB02CC0BFB03CCCF
:1003F00071EB0C01C1E70B46024641464846BDE899
:10040000F08B13B54FF000004FF00001AFF3008008
:10041000BDE81C40704710B5431C02E010F8011BFA
:1004200071B18107FAD14FF0013202C88C1A8C43A6
:1004300014EAC211F9D0C01A0A0603D0C01E10BDBA
:10044000C01A10BD0A0401D0801E10BD0902FCD0E4
:10045000401E10BD032A40F2308010F0030C00F063
:10046000158011F8013BBCF1020F624498BF11F8EE
:1004700001CB00F8013B38BF11F8013BA2F10402A7
:1004800098BF00F801CB38BF00F8013B11F003031F
:1004900000F05780083AC0F0088051F8043B083A51
:1004A00051F804CBA0E80810F5E7121D5CBF51F825
:1004B000043B40F8043BAFF30080D20724BF11F89F
:1004C000013B11F801CB48BF11F8012B24BF00F804
:1004D000013B00F801CB48BF00F8012B704702F048
:1004E000FF0343EA032242EA024200F05EB84FF003
:1004F000000200B5134694469646203922BFA0E874
:100500000C50A0E80C50B1F12001BFF4F7AF09077F
:1005100028BFA0E80C5048BF0CC05DF804EB890070
:1005200028BF40F8042B08BF704748BF20F8022BB3
:1005300011F0804F18BF00F8012B704770477047CB
:10054000704710B5203AC0F00B80B1E81850203A3F
:10055000A0E81850B1E81850A0E81850BFF4F5AF63
:100560005FEA027C24BFB1E81850A0E8185044BFED
:1005700018C918C0BDE810405FEA827C24BF51F85A
:10058000043B40F8043B08BF7047D20728BF31F84E
:10059000023B48BF11F8012B28BF20F8023B48BF9F
:1005A00000F8012B70474FF000020429C0F01280C0
:1005B00010F0030C3FF49DAFCCF1040CBCF1020F22
:1005C00018BF00F8012BA8BF20F8022BA1EB0C01EB
:1005D000FFF78FBF5FEAC17C24BF00F8012B00F852
:1005E000012B48BF00F8012B7047754600F02CF82E
:1005F000AE4605006946534620F00700854618B010
:1006000020B5FFF77FFEBDE820404FF000064FF019
:1006100000074FF000084FF0000B21F00701AC4637
:10062000ACE8C009ACE8C009ACE8C009ACE8C00956
:100630008D46704710B50446AFF300802046BDE8F4
:100640001040FFF7EABD000000487047F0D90020D5
:1006500001491820ABBEFEE7260002007047FEE706
:1006600070477047014800F0AFBA00006490002066
:10067000014800F0A9BA0000148F0020014800F0E2
:10068000A3BA00000490002001681823CAB2103AEF
:10069000B2FBF3F2054B6FF30901032A9B5CC365C0
:1006A00000D9091D8165084670470000D44B000839
:1006B00010B5014600208B698A6A4FF0C07453B1AF
:1006C000B3F5005F15D072B1012A0CD0022A0AD00E
:1006D000032A09D104E01AB1012A06D0022A03D163
:1006E000C96AC90100D5012010BDC96AA142FAD06A
:1006F00010BD002AF7D0012AF2D0022AF3D0032A33
:10070000F3D010BD30B50468256825F48025256038
:10071000046863608368402B036803D099600068B5
:10072000C26030BD9A600068C16030BD7047000093
:100730002DE9F0471E4E80464FF6FF701C46308074
:1007400015460F460B46404601F068FD42462346DB
:100750003946104601F062FD601E83B281B248F254
:10076000104908F10100A6F8009080B22A4601F075
:1007700055FD44F2082A2346A6F800A02A46194649
:10078000404601F04BFD681E82B2791CA6F800902D
:1007900089B280B2234601F041FD2A46A6F800A0A6
:1007A00023463946BDE8F047104601F037BD00004A
:1007B000AC00002072B6FEE72DE9FF4F83B004467F
:1007C0003E20CDE90040DDF844B000274FF080091D
:1007D0003148109A07EB071110F811301278934244
:1007E00040D100EB410A10989AF8011040788142FC
:1007F00038D1049804990F3083B204F10F0082B20B
:10080000204601F0A7FE002600250AEB060800BFDF
:10081000BBF1000F13D021490598088098F8021009
:1008200029FA05F0014203D02046049901F044FD65
:10083000641C0098A4B2201A102826D00AE098F868
:10084000021029FA05F0014201D0059800E006984F
:1008500001F0AAFF6D1CEDB2082DD9D3761CF6B2BB
:10086000202ED1D37F1C0198BFB28742B0D30C4851
:100870004188008807B0491EBDE8F04F401E8BB28A
:1008800082B20021084601F065BE0498009C401C1D
:1008900080B20490E2E7000058560008AC00002047
:1008A000E0D900202DE9FF4F83B004460720CDE9B1
:1008B0000040DDF844B000274FF0800907EB8700C7
:1008C00000EB47113048109A10F81130127893421B
:1008D00040D100EB410A10989AF80110407881420B
:1008E00038D104980499173083B204F1170082B20A
:1008F000204601F02FFE002600250AEB060800BF67
:10090000BBF1000F13D021490598088098F8021018
:1009100029FA05F0014203D02046049901F0CCFCED
:10092000641C0098A4B2201A182826D00AE098F86F
:10093000021029FA05F0014201D0059800E006985E
:1009400001F032FF6D1CEDB2082DD9D3761CF6B242
:10095000482ED1D37F1C0198BFB28742AED30C483A
:100960004188008807B0491EBDE8F04F401E8BB299
:1009700082B20021084601F0EDBD0498009C401CA5
:1009800080B20490E2E70000945E0008AC00002012
:10099000E0D900202DE9FF4F83B004460420CDE9C3
:1009A0000040DDF844B000274FF080093148109A2C
:1009B00007EB871110F811301278934240D100EB09
:1009C000410A10989AF801104078814238D1049871
:1009D00004991F3083B204F11F0082B2204601F057
:1009E000B9FD002600250AEB060800BFBBF1000F89
:1009F00013D021490598088098F8021029FA05F0CB
:100A0000014203D02046049901F056FC641C009872
:100A1000A4B2201A202826D00AE098F8021029FA59
:100A200005F0014201D0059800E0069801F0BCFEF7
:100A30006D1CEDB2082DD9D3761CF6B2802ED1D321
:100A40007F1C0198BFB28742B0D30C484188008810
:100A500007B0491EBDE8F04F401E8BB282B20021A4
:100A6000084601F077BD0498009C401C80B20490B9
:100A7000E2E700009A600008AC000020E0D9002006
:100A80002DE9FE431F46DDE90A4690468946204689
:100A90000C9DFFF7C0FC0A4980B240420988CDE9AD
:100AA000004601EBC00000EBD070C0F34F003B46A6
:100AB00042464946029502F087F8BDE8FE830000F1
:100AC000E0D9002010B5040002D0607910B106E032
:100AD000012010BD00202071204600F005F8012003
:100AE0006071002010BD000008B50068064988420A
:100AF00008D10648016841F480510160006800F4A3
:100B00008050009008BD00000030024030380240A4
:100B10002DE9F0410446876D00F0D8FA064694F8B6
:100B200035000025022806D08020606584F8345006
:100B30000120BDE8F0812068016821F01601016004
:100B40002068416921F080014161206C08B9A06CE6
:100B500020B12068016821F0080101602068016867
:100B600021F0010101600CE000F0B0FA801B0528C3
:100B700007D920206065032084F8350084F83450BC
:100B8000D7E720680068C007EED194F85C103F20DA
:100B90008840B860012084F8350084F83450002083
:100BA000C7E790F83510022903D080214165012064
:100BB0007047052180F835100068016821F00101B7
:100BC00001600020704700002DE9F84304464FF013
:100BD0000009CDF8009063484FF41651A56D0068E8
:100BE000B0FBF1F72E6894F85C10082000FA01F1D0
:100BF00031420FD021680A6852070BD50A6822F0EB
:100C000004020A6094F85C108840A860606D40F0AF
:100C10000100606594F85C104FF0010808FA01F0DB
:100C2000304208D021684969090604D5A860606D82
:100C300040F00200606594F85C1004208840304267
:100C400008D021680968890704D5A860606D40F064
:100C50000400606594F85C1010208840304218D081
:100C600021680968090714D5A8602068016849034C
:100C700004D50068000308D5A16C07E00168C90528
:100C800003D4016821F008010160216C09B12046FC
:100C9000884794F85C1020208840304231D0216889
:100CA0000968C9062DD5A86094F835000528206884
:100CB000016806D0490347D5006800031DD4616C64
:100CC0001CE021F0160101602068416921F08001DB
:100CD0004161206C08B9A06C20B12068016821F046
:100CE0000801016094F85C103F208840A86084F8F7
:100CF000358084F83490216D1FE0E16B09B1204606
:100D00008847606D00282BD0606DC00714D0052087
:100D100084F835002068016821F001010160009825
:100D2000401C0090B84203D820680068C007F6D184
:100D300084F8358084F83490E16C002910D001B03B
:100D40002046BDE8F04308470168C905D5D40168CD
:100D500021F01001016084F8358084F83490CCE7EC
:100D6000BDE8F883280000202DE9F041044600F09A
:100D7000ADF906465CB1022084F83500002584F800
:100D800034502068016821F0010101600DE001206C
:100D9000BDE8F08100F09AF9801B052805D92020D4
:100DA0006065032084F83500F2E720680068C0071A
:100DB000F0D12268116820480140D4E901031843AA
:100DC000D4E903363343184363691843A3691843CE
:100DD000E3691843236A18430843616A042903D16D
:100DE000D4E90B1319430843106020684069666A10
:100DF00020F0070130460E43012704280CD1A06AD9
:100E00000643E06A40B12046FFF752FC20B1402083
:100E1000606584F83570BAE7206846612046FFF7C0
:100E200033FC94F85C203F2191408160656584F833
:100E300035700020ACE700003F8010F02DE9F04154
:100E40000446866D90F83400002501280DD001205D
:100E500084F8340094F835700020012F07D084F80E
:100E6000340002252846BDE8F0810220FBE7022776
:100E700084F8357060652046FFF744FC94F85C10F8
:100E80003F208840B0602068016841F01601016091
:100E9000206C20B12068016841F0080101602068E1
:100EA000016841F001010160DCE7000070B5044613
:100EB00000F00CF90546601C02D004480078044498
:100EC00000F004F9401BA042FAD370BD1C000020C2
:100ED0002DE9F84FDFF8BCA10022012503264FF0D1
:100EE0000F090AF1040BAAF1040E00BF0B6805FA02
:100EF00002F42340A34270D10F7907F00307012FBA
:100F000001D0022F16D187684FEA420806FA08FC82
:100F100027EA0C07D1F80CC00CFA08FC4CEA070CC5
:100F2000C0F808C04768A7430C79C4F30014944084
:100F30003C4344600C79E443A4070AD0C4684FEAF8
:100F4000420C06FA0CF7BC438F6807FA0CF72743EC
:100F5000C7600C7904F00304022C12D1D40800EB12
:100F6000840CDCF820405707FF0E09FA07F824EA42
:100F70000804D1F8108008FA07F848EA0408CCF809
:100F8000208004684FEA420C06FA0CF7BC430F7944
:100F900007F0030707FA0CF7274307604C6814F4BF
:100FA000403F70D03C4C276847F480472760246856
:100FB00022F0030704F480440094384C07EB040C3F
:100FC000DCF8084897074FEA177809FA08F7BC4396
:100FD000334FB84202D1002724E054E0314FB842E9
:100FE00001D101271EE0304FB84201D1022719E09C
:100FF0002E4FB84201D1032714E02D4FB84201D142
:1010000004270FE02B4FB84201D105270AE02A4FF1
:10101000B84201D1062705E0284FB84201D1072781
:1010200000E0082707FA08F72743CCF80878DAF831
:1010300000405746D1F804C09C435FEACC2C00D551
:101040001C433C60DBF800405F46D1F804C09C4381
:101050005FEA8C2C00D51C433C60DEF800407746EC
:10106000D1F804C09C435FEA8C3C00D51C433C6033
:10107000084F083F3C68D1F804C09C435FEACC3C71
:1010800000D51C433C60521C102AFFF42FAFBDE872
:10109000F88F0000083C0140443802400030014015
:1010A000000002400004024000080240000C024020
:1010B000001002400014024000180240001C0240D0
:1010C0000AB1816170470904FBE7000001488068AC
:1010D000704700001C00002002488168027811441B
:1010E000816070471C0000200B4810B5016841F476
:1010F00000710160016841F480610160016841F4A0
:1011000080710160032000F09FF80F2000F006F8C6
:1011100000F050F8002010BD003C024030B50546FC
:101120001F4887B00024016841F4807101600068A5
:1011300006A900F48070009001A800F031F904982D
:10114000A8B100F04DF940001649174AB0FBF1F183
:101150001648491E026040F2E732C0E90324C0E9A4
:101160000114846100F007FD040003D015E000F0D5
:1011700037F9E9E70D4800F02DFD04000DD12D20D1
:1011800000F034F8102D07D2002229462D2000F05F
:101190003BF80748056000E0012407B0204630BD59
:1011A0004038024040420F0000200040C490002020
:1011B000200000200C4882B0016841F480410160A9
:1011C000006800F4804000900748001F016841F06B
:1011D000805101600068002200F0805000900F21D3
:1011E000901E02B000F010B844380240002809DB1D
:1011F00000F01F02012191404009800000F1E02031
:10120000C0F8001170470000F0B40E4B1B680C468C
:10121000C3F30223C3F10705042D00D90425191DCA
:10122000072901D2002300E0DB1E012606FA05F1A2
:10123000491E214099409E40761E16403143F0BC25
:1012400001F053BF0CED00E0064900F0070208680A
:101250004FF6FF03184040EA0220034A104308609B
:10126000704700000CED00E00000FA052DE9F047A2
:101270000E46050065D0DFF81481D8F80000F7B2FB
:1012800000F00700B04207D288F80070D8F80000DC
:1012900000F00700B04254D128683D4C810712D5B8
:1012A000400703D5206840F4E0502060287800070C
:1012B00003D5206840F4604020602068A96820F0D1
:1012C000F000084320602878C0072DD030496868B6
:1012D0000839012812D0022813D0032811D0096838
:1012E000890700292DDA216821F0030101432160DB
:1012F000FFF7ECFE814641F2883A0EE00968890367
:10130000EFE709688901ECE7FFF7E0FEA0EB0901D0
:10131000514502D90320BDE8F0872068696800F0D4
:101320000C00B0EB810FEFD1D8F80010404601F06F
:101330000701B14207D90770006800F00700B0420A
:1013400001D00120E7E72878400705D52068E96843
:1013500020F4E050084320602878000706D5206874
:10136000296920F4604040EAC100206000F058F88C
:101370002168084AC1F30311515CC840064908605E
:1013800006480068FFF7CAFE0020C4E7003C0240A0
:1013900008380240DC4B0008280000202000002014
:1013A0000F2202600C4A136803F0030343601368C2
:1013B00003F0F0038360136803F4E053C360126822
:1013C0004FF4E05303EAD20202610448006800F0DF
:1013D000070008607047000008380240003C0240E7
:1013E0000448054900680968044AC1F38221515C38
:1013F000C84070472800002008380240EC4B000825
:101400000448054900680968044AC1F34231515C47
:10141000C84070472800002008380240EC4B000804
:10142000154810B5006810F00C02144813D0144988
:10143000042A0FD0082A0ED10F4C241F22682368DB
:1014400002F03F025B0207D52068C0F38810A0FBC2
:10145000010106E0084610BD2168C1F38811A1FB17
:1014600000010023FEF760FF2168C1F30141491C20
:101470004900B0FBF1F010BD083802400024F40030
:1014800040787D012DE9F84F04006ED02078DFF818
:101490004C93C007A9F104054AD009F10400016882
:1014A000C1F38101012908D00068C0F3810002283E
:1014B0000AD1D9F80000400206D52868800337D544
:1014C00060680028E1D033E06068B0F5803F10D05C
:1014D000B0F5A02F286810D020F48030286028684C
:1014E00020F4802028606068A8B1FFF7EFFD064671
:1014F0000DE0286840F48030F4E740F48020286054
:10150000F7E700BFFFF7E2FD801B642873D8286867
:101510008003F7D50CE0FFF7D9FD064605E000BFD4
:10152000FFF7D4FD801B6428F0D828688003F7D427
:101530002078DFF8AC8280074FF0000A3ED5A7483C
:10154000001D016811F00C0F08D00068C0F3810085
:1015500002280BD1D9F80000400207D42868800780
:1015600016D5E068012800D112E033E1E068B8B197
:101570000120C8F80000FFF7A9FD064605E000BFFE
:10158000FFF7A4FD801B0228C0D828688007F7D584
:101590002868216920F0F80040EAC10028600DE0C9
:1015A000C8F800A0FFF792FD064604E0FFF78EFDA5
:1015B000801B02281FD828688007F7D420780007EE
:1015C00022D5864F87486169703771B1012101606A
:1015D000FFF77CFD064604E0FFF778FD801B02283C
:1015E00009D838688007F7D50EE0C0F800A0FFF7EB
:1015F0006DFD064605E082E0FFF768FD801B0228CE
:101600007DD838688007F7D42078400768D5DFF8A0
:10161000CCB100270BF13C0BDBF80000C0000BD471
:10162000DBF8001041F08051CBF80010DBF800002F
:10163000012700F0805000906B4E3068C00510D438
:10164000306840F480703060FFF740FD009005E0A6
:10165000FFF73CFD0099401A022850D83068C005B9
:10166000F6D55E4EA0686C3601280FD0052830688C
:1016700010D020F001003060306820F004003060AD
:10168000A068B8B1FFF722FD00900FE0306840F08D
:101690000100F4E740F004003060F7E7FFF716FDC3
:1016A0000099411A41F28830814266D8306880073B
:1016B000F4D50EE0FFF70AFD009007E0FFF706FD06
:1016C0000099411A41F28830814256D8306880072B
:1016D000F4D42FB1DBF8001021F08051CBF80010CA
:1016E000A069C8B33D49091D0968C1F381010229F8
:1016F0004AD00228504607D0C8F8600000E03CE01D
:10170000FFF7E4FC04463BE04746C8F86000FFF7FB
:10171000DDFC064605E000BFFFF7D8FC801B022871
:101720002BD828688001F7D4D4E907010843A16ABF
:101730002E4A490802EB0141626A41EA82110843DC
:1017400094F82C1040EA0161C9F8001001203866B5
:10175000FFF7BCFC044606E03EE000BFFFF7B6FC26
:10176000001B022809D828688001F7D534E000BFA3
:10177000FFF7ACFC001B022802D90320BDE8F88F5C
:1017800028688001F4D427E00128F7D0D9F80000B8
:10179000E26900F4800191421CD1226A00F03F010D
:1017A000914217D147F6C071626A0140B1EB821FC6
:1017B00010D1A26A4FF0FF3300F4403103EB520224
:1017C000B1EB024F06D194F82C1000F07060B0EB32
:1017D000016F01D00120D1E70020CFE7043802409B
:1017E00000004742800E4742007000400000FFFFAB
:1017F0007047000038B5016804464A688868C043ED
:10180000430606D5C30704D1D3435B0601D4216C3C
:1018100005E0830708D4D3431B0605D4616C01B0EF
:101820002046BDE830400847830603D5430601D56E
:10183000C30551D4D3439B064ED443060AD494F82F
:101840005130032B49D0636D43F004036365CB68CB
:101850008B680093830609D4636D43F001036365CD
:101860008B6800930B6823F040030B60C00506D41F
:10187000606D40F008006065206880680090606DD1
:10188000002829D02068416821F0E0014160012052
:1018900084F85100900701D4D00722D02068416815
:1018A00021F003014160114DE06C40B10565E06C31
:1018B000FFF777F918B1606D40F040006065A06CEB
:1018C000002809D00565A06CFFF76BF9002803D04C
:1018D000606D40F04000606538BDC8688868009061
:1018E00038BD2046FFF784FF38BD0000052A0008F8
:1018F00070B5040009D0606A002540B125616561BA
:10190000A56294F8510040B10CE0012070BD606800
:10191000B0F5827FF4D0E561F2E784F850502046BC
:1019200000F044F8022084F851002068016821F09A
:1019300040010160A088218900F4827001F4044113
:101940000843A18901F400610843217C01F00201F0
:101950000843217D01F001010843218B01F400714E
:101960000843217F01F03801084394F8201001F06A
:1019700080010843218D01F400510843216808606B
:10198000A069042101EA104094F8241001F010012C
:101990000843216848602068C16921F40061C16181
:1019A0006565012084F85100002070BD2DE9F043E9
:1019B00087B0064614216846FEF799FD2C49306829
:1019C000884251D12B480025016841F480510160C3
:1019D0000068284900F4805014390590086840F0E8
:1019E00001000860086800F001000590086840F0F8
:1019F0000200086008684FF0400900F002004FF054
:101A00000508CDF80090CDE9048001AA022403273F
:101A100082E8B00069461848FFF75AFA28208DE896
:101A2000B10169461548FFF753FA164C1448206077
:101A30007806C4E901094FF48060C4E90350656188
:101A4000A561E561256220466562FFF78DF908B161
:101A5000FEF7B0FEB464002205212320A663FFF741
:101A6000D3FB2320FFF7C2FB07B0BDE8F0830000E3
:101A700000300140443802400000024000040240AF
:101A800058640240148F002070B5044690F850004E
:101A90000026012809D0012084F8500094F8510054
:101AA0000025012803D002264AE0022070BD89B13A
:101AB00082B1032084F8510065652163A286E28625
:101AC000A56365642564A587E587A068B0F5004F28
:101AD00002D00BE0012633E02068016821F04001CC
:101AE00001602068016841F480410160A16C1648E2
:101AF0000864A16C1548C863A16C1548C864A06C43
:101B00000565E38E2268216B0C32A06CFFF796F915
:101B100020B1606D40F010006065DBE7206801686F
:101B2000490603D4016841F0400101602068416822
:101B300041F0200141602068416841F002014160AC
:101B400084F85050304670BD372A0008412A0008FA
:101B5000152A000800680449884204D10122D103F3
:101B60000248FFF7ADBA7047003001400004024060
:101B700070477047704710B5040003D094F83D00DB
:101B800010B107E0012010BD002084F83C00204681
:101B900000F01EF8022084F83D00211D206801F0AD
:101BA00009F9012084F8460084F83E0084F83F00DB
:101BB00084F8400084F8410084F8420084F843002F
:101BC00084F8440084F8450084F83D00002010BDEE
:101BD0007047000090F83D10012901D001207047A6
:101BE000022180F83D100168CA6842F00102CA6013
:101BF00000681149884214D0B0F1804F11D00F49CC
:101C000088420ED00E4988420BD00E49884208D037
:101C10000D49884205D00D49884202D00C498842BE
:101C200004D1816801F00701062903D0016841F061
:101C300001010160002070470000014000040040E5
:101C400000080040000C004000040140004001403A
:101C50000018004070472DE9F04104460068C6684E
:101C600005694FF00007A90713D5B10711D5F91E73
:101C7000016101202077206880698007204602D01A
:101C8000FFF7E8FF04E000F07EF8204600F07CF863
:101C90002777680716D5700714D521686FF0040000
:101CA0000861022020772068806910F4407F204678
:101CB00002D0FFF7CFFF04E000F065F8204600F007
:101CC00063F82777280715D5300713D521686FF0FB
:101CD00008000861042020772068C069800720463A
:101CE00002D0FFF7B7FF04E000F04DF8204600F007
:101CF0004BF82777E80616D5F00614D521686FF063
:101D000010000861082020772068C06910F4407F27
:101D1000204602D0FFF79EFF04E000F034F8204692
:101D200000F032F82777E80708D0F00706D02168DE
:101D30006FF001000861204600F028F8280608D559
:101D4000300606D521686FF0800008612046FFF755
:101D500010FF680608D5700606D521686FF04000B0
:101D60000861204600F01CF8A8060AD5B00608D580
:101D700021686FF0200008612046BDE8F041FFF7C0
:101D8000F9BEBDE8F0817047704700000068034964
:101D9000884201D1FFF7A0B9704700000020004041
:101DA0007047704770470000F8B50168044608683E
:101DB000CA684B6910F00F0F4FF0000559D003F0BF
:101DC000010602F49077374365D0C10705D0D105ED
:101DD00003D5616C41F001016164410705D5D90764
:101DE00003D0616C41F002016164810705D5D90718
:101DF00003D0616C41F004016164010707D502F072
:101E00002001314303D0616C41F008016164616CD1
:101E100000293AD0800604D5900602D5204601F06C
:101E200070F820684069616CC0F38010090700D425
:101E300060B3204601F03EF820684069400621D595
:101E40002068143050E8001F21F0400140E80012E3
:101E5000002AF5D1E06BA8B16E490165E06BFEF791
:101E6000A0FE002811D0E06B016D01B0BDE8F0408C
:101E7000084783060FD593060DD52046BDE8F840E8
:101E800001F03FB82046FFF78DFFF8BD2046FFF771
:101E900089FF6564F8BD266B2023012E7DD1C6061F
:101EA0007BD5D60679D508684868009048694FF018
:101EB0000206400641D5E16B086840680004000C4A
:101EC000E8D0A28D8242E5D9E085C869B0F5807F6F
:101ED0002DD020680C3050E8001F21F4807140E8BC
:101EE0000012002AF5D12068143050E8001F21F0BC
:101EF000010140E80012002AF5D12068143050E8B2
:101F0000001F21F0400140E80012002AF5D184F8BA
:101F10004230256320680C3050E8001F21F010018A
:101F200040E80012002AF5D1E06BFEF7F1FD666390
:101F3000A08DE18D401A81B22AE0A08DE18D401A7A
:101F400081B2E08D0028A5D00029A3D022680C32F0
:101F500052E8000F20F4907042E80007002FF5D1FE
:101F60002068143050E8002F22F0010240E80027DA
:101F7000002FF5D184F84230256320680C3050E8FA
:101F8000002F22F0100240E80023002BF5D16663F9
:101F90002046FFF706FFF8BDFFE705062BD515061F
:101FA00029D594F841002128F5D1A068B0F5805FCB
:101FB00001D12069B0B1206A411C216221680078FA
:101FC0004860E08C401E0004000CE084E3D12068EF
:101FD000C16821F08001C1602068C16841F0400102
:101FE000C160D8E7206A0088C0F308004860206A12
:101FF000801C2062E5E74006CDD55006CBD5CA68E7
:10200000204622F04002CA6084F8413000F0D3F844
:10201000C1E70000A52E000870B5040004D094F8B4
:102020004100002510B106E0012070BD84F8405049
:10203000204600F023F8242084F841002068C1687D
:1020400021F40051C160204600F0BCFF2068016906
:1020500021F4904101612068416921F02A01416128
:102060002068C16841F40051C1606564202084F893
:10207000410084F842006563002070BD2DE9F04105
:1020800086B0064614216846FEF731FA424D3168A3
:102090004248022203230024A94222D13F491031A1
:1020A0000D6845F480250D60096801F480210591D3
:1020B000016841F0020101600068694600F0020019
:1020C000059098028DE815000720CDE903303448CB
:1020D000FEF7FEFE002205212720FFF795F82720B6
:1020E00054E0304DA94253D12C4914310D6845F0CC
:1020F00020050D60096801F020010591016841F09B
:10210000040101600068694600F004000590C020E9
:102110008DE815000820CDE903302348FEF7D8FEEE
:10212000234D22484FF02067E5E8020740204FF496
:102130008068A5E811011E4845F81449AC61EC61BE
:102140002C626C62FEF710FE08B1FEF733FBB5633C
:10215000AE63174D1548603578382860C5E90174BD
:10216000C5E9034880156C61C5E906402C62284624
:102170006C62FEF7F9FD08B1FEF71CFBF563002267
:1021800005214720AE63FFF73FF84720FFF72EF801
:1021900006B0BDE8F0810000004800403038024041
:1021A000000402400014014000080240A064024004
:1021B0000490002070477047FEE700002DE9F041D1
:1021C000144C074600216088401E83B22088401EC0
:1021D00082B2084600F0BEF90F4D00224FF40041D4
:1021E0002846FEF76DFF012291032846FEF768FF9F
:1021F000002609E0002503E0384600F0D5FA6D1C02
:102200002088A842F8D8761C6088B042F2D8BDE891
:10221000F0810000E0D90020000402402DE9FE4FCB
:10222000161ACDE900104FF000085D1A47464FF02E
:10223000FF30002E02DD4FF0010102E003D14FF02C
:1022400000018B4602E08346C6F10006002D02DD48
:102250004FF0010002E003D14FF00000824602E09F
:102260008246C5F10005AE4201DD344600E02C4651
:10227000601C4FF00009029018E0009881B20198AC
:1022800080B200F019F8B0442F44A04504DD019855
:10229000A8EB040858440190A74203DD00983F1BB7
:1022A0005044009009F101001FFA80F90299894514
:1022B000E3DDBDE8FE8F000010B500F047F90348EC
:1022C0000088BDE8104000F06FBA0000AC000020AC
:1022D00010B5914C00224FF400412046FEF7F0FE6D
:1022E00000F01CF9112000F005FA7820FEF7DEFD61
:1022F000B12000F0FFF9012000F0E4F92C2000F0FB
:10230000E1F92D2000F0DEF9B22000F0F3F9012010
:1023100000F0D8F92C2000F0D5F92D2000F0D2F9EA
:10232000B32000F0E7F9012000F0CCF92C2000F0F8
:10233000C9F92D2000F0C6F9012000F0C3F92C20C6
:1023400000F0C0F92D2000F0BDF9B42000F0D2F962
:10235000072000F0B7F9C02000F0CCF9A22000F06F
:10236000B1F9022000F0AEF9842000F0ABF9C120F1
:1023700000F0C0F9C52000F0A5F9C22000F0BAF9BC
:102380000A2000F09FF9002000F09CF9C32000F023
:10239000B1F98A2000F096F92A2000F093F9C420C0
:1023A00000F0A8F98A2000F08DF9EE2000F08AF9FB
:1023B000C52000F09FF90E2000F084F9362000F0CF
:1023C00099F9C82000F07EF9E02000F093F90F2081
:1023D00000F078F91A2000F075F90F2000F072F97A
:1023E000182000F06FF92F2000F06CF9282000F081
:1023F00069F9202000F066F9222000F063F91F201F
:1024000000F060F91B2000F05DF9232000F05AF97C
:10241000372000F057F9002000F054F9072000F0B1
:1024200051F9022000F04EF9102000F04BF9E120A4
:1024300000F060F90F2000F045F91B2000F042F990
:102440000F2000F03FF9172000F03CF9332000F096
:1024500039F92C2000F036F9292000F033F92E202C
:1024600000F030F9302000F02DF9302000F02AF98A
:10247000392000F027F93F2000F024F9002000F077
:1024800021F9072000F01EF9032000F01BF91020AD
:1024900000F018F92A2000F02DF9002000F012F9C0
:1024A000002000F00FF9002000F00CF97F2000F070
:1024B00009F92B2000F01EF9002000F003F900209C
:1024C00000F000F9002000F0FDF89F2000F0FAF87D
:1024D000F02000F00FF9012000F0F4F8F62000F0F1
:1024E00009F9002000F0EEF83A2000F003F9052089
:1024F00000F0E8F8292000F0FDF8002000F022F9B3
:10250000012251032046FEF7DBFDBDE810404FF6E7
:10251000FF70FFF753BE00000004024070B50A4D83
:102520004FF48054002221462846FEF7C9FD64205E
:10253000FEF7BCFC012221462846FEF7C1FDBDE89E
:1025400070403220FEF7B2BC000402400B46024647
:10255000AFF300802DE9F041174C07469846154629
:102560000E46A07A00F0C6F8002000F0ABF8A07B81
:102570003844C0B200F0A6F8002000F0A3F8A07B19
:102580002844C0B200F09EF8207B00F0B3F8002091
:1025900000F098F8E07B3044C0B200F093F80020DF
:1025A00000F090F8E17B01EB0800C0B200F08AF87F
:1025B000BDE8F04100F0B6B8E0D900202DE9FF4FAA
:1025C00081B08A460EA9DFF8EC9091E831002038FE
:1025D00000F0FF080AEB0400401E83B20198B9F82E
:1025E00000B000EB5400401E82B251460198FFF744
:1025F000B1FF002D4FF0000549D12F4808EB4801ED
:1026000000EB810A00F2744000EB081817E00C2C74
:1026100003D018F8057000260CE01AF80570FAE7E8
:10262000F80701D0039800E0049800F0BDF87F0897
:10263000761CF6B2B6EB540FF2D36D1CEDB2A54288
:10264000E5D326E00C2C08D01C4901EB081000262D
:10265000475D0AEB0500009014E0174808EB4801BD
:1026600000EB8100F3E70398A9F80000F80706D013
:10267000009881B20198304480B2FFF71DFE7F08B8
:10268000761CF6B2B6EB540FEDD36D1CEDB2A5423D
:10269000D8D30B48A9F800B04188008805B0491E7E
:1026A000BDE8F04F401E8BB282B200210846FFF712
:1026B00051BF0000AC000020F44B00086850000837
:1026C000E0D9002031B5094C00224FF400412046EA
:1026D000FEF7F6FC012291032046FEF7F1FC0122F1
:1026E00069460348FFF7D0F938BD000000040240F6
:1026F000BC8E002031B5094C00224FF40041204629
:10270000FEF7DEFC00224FF480412046FEF7D8FCA5
:10271000012269460248FFF7B7F938BD00040240BC
:10272000BC8E00200148007AFFF7E4BFE0D900200A
:1027300010B50C46FFF7DEFFE0B2BDE81040FFF732
:10274000C1BF000030B417492A2202234A812B223C
:102750008A812C220A810324802278B1012813D097
:102760000124022816D003281AD10A804A808C73CB
:10277000CB73682130BC3620FFF7DABF0A804A806D
:102780008B73CC73C821F5E70A804A808C73CB73B6
:10279000A821EFE70A804A808B73CC730821E9E710
:1027A00030BC7047E0D9002038B50C4D04460022FB
:1027B0004FF400412846FEF783FC0122910328468E
:1027C000FEF77EFC200A8DF800008DF80140022201
:1027D00069460348FFF758F938BD0000000402407D
:1027E000BC8E0020074910B5054808600846FEF772
:1027F00069F9002803D0BDE81040FDF7DBBF10BD2C
:102800000030024014000020114808B5016841F46E
:10281000800101600068002200F480000090052122
:102820003920FEF7F1FC3920FEF7E0FC00220521FB
:102830003B20FEF7E9FC3B20FEF7D8FC00220521F7
:102840004520FEF7E1FCBDE808404520FEF7CEBC80
:102850003038024010B5134B00220121124800F01D
:1028600061FD124C0F4B0022E06010330121104833
:1028700000F058FD0B4A20616C3A00210D4800F031
:102880000BFD084A2060483A00210B4800F004FD87
:10289000044A6060243A0021084800F0FDFCA06072
:1028A00010BD0000B44B00086106000800000020C5
:1028B00063060008952C0008DB2C0008E32C0008B8
:1028C00070B586B014216846FDF711FE1A48002540
:1028D000016841F004010160016801F00401059103
:1028E000016841F080010160016801F080010591FB
:1028F000016841F001010160016801F001010591E9
:10290000016841F00201016000680C4E00F0020015
:102910004FF470440590002221463046FEF7D0FB6C
:102920000121CDE90041CDE9021569463046FEF7A7
:10293000CFFA06B070BD00003038024000040240FB
:102940000F4810B50D4901604FF4827141600021BC
:102950008160C1604FF400720161C0E90512C1617C
:102960000162416281620A21C162FEF7C1FF002853
:1029700003D0BDE81040FDF71DBF10BD0030014081
:10298000BC8E00200C4810B50A4901604FF4E131BB
:102990004160002181600C22C160C0E904128161A4
:1029A000C161FFF739FB002803D0BDE81040FDF7F7
:1029B00001BF10BD00480040748F00200C4810B5C6
:1029C0000A4901604FF4E1314160002181600C222D
:1029D000C160C0E904128161C161FFF71DFB0028DD
:1029E00003D0BDE81040FDF7E5BE10BD0014014066
:1029F000BC8F0020FEE7FEE70148FEF7FBBE0000AB
:102A0000BC8E002010B5806B0021C187C186FEF707
:102A1000EFFE10BD10B5806B01684A6822F003021A
:102A20004A60416D41F010014165012180F851106B
:102A3000FEF7DEFE10BD10B5806BFFF799F810BDF4
:102A400038B50546846BFEF741FB024628680068EE
:102A5000C00523D42068416821F02001416020682E
:102A6000416821F0020141606421204600F01AF81B
:102A700018B1606D40F020006065A068002118B9B1
:102A80002068C26880680090E186012084F85100C7
:102A9000606D18B12046FEF7ABFE38BD2046FFF74B
:102AA00059F838BDF8B515460E460B460092044657
:102AB0000122022100F02CF8A0B913481349006844
:102AC000B0FBF1F04FF47A71484300906068B0F5C4
:102AD000827F0DD13346002280212046009500F0F0
:102AE00017F870B1606D40F0200060650320F8BDFC
:102AF000009830B1401E009020688068C0430006F6
:102B0000F6D50020F8BD00002800002000366E0138
:102B10002DE9F8431E46914688460446089DFEF777
:102B2000D5FA401B351AFEF7D1FA0746254800684A
:102B3000C0F3CB30684338E0701C37D0FEF7C6FADC
:102B4000C01BA84203D215B1009860B32CE02068E6
:102B5000416821F0E00141606068B0F5827F0BD1EF
:102B6000A068B0F5004F02D0B0F5806F04D12068A6
:102B7000016821F040010160A06AB0F5005F09D151
:102B80002068016821F4005101602068016841F467
:102B900000510160012084F85100002084F85000A9
:102BA0000320BDE8F8830025401E0090206881685E
:102BB00038EA010004D000214945BDD10020F0E7EA
:102BC0000121F9E7280000202DE9FF4F83B0884656
:102BD00010A9044691E86004814628782C4F9B4652
:102BE000002852D03888A0EB5601A1424DDB7988ED
:102BF0008A1B424549DB2978802915D9801BA042D0
:102C000043DB424541DB202E33D0CDE9005A059A03
:102C1000182E5B464146204634D0FDF7CDFDA01965
:102C200084B215F8020FDBE70D290DD0102E12D952
:102C300010228DE806045B4641462046059AFFF7C0
:102C4000BDFC0834A4B211E008EB06001FFA80F8BE
:102C50004C466D1C0AE08DE842045B464146204626
:102C6000059AFFF7ABFC04EB560084B215F8010F90
:102C7000B6E7CDE9005A5B4641462046059AFDF786
:102C800089FECCE7FDF70EFEC9E707B0BDE8F08F7F
:102C9000E0D90020FFF71CFB4FF4FA742046FEF742
:102CA00005F94FF4FC60FFF789FA2046FEF7FEF8BD
:102CB0004EF67D70FFF782FA5FEA840400F03CFA7A
:102CC000204600F0ADFA1F20FFF778FA204600F00A
:102CD000A7FA012000F0A4FAF0E7012000F0A0FA22
:102CE000FBE7012000F09CFAFBE710B54FF0E02075
:102CF000006901F03BFD012803D0BDE8104001F060
:102D000069BA10BD30B593B030216846FDF7EFFBCE
:102D100014210CA8FDF7EBFB1D480025016841F0CC
:102D200080510160006800F08050119019480168DE
:102D300041F4804101600068022400F48040119059
:102D40000120039010200490009406940820CDE9FF
:102D50000750A820CDE9090404200B906846FEF72F
:102D600091FB08B172B6FEE70CA90F2081E8310093
:102D70004FF4A0500F904FF48050109005210CA8F4
:102D8000FEF774FA002801D072B6FEE713B030BD2A
:102D900040380240007000400248016841F4700170
:102DA0000160704788ED00E00148FEF754BF000065
:102DB000C4900020F0B50268294C2A4D2A4E2B4FB2
:102DC0002B4B4FF0804CA04209D0604507D0A84261
:102DD00005D0B04203D0B84201D0984204D122F0CD
:102DE000700E4A6842EA0E02A0421BD0604519D01C
:102DF000A84217D0B04215D0B84213D0984211D093
:102E00001C4DA8420ED01C4DA8420BD01B4DA84211
:102E100008D01B4DA84205D01A4DA84202D01A4D29
:102E2000A84203D122F44075CA682A434D6922F0B2
:102E300080022A4302608A68C2620A688262A042F3
:102E400001D0984201D10969016301214161016901
:102E5000C90703D0016921F001010161F0BD000043
:102E6000000001400004004000080040000C004049
:102E7000000401400040014000440140004801407E
:102E800000180040001C00400020004010B500F079
:102E9000E5FE002805D0D0E90021BDE81040084635
:102EA000104710BD10B5806B0021C185C184FEF7AD
:102EB00079FF10BD01680C3151E8002F22F49072A7
:102EC00041E80023002BF5D10168143151E8002FAF
:102ED00022F0010241E80023002BF5D1016B01290A
:102EE00009D101680C3151E8002F22F0100241E8AD
:102EF0000023002BF5D1202180F84210002101632E
:102F0000704708B590F84210222901D0022008BD70
:102F100082684FF480539A4201D1016921B1816ADC
:102F20009A421BD04AB10AE00268816A5268C2F331
:102F300008020A80816A891C08E0026972B102688D
:102F4000526802F07F020A70816A491C8162C18D59
:102F5000491E0904090CC18503D01BE002685268B0
:102F6000F1E70168CA6822F02002CA600168CA68F5
:102F700022F48072CA6001684A6922F001024A6143
:102F8000202180F8421000214163026B012A03D006
:102F9000FFF710F9002008BD016301680C3151E80A
:102FA000002F22F0100241E80023002BF5D1016828
:102FB0000A68D20602D50A6849680091818DFEF739
:102FC000F0FEE7E770B5044600680169E26821F4A5
:102FD0004051114301612169A068E26908436169B8
:102FE000114308432168CA6849F20C639A430243BB
:102FF000CA6020684169A26921F4407111434161AE
:1030000031492068884202D03049884202D1FEF717
:10301000F7F901E0FEF7E4F9E269002319216425DC
:103020003226B2F5004F626828D0A0FB0101930F51
:103030009200FDF779F90146B0FBF5F06FF0180248
:10304000504301EB800006EB0010B0FBF5F000F000
:10305000F002B1FBF5F002EB0012B1FBF5F06FF0FE
:103060001803584301EB800006EB0010B0FBF5F0AD
:1030700000F00F0021681044886070BDA0FB0101C2
:1030800092185B41FDF750F90146B0FBF5F00201E3
:10309000B1FBF5F06FF01803584301EB800006EB2D
:1030A000C000B0FBF5F000F0F80002EB4002B1FB0D
:1030B000F5F0584301EB800006EBC000B0FBF5F0E3
:1030C00000F00700D6E700000010014000140140A6
:1030D0000148FEF769BE0000748F00200148FEF72A
:1030E00063BE0000BC8F0020FEE70907090E002820
:1030F00004DB00F1E02080F80014704700F00F00BE
:1031000000F1E02080F8141D7047FDF7EDFFFFF798
:10311000F9FDFFF7D5FBFFF777FBFFF711FCFFF792
:1031200061FBFFF74BFCFFF72DFC00F087F8FFF782
:1031300091FB00F095F8FEE7FEB54EF67D76304641
:10314000FFF73CF81C23712208210F20FDF7F0FA4D
:10315000102523A0CDE9000501241F234FF61F02EF
:103160000A2102940020FDF78BFC3A2371222621CC
:103170000F20FDF7DDFA1EA0CDE900050022334641
:10318000282102941046FDF77BFC5823712244212C
:103190000F20FDF7CDFA1AA0CDE9000533461F2216
:1031A000462102940020FDF76BFC762371226221F8
:1031B0000F20FDF7BDFA16A0CDE9000533464FF408
:1031C0007842642102941020FDF75AFC40F2DC5052
:1031D000FDF76CFEBDE8FE404FF4FA70FDF766BEE9
:1031E000CDBCD0CECFD4CABEB2E2CAD4000000005B
:1031F000B4BFC9ABCCEEB3E4B2E2CAD40000000065
:10320000D6D0CEC4CFD4CABEB2E2CAD40000000029
:10321000CDBCC6ACCFD4CABEB2E2CAD40000000056
:1032200010B5EFF3058111B16FF0050403E0002440
:1032300008B100F06FFE204610BD0000EFF30580DE
:1032400010B16FF0050070470448016811B14FF0EC
:10325000FF30704701210160002070477C00002092
:1032600010B5EFF3058010B16FF0050010BD0848F0
:103270000168012902D04FF0FF3010BD054A00213E
:1032800082F8141D0221016000F0ACFE002010BD88
:103290007C0000200BE000E02DE9FF414FEA010334
:1032A0004FF00005EFF30581039549BB40B380273C
:1032B000182100244AB3166806B1344696691EB137
:1032C0003146761E382E02D21679F60703D000203A
:1032D00004B0BDE8F081566906B1B708D2F808C05D
:1032E000BCF1000F0DD0D5685C2D18D312693AB12E
:1032F00036B18DE806103A46214601F00CFA0390EB
:103300000DE0D6685EB912694AB903AACDE9001288
:10331000BAB2214601F0D2F9012800D003950398F2
:10332000D6E700002DE9FC471C4690468946074633
:103330004FF00006EFF3058058BB57B3082000F0AC
:103340001FFC050025D0C5E90078B9F1000F12D0A7
:103350000122114B002094B1216801B10846A168F7
:1033600059B1E4682C2C11D3CDE900312B46012151
:1033700001F068FB08E00022EBE7E16831B9009357
:103380002B46012101F044FB060002D1284600F043
:103390001DFD3046BDE8FC878D2E00082DE9F0416B
:1033A000134C0F460546E6682068001D00F07EFCC1
:1033B000681C07D137B12168BDE8F0410D48091DEF
:1033C00000F0C4BC20683544B5424560216805D290
:1033D000A06BBDE8F041091D00F0A0BC606B091DA9
:1033E00000F09CFCA06A854200D2A562BDE8F08195
:1033F0002C000020FC9500202DE9F041054600F04E
:10340000B1FC2D4CA068401CA06020682B4F10B16F
:10341000606930B32BE02560A068012827D1002621
:1034200006EB860007EB800000F06AFC761C382E65
:10343000F6D3234800F064FC2148143000F060FC0F
:103440001F48283000F05CFC1D483C3000F058FC60
:103450001B48503000F054FC194860631430A063DE
:1034600005E02068E96AC06A884200D82560606A81
:10347000401C60626864E86A2169884200D9206162
:1034800000EB800007EB8000291D00F05FFC00F0DE
:1034900089FC606900280CD02068E96AC06A88420B
:1034A00007D208494FF080500860BFF34F8FBFF339
:1034B0006F8FBDE8F08100002C0000204C910020AF
:1034C000AC95002004ED00E038B500F04BFC104C4A
:1034D0002068C8B90F4800F013FC0E48143000F003
:1034E0000FFC0C48E060143020610A4B0020F03BD8
:1034F000009003F1500210210A2000F081FE2060AC
:1035000010B105A100F0D0FCBDE8384000F04ABC85
:103510006800002000970020546D725100000000E8
:1035200030B4026C0B46002A0BD0C1681144C16054
:103530008468A14201D30168C16030BC1846FCF721
:1035400089BF30BC70472DE9F041856B17460446B2
:103550000026026C82B1C7B1E068FCF77BFFE1682E
:10356000206C091AE1602268914202D2A168081A0F
:10357000E060022F16D017E02068A8B9A06801F01B
:103580006DF906460020A0600EE06068FCF762FF5F
:10359000216C606808446060A168884204D3206898
:1035A000606001E005B16D1E6D1CA5633046BDE88D
:1035B000F08110B5044690F8590058B101280CD09C
:1035C00002280FD0502080F31188BFF34F8FBFF334
:1035D0006F8FFEE7206B00F0F9FB2046BDE810403E
:1035E00000F0F4BB10BD000010484FF470514207CA
:1035F00006D0C01D0D4920F00700411AC1F57051D9
:103600000B4A00230144C2E900030839183A21F0AB
:10361000070111604B600B600B1AC0E90013936047
:103620004FF000405360506170470000E09D002063
:1036300098000020144E154CA6F29C474FF080587D
:10364000DFF84C9012E000BF00F08CFBF068C5681A
:10365000281D00F02BFBA068401EA0606068401E83
:10366000606000F09FFB2846FFF7A3FF606800281A
:10367000EAD138680128F9D9C9F80080BFF34F8F23
:10368000BFF36F8FF2E70000E89500202C000020C8
:1036900004ED00E070B51D46049C51B1C4F8002053
:1036A000C4E90F010121204600F0DEFD84F84C50F2
:1036B00070BD2460F4E700002DE9F05F8846DDE985
:1036C0000B941546834691009A460A9EA522206BCC
:1036D000FCF705FF6FF00301206B01EB8501084447
:1036E00020F00707780707D0502080F31188BFF338
:1036F0004F8FBFF36F8FFEE70025B8F1000F0FD09B
:103700005FF00000221818F8001082F8341018F842
:10371000001011B1401C1028F4D384F8435001E08C
:1037200084F83450382E00D33726E662C4E9136596
:10373000201D00F0F0FA04F1180000F0ECFA24610A
:10374000C6F138006462A061656584F8585052463D
:103750005946384600F094FA2060B9F1000F01D0C4
:10376000C9F80040BDE8F09F2DE9F0471E46DDE9AD
:10377000089417460D00804615D0002C11D0FFF795
:10378000A3FE04F11801C4F8008081E86002201D46
:1037900000F0C1FA002F04D014F8280F40F0040004
:1037A0002070BDE8F087502080F31188BFF34F8F61
:1037B000BFF36F8FFEE7000030B5114900E01146FE
:1037C0000A688242FBD34B685C18844203D140688C
:1037D00018444860084643681C18944209D1084CB4
:1037E000183C2468A24209D052681A4442600A6810
:1037F00012680260814200D0086030BD0460F9E7C1
:103800009800002070B5002441600B4D006191428A
:1038100006D8D11A8269914206D2011D286907E0B3
:103820009A4203D2994201D3012403E0011DE868C2
:1038300000F074FA204670BD6800002010B5044600
:1038400000F090FAA06B28B15FF0000400F0AAFA33
:10385000204610BD0124F9E730B589B03C4D6EE03B
:103860000498002806DADDE90601059A90470498D5
:10387000002864DB069C606910B1201D00F016FA78
:1038800003A800F0D7F8024604980A2857D2DFE8C8
:1038900000F00505052D334A05052D3394F8280061
:1038A00040F0010084F828000599A069059B0144B7
:1038B0002046FFF7A7FF68B3216A2046884794F89F
:1038C000280040073BD5002000900598A1690023FF
:1038D00042181946204601F0FDF8D8B9502080F36F
:1038E0001188BFF34F8FBFF36F8FFEE714F8280FD7
:1038F00020F00100207022E094F8280040F0010040
:1039000084F828000598A06128B181181346204644
:10391000FFF778FF13E0502080F31188BFF34F8F3B
:10392000BFF36F8FFEE794F82800810703D4204689
:1039300000F04CFA03E020F0010084F82800002297
:1039400004A9286800F0E4FD002889D109B030BD41
:10395000680000202DE9FC410F46054600F086FB7B
:1039600001A800F067F80446019818B100F0EEFFD6
:10397000BDE8FC81254EAFB130690068D0B30027A7
:10398000291B3A46306800F0A3FA00F0DFFF002858
:10399000EED11F494FF080500860BFF34F8FBFF347
:1039A0006F8FE5E7A542EBD800F0D0FFF06827461F
:1039B000C068C468201D00F079F994F82800410718
:1039C00019D5A0692B4641193A462046FFF71AFF40
:1039D000A8B100200346014600902A46204601F087
:1039E00079F860B9502080F31188BFF34F8FBFF38F
:1039F0006F8FFEE707E020F0010084F82800216ABD
:103A000020468847B4E70127BAE700006800002095
:103A100004ED00E00648416B096829B1416BC968B3
:103A2000C9684968816270474FF0FF31FAE70000CA
:103A30002C00002070B5054600F0A6FE064E044698
:103A4000B068844203D200F009F8012000E00020B1
:103A500028602046B46070BD68000020F8B5194D9C
:103A600020E0C068C4680668201D00F01FF9216AC4
:103A70002046884794F82800400713D5A0693044B1
:103A8000B04206D924616060211DE86800F046F963
:103A900008E000200346014600903246204601F02F
:103AA00019F838B1E86801680029DAD12969C5E94F
:103AB0000310F8BD502080F31188BFF34F8FBFF380
:103AC0006F8FFEE76800002008484068401C4FF0F8
:103AD000500080F3118804D0BFF34F8FBFF36F8F76
:103AE000FEE7BFF34F8FBFF36F8FFEE7A00000200C
:103AF000074CE068016841B1C0680021D0F80000BF
:103B0000FFF728FFFFF7A8FEF3E701210020F7E702
:103B1000680000202DE9F041044600F023F994F9F3
:103B2000455004F1240609E0606A48B1304600F0CF
:103B3000D5FE08B100F01CFA6D1E6DB2002DF3DC4D
:103B40004FF0FF3684F8456000F02CF900F00AF9D8
:103B500094F9445004F1100709E0206948B138464F
:103B600000F0BCFE08B100F003FA6D1E6DB2002D2E
:103B7000F3DC84F84460BDE8F04100F013B90000C4
:103B80002DE9F0410546002700F070FA324E30680A
:103B900008B9FFF729FD706905424ED1C5B3083554
:103BA00068070ED005F00700C0F10800054468075B
:103BB00007D0502080F31188BFF34F8FBFF36F8F72
:103BC000FEE72DB37068854237D823481830014688
:103BD0000C6801E020460C466168A94202D22168C7
:103BE0000029F7D131688C4227D00768216801602D
:103BF00060680837411B10290FD96019420708D0A7
:103C0000502080F31188BFF34F8FBFF36F8FFEE713
:103C100013E041606560FFF7CFFD61687068401A8E
:103C20007060B268904200D2B060706901430020B9
:103C3000C4E90001F068401CF06000F087FE7807DE
:103C400007D0502080F31188BFF34F8FBFF36F8FE1
:103C5000FEE73846BDE8F0818000002010B5040082
:103C600006D000F07FF8E46900F09CF8204610BD13
:103C7000502080F31188BFF34F8FBFF36F8FFEE7A3
:103C800010B5031F4FF080741C601B1F21F0010151
:103C90001960191F044B0B6014390A60091F6FF07B
:103CA000020244380A6010BDC93A0008D0E9013266
:103CB00001699A60D0E901235A604A68824201D1C1
:103CC00082684A60002202610868401E0860086835
:103CD00070470000034B036003F15C000860802024
:103CE0001060704728970020044B036003F15C00CC
:103CF00008604FF4807010607047000084990020C5
:103D000000F108014FF0FF32C0E90112C16001610A
:103D100000210160704700210161704730B50B68D8
:103D20005A1C02D000F1080202E0026904E02246B7
:103D3000546825689D42FAD953684B6099608A603F
:103D4000516008610168491C016030BD42684A60E9
:103D500093688B6093685960916008610168491CA1
:103D600001607047502080F31188BFF34F8FBFF37D
:103D70006F8F0A494868401C486001280CD10848E8
:103D8000006810F0FF0F07D0502080F31188BFF3B8
:103D90004F8FBFF36F8FFEE770470000A000002039
:103DA00004ED00E00849486828B1401E486001D190
:103DB00080F311887047502080F31188BFF34F8F34
:103DC000BFF36F8FFEE70000A000002070B5002851
:103DD0002AD0164DA0F1080460686969084207D12D
:103DE000502080F31188BFF34F8FBFF36F8FFEE732
:103DF00022683AB1502080F31188BFF34F8FBFF390
:103E00006F8FFEE78843606000F030F96068696892
:103E1000084468602046FFF7CFFC2869401C2861F1
:103E2000BDE8704000F092BD70BD00008000002031
:103E30004FF0E02000210161816105494FF47A7261
:103E40000968B1FBF2F1491E416107210161704728
:103E50002800002010B5FCF743FA114910280ED3B2
:103E600000F1E02090F8F0030A78904207D2502049
:103E700080F31188BFF34F8FBFF36F8FFEE70948C0
:103E80000068896800F4E060884207D9502080F318
:103E90001188BFF34F8FBFF36F8FFEE710BD000097
:103EA000A00000200CED00E010B5084B002200BF80
:103EB00053F832401CB1521C082AF9D310BD43F804
:103EC000321003EBC201486010BD00000C910020CD
:103ED00070B515460E460446FFF744FF94F94410AA
:103EE0000020491C01D184F8440094F94510491C74
:103EF00001D184F84500FFF755FFA06B28B92A4689
:103F0000314604F1240000F051F82046BDE870402D
:103F1000FFF700BE10B5020014D00F48006B38B197
:103F2000502080F31188BFF34F8FBFF36F8FFEE7F0
:103F300000F09CF800211046FFF730FA00F006FD73
:103F4000002807D105494FF080500860BFF34F8F1C
:103F5000BFF36F8F10BD00002C00002004ED00E0C7
:103F600002490A6A0260C968416070472C0000205B
:103F700001490120C86170472C00002010B50C4693
:103F800050B1094909681831FFF7C8FE2046BDE85D
:103F900010400121FFF702BA502080F31188BFF3CF
:103FA0004F8FBFF36F8FFEE72C00002070B51446D3
:103FB0000D4668B10A4909681831FFF7C7FE0CB110
:103FC0004FF0FF3521462846BDE87040FFF7E6B9BF
:103FD000502080F31188BFF34F8FBFF36F8FFEE740
:103FE0002C00002030B587B00024039405AA04A952
:103FF00003A80494FFF76EFEDDE903010094CDE908
:104000000110002315A11748059A00F084FB164DF6
:104010000028E8621FD000F02DFD012809D0401CC7
:1040200019D1502080F31188BFF34F8FBFF36F8FEA
:10403000FEE7502080F31188BFF34F8FBFF36F8FDF
:104040004FF0FF30A86201206861EC6007B0BDE866
:10405000304000F045B807B030BD000049444C4541
:1040600000000000353600082C0000200248016BDB
:10407000491C0163704700002C000020164810B551
:10408000016B11B10121C16110BD0021C161016944
:10409000124A01E0B9B1491E01EB810352F8233005
:1040A000002BF7D001EB810302EB830202F108043D
:1040B00053685B685360A34201D15B685360DA6860
:1040C0000260016110BD502080F31188BFF34F8F53
:1040D000BFF36F8FFEE700002C0000204C91002002
:1040E0001CB537480168374A914207D1502080F308
:1040F0001188BFF34F8FBFF36F8FFEE70068314920
:10410000491E884207D1502080F31188BFF34F8F9A
:10411000BFF36F8FFEE72C4908780190FF200870ED
:1041200008788DF800009DF800009DF8002000F050
:10413000F000904207D0502080F31188BFF34F8FDA
:10414000BFF36F8FFEE79DF80000204C00F0500099
:1041500020700720A06005E09DF8002052008DF837
:104160000020401E9DF800201206F5D4A060032810
:1041700007D0502080F31188BFF34F8FBFF36F8FAC
:10418000FEE74FF44070A060019808700C482030A2
:10419000016841F470010160016841F07041016003
:1041A000FFF746FE00206060FCF762F808480168EF
:1041B00041F040410160FCF747F800201CBD0000C1
:1041C00000ED00E071C20F4100E400E0A00000201B
:1041D00034EF00E010B5502080F31188BFF34F8F0B
:1041E000BFF36F8F00F0D6FA18B104494FF080503A
:1041F0000860002080F3118810BD000004ED00E08D
:1042000038B5049D18B153B1CAB181B120E0502036
:1042100080F31188BFF34F8FBFF36F8FFEE75020FD
:1042200080F31188BFF34F8FBFF36F8FFEE75020ED
:1042300080F31188BFF34F8FBFF36F8FFEE739B163
:10424000502080F31188BFF34F8FBFF36F8FFEE7CD
:1042500050241C46012384F846302B460094FFF777
:1042600019FA204638BD000070B50D46040025D06F
:10427000FFF778FDD4E90F20216802FB0011A1604F
:104280000021A163216861600A46D4E90F01401E44
:1042900000FB0121E16021464FF0FF3001F8440F9F
:1042A000487004F110008DB1FFF72AFD04F12400DD
:1042B000FFF726FDFFF776FD012070BD502080F34B
:1042C0001188BFF34F8FBFF36F8FFEE7216900297D
:1042D000F0D000F003FB0028ECD004494FF08050F0
:1042E0000860BFF34F8FBFF36F8FE3E704ED00E08B
:1042F0002DE9FF4782B01D468A464FF000080400B2
:1043000003D0BAF1000F08D011E0502080F31188DB
:10431000BFF34F8FBFF36F8FFEE7206C38B1502093
:1043200080F31188BFF34F8FBFF36F8FFEE7022D2D
:104330000AD1E06B012807D0502080F31188BFF329
:104340004F8FBFF36F8FFEE700F010FA3F4F4FF033
:1043500000094FF0805648B9049838B1502080F3D6
:104360001188BFF34F8FBFF36F8FFEE7FFF7FAFCA3
:10437000A06BE16B884207D3022D05D00498D0B121
:10438000B8F1000F1AD01EE02A4651462046FFF72A
:10439000DAF8616A19B104F1240000F09FFA20B143
:1043A0003E60BFF34F8FBFF36F8FFFF7FBFC012021
:1043B00006B0BDE8F087FFF7F5FC22E06846FFF79E
:1043C000CFFD4FF00108FFF7EDFCFFF74FFEFFF7C1
:1043D000C9FC94F94400401C01D184F8449094F93C
:1043E0004500401C01D184F84590FFF7DBFC04A98F
:1043F000684600F029F930B12046FFF78BFB00F04A
:10440000A5FA0020D4E7FFF7ADFCA06BE16B884272
:1044100013D1FFF7C7FC04F110000499FFF7AEFDBC
:104420002046FFF777FB00F091FA00289ED13E600E
:10443000BFF34F8FBFF36F8F98E7FFF7B3FC2046B2
:10444000FFF768FB00F082FA90E7000004ED00E05F
:104450002DE9F0471F4690468946040003D0B9F184
:10446000000F08D011E0502080F31188BFF34F8F68
:10447000BFF36F8FFEE7206C38B1502080F31188B6
:10448000BFF34F8FBFF36F8FFEE7022F0AD1E06BB0
:10449000012807D0502080F31188BFF34F8FBFF35E
:1044A0006F8FFEE7FFF7D6FC5020EFF3118680F305
:1044B0001188BFF34F8FBFF36F8FA06BE16B884202
:1044C00006D3022F04D0002086F31188BDE8F087C0
:1044D00094F94550A06B3A4649462046FFF733F819
:1044E000681C04D06D1C84F845500120ECE7606A1C
:1044F0000028FAD004F1240000F0F0F90028F4D0EC
:10450000B8F1000FF1D00121C8F80010EDE700006C
:104510002DE9F747002683B08A46040003D0BAF19C
:10452000000F08D011E0502080F31188BFF34F8FA7
:10453000BFF36F8FFEE7206C38B1502080F31188F5
:10454000BFF34F8FBFF36F8FFEE700F00FF9DFF877
:10455000F4804FF000094FF0805748B9059838B102
:10456000502080F31188BFF34F8FBFF36F8FFEE7AA
:10457000FFF7F8FBA56BC5B151462046FEF7D0FF0B
:104580006D1EA563206950B104F1100000F0A6F97A
:1045900028B1C8F80070BFF34F8FBFF36F8FFFF7DC
:1045A00001FC012006B0BDE8F087059808B11EB1F6
:1045B00006E0FFF7F7FB27E06846FFF7D1FC01268E
:1045C000FFF7F0FBFFF752FDFFF7CCFB94F9440037
:1045D000401C01D184F8449094F94500401C01D15D
:1045E00084F84590FFF7DEFB05A9684600F02CF83B
:1045F000002820460AD0FFF78DFA00F0A7F92046E0
:10460000FFF71CF90028B3D00020CBE7FFF716F91D
:1046100090B104F124000599FFF7B0FC2046FFF7A4
:1046200079FA00F093F90028A2D1C8F80070BFF31E
:104630004F8FBFF36F8F9BE72046FFF76BFA00F0B9
:1046400085F995E704ED00E02DE9F0410C46050001
:1046500011D0C4B1FFF786FB174BDA686E6820688B
:10466000911B471C17D02F681B6A9F4219D0964296
:1046700017D8012410E0502080F31188BFF34F8F2A
:10468000BFF36F8FFEE7502080F31188BFF34F8F89
:10469000BFF36F8FFEE70024FFF784FB2046BDE8E1
:1046A000F081884205D9401A20602846FFF758FC5F
:1046B000F1E700202060DCE72C0000202DE9FF5FFF
:1046C0008346DDE90E87994616468A469000FFF735
:1046D00057FA05001CD05C20FFF752FA040014D0F2
:1046E0000020256384F85900CDE90240CDE9008718
:1046F0004B46324651465846FEF7DEFF2046FEF74F
:104700007BFE012004B0BDE8F09F2846FFF75EFB6A
:104710004FF0FF30F6E7F0B585B0DDE90B640A9D98
:10472000A6B1DCB15C2700972663022684F85960A5
:10473000002604AFCDE90246CDE90057FEF7BCFFE5
:104740002046FEF759FE049805B0F0BD502080F3D6
:104750001188BFF34F8FBFF36F8FFEE7502080F3B8
:104760001188BFF34F8FBFF36F8FFEE70548416994
:1047700019B1006B18B1002070470120704702206A
:10478000704700002C0000200148C06870470000FE
:104790002C0000202DE9F0412E4C0027206B28B181
:1047A000A069401CA0613846BDE8F081E668761C2F
:1047B000E66013D1606B006838B1502080F3118837
:1047C000BFF34F8FBFF36F8FFEE7606BA16B616329
:1047D000A063206A401C2062FFF71CF9A06ADFF882
:1047E0007880864209D3606B0068A0B1606BC068B6
:1047F000C5686868864211D2A0622068C06A00EB72
:10480000800158F82100012800D90127E06900281B
:10481000C9D00127C7E74FF0FF30EDE7281DFFF7AC
:1048200045FAA86A18B105F11800FFF73FFAE86ADF
:104830002169884200D9206100EB800108EB8100EA
:10484000291DFFF783FAE86A2168C96A8842CAD33A
:104850000127C8E72C0000204C91002070B504000F
:104860004FF0000133D01B4D2868844207D0502000
:1048700080F31188BFF34F8FBFF36F8FFEE7206D7A
:1048800038B1401E2065E36CE26A9A421FD040B105
:104890001DE0502080F31188BFF34F8FBFF36F8F5F
:1048A000FEE7201DFFF702FAE06CE062C0F138007D
:1048B000A061E06A2969884200D92861064900EBB5
:1048C000800001EB8000211DFFF740FA012108461E
:1048D00070BD00002C0000204C91002070B5C06815
:1048E000C46854B104F118000646FFF7DFF9144D0F
:1048F000286B50B13146134815E0502080F31188E1
:10490000BFF34F8FBFF36F8FFEE7201DFFF7CEF988
:10491000E06A2969884200D928610B4900EB8000D0
:1049200001EB8000211DFFF711FAE06A2968C96ACE
:10493000884202D90120E86170BD002070BD0000EE
:104940002C000020D49500204C9100202DE9F04748
:104950002C4D00242746286B38B1FFF703FA286B4B
:10496000401E2863286B40B146E0502080F3118838
:10497000BFF34F8FBFF36F8FFEE7A968224E012070
:10498000D1B3A6F5916980463068E0B1F068C4689B
:1049900004F11800FFF78AF9201DFFF787F9E06A94
:1049A0002969884200D9286100EB800109EB810068
:1049B000211DFFF7CBF9E06A2968C96A8842E3D371
:1049C000C5F81C80E0E70CB1FFF724F8AC694CB1E6
:1049D0004FEA0806FFF7DEFE00B1EE61641EF9D172
:1049E0000020A861E86938B1084901273807086044
:1049F000BFF34F8FBFF36F8FFFF7D4F93846BDE891
:104A0000F08700002C000020D495002004ED00E089
:104A10002DE9FC4781461E46174688462C200A9DF4
:104A2000FFF7AEF804000AD0002084F82800CDE992
:104A3000005433463A4641464846FEF795FE204626
:104A4000BDE8FC877CB52C26DDE90654009644B110
:104A5000022684F82860CDE90054FEF785FE204642
:104A60007CBD502080F31188BFF34F8FBFF36F8F51
:104A7000FEE7000010B586B0FEF726FD114C206859
:104A8000B8B100200390049005AA04A903A8FFF779
:104A90002BF9DDE9032102208DE8070000230AA19C
:104AA0000B48059AFFF737FE606010B106B0012091
:104AB00010BD502080F31188BFF34F8FBFF36F8F6D
:104AC000FEE7000068000020546D722053766300FA
:104AD000F13A00082DE9FF411E46134602000A9DE7
:104AE0004FF0000016D0144C2768002F0FD0CDE9EE
:104AF00000130292062917DAFFF738FE02284FF05A
:104B000000030FD0002269462068FFF7F1FB04B0D4
:104B1000BDE8F081502080F31188BFF34F8FBFF3C1
:104B20006F8FFEE72A46EEE7002332466946384695
:104B3000FFF78EFCEBE70000680000204FF04070AC
:104B4000E1EE100A70470000D46200080000000087
:104B5000902F00205C000000B0000020E02E00003C
:104B6000180000000000000000000000B062000813
:104B700000000000CC5E00205C000000EC2F002054
:104B8000E02E00000800000000000000000000000F
:104B9000C862000800000000088E00205C000000D1
:104BA000285F0020E02E0000080000000000000048
:104BB00000000000A462000800000000648E0020D5
:104BC0002C000000BC62000800000000908E002055
:104BD0002C00000000061016000610160000000051
:104BE000000000000102030406070809000000009D
:104BF00001020304000000000000000000000000AB
:104C000000000404040404040004000000140A0A60
:104C10000000000000000000000014143F140A3FD0
:104C20000A0A000000041E1505060C14150F0400E6
:104C3000000012150D0A142C2A1200000000040AAC
:104C40000A1E1515093600000002020100000000CE
:104C500000000000002010080808080808102000C4
:104C60000002040808080808080402000000000404
:104C7000150E0E150400000000000404041F0404B7
:104C8000040000000000000000000000000202011B
:104C900000000000001F00000000000000000000F5
:104CA00000000000000200000010080808040402D0
:104CB0000202010000000E1111111111110E00006D
:104CC0000000040604040404040E000000000E1199
:104CD00011080402011F000000000E11100C10103A
:104CE000110E00000000080C0A0A091E0818000036
:104CF00000001F01010F1010110E000000000E092E
:104D0000010F1111110E000000001F090804040416
:104D10000404000000000E11110E1111110E00000C
:104D200000000E1111111E10120E000000000000F4
:104D30000400000000040000000000000004000067
:104D400000040400002010080402040810200000E1
:104D5000000000001F00001F000000000002040807
:104D6000102010080402000000000E1111080404B5
:104D70000004000000000E111915151D011E000091
:104D8000000004040C0A0A1E1233000000000F1277
:104D9000120E1212120F000000001E11010101017B
:104DA000110E000000000F1212121212120F00005A
:104DB00000001F120A0E0A02121F000000001F123C
:104DC0000A0E0A020207000000001C12010139113C
:104DD000120C000000003312121E121212330000D7
:104DE00000001F0404040404041F000000003E0827
:104DF0000808080808090700000037120A060A0A0E
:104E0000123700000000070202020202223F0000E7
:104E100000001B1B1B1B15151515000000003B1285
:104E200016161A1A1217000000000E111111111196
:104E3000110E000000000F12120E02020207000005
:104E400000000E1111111117190E180000000F1299
:104E5000120E0A121237000000001E11010608107F
:104E6000110F000000001F1504040404040E0000CC
:104E70000000331212121212120C00000000331242
:104E8000120A0A0C0404000000001515150E0A0A87
:104E90000A0A000000001B0A0A04040A0A1B000098
:104EA00000001B0A0A040404040E000000001F098D
:104EB00008040402121F0000001C0404040404047B
:104EC00004041C0000020202040408080810000088
:104ED000000E08080808080808080E0000040A0068
:104EE00000000000000000000000000000000000C2
:104EF0000000003F0004000000000000000000006F
:104F000000000000000C121C123C00000000030214
:104F1000020E1212120E000000000000001C12020D
:104F2000021C000000001810101C1212123C00009D
:104F300000000000000C121E021C000000003804DB
:104F4000041E0404041E000000000000003C120CBB
:104F5000021E221C00000302020E12121237000071
:104F60000000040000060404040E00000000080015
:104F7000000C08080808080700000302023A0A0E9D
:104F8000123700000000070404040404041F00009A
:104F900000000000000F15151515000000000000AE
:104FA000000F12121237000000000000000C121255
:104FB000120C000000000000000F1212120E020777
:104FC00000000000001C1212121C1038000000002B
:104FD000001B06020207000000000000001E020C79
:104FE000101E000000000004040E04040418000059
:104FF00000000000001B1212123C00000000000024
:105000000037120A0C040000000000000015150E05
:105010000A0A000000000000001B0A040A1B00002E
:10502000000000000037120A0C0404030000000016
:10503000001E0804041E00000018080808040808E0
:1050400008081800080808080808080808080808D8
:1050500000060404040804040404060002251800E1
:105060000000000000000000000000000000000040
:105070000000000000000000000000080808080808
:10508000080800001818000000486C2412000000F6
:1050900000000000000000000000002424247F1213
:1050A00012127F12121200000000081C2A2A0A0C99
:1050B0001828282A2A1C0808000000222515151582
:1050C0002A585454542200000000000C1212120AF4
:1050D00076252911916E00000006060403000000E9
:1050E0000000000000000000004020101008080828
:1050F00008080810102040000002040808101010D2
:1051000010101008080402000000000008086B1CC2
:105110001C6B0808000000000000000008080808D8
:105120007F080808080000000000000000000000E0
:10513000000000000606040300000000000000005C
:10514000FE00000000000000000000000000000061
:1051500000000000060600000000804040202010F3
:105160001008080404020200000000182442424211
:105170004242424224180000000000080E080808BD
:1051800008080808083E00000000003C4242422097
:1051900020100804427E00000000003C424220181B
:1051A00020404042221C000000000020302824241F
:1051B00022227E20207800000000007E0202021AD7
:1051C00026404042221C0000000000382402021A3F
:1051D00026424242241800000000007E22221010C5
:1051E00008080808080800000000003C4242422469
:1051F00018244242423C000000000018244242426F
:1052000064584040241C00000000000000001818F2
:105210000000000018180000000000000000000856
:1052200000000000000808040000004020100804EE
:1052300002040810204000000000000000007F0071
:1052400000007F00000000000000000204081020A1
:1052500040201008040200000000003C424246408A
:1052600020101000181800000000001C225A55558C
:1052700055552D42221C0000000000080818141487
:10528000243C224242E700000000001F2222221E8E
:1052900022424242221F00000000007C42420101E3
:1052A00001010142221C00000000001F2242424274
:1052B00042424242221F00000000003F4212121EE2
:1052C00012120242423F00000000003F4212121E32
:1052D00012120202020700000000003C222201011B
:1052E00001712122221C0000000000E742424242DC
:1052F0007E42424242E700000000003E08080808E3
:1053000008080808083E00000000007C101010107B
:10531000101010101010110F0000007722120A0E4A
:105320000A12122222770000000000070202020285
:1053300002020202427F0000000000773636363655
:105340002A2A2A2A2A6B0000000000E346464A4A1D
:1053500052525262624700000000001C224141414B
:1053600041414141221C00000000003F42424242B4
:105370003E020202020700000000001C22414141DF
:1053800041414D53321C60000000003F4242423E0A
:105390001212222242C700000000007C4242020496
:1053A00018204042423E00000000007F49080808E3
:1053B00008080808081C0000000000E742424242BA
:1053C00042424242423C0000000000E742422224A6
:1053D00024141418080800000000006B49494949CA
:1053E0005555362222220000000000E742242418EE
:1053F0001818242442E70000000000772222141429
:1054000008080808081C00000000007E2120101079
:1054100008040442423F0000007808080808080811
:1054200008080808080878000000020204040808B8
:105430000810102020204040001E101010101010E6
:105440001010101010101E00003844000000000062
:10545000000000000000000000000000000000004C
:1054600000000000000000FF00060800000000002F
:105470000000000000000000000000000000003CF0
:105480004278444242FC0000000000030202021A7B
:1054900026424242261A00000000000000000038A8
:1054A000440202024438000000000060404040789E
:1054B0004442424264D80000000000000000003C6A
:1054C000427E0202423C0000000000F08808087E94
:1054D00008080808083E0000000000000000007CEA
:1054E00022221C023C42423C000000030202023A1B
:1054F0004642424242E700000000000C0C00000E51
:1055000008080808083E000000000030300000389D
:10551000202020202020221E000000030202027210
:10552000120A1612227700000000000E0808080870
:1055300008080808083E0000000000000000007F86
:105540009292929292B70000000000000000003B8F
:105550004642424242E70000000000000000003CDA
:1055600042424242423C0000000000000000001B9A
:1055700026424242221E020700000000000000787E
:1055800044424242447840E00000000000000077BE
:105590004C040404041F0000000000000000007C14
:1055A00042023C40423E0000000000000008083E6D
:1055B0000808080808300000000000000000006330
:1055C0004242424262DC000000000000000000E7AE
:1055D000422424140808000000000000000000EB32
:1055E00049495555222200000000000000000076C5
:1055F00024181818246E000000000000000000E7C6
:105600004224241418080807000000000000007E4F
:1056100022100808447E000000C020202020201016
:10562000202020202020C00010101010101010107A
:1056300010101010101010100006080808080810AC
:1056400008080808080806000C32C2000000000024
:105650000000000000000000C9EE000027FC140458
:1056600014A4811042084040104017FC2040E0E0A4
:10567000215022482C4620400040DBDA110411243E
:10568000112411241124FD24112411241124112486
:1056900011241D24E124422402040404CAD002007F
:1056A000010000007FFC0100010001003FF821081B
:1056B0002108210821082128211001000100C8AB80
:1056C00000000000018002400430180860061FF945
:1056D0000100010001003FF80100010001007FFE10
:1056E000B6AF0000000000203E20007C0022002217
:1056F0007F221022102212221222224223423D82B5
:10570000009CB5E70000010001001FF0610C41049E
:1057100041047FFC4104410441047FFC010001027B
:10572000010201FCD7D3000000003FF80010006028
:105730000080010000807FFE00400040002000202B
:10574000002018400780BCBC10201020102013FE41
:10575000FC201020102015FC18843088D0481050F0
:105760001020105051882606CAF5010001200110B2
:1057700001107FFC0380054005400920111021081D
:1057800041048102010001000100D3D002000200A7
:10579000FFFE040004000FF0081018102FF048104E
:1057A00088100FF00810081008500820CFDE000005
:1057B0007BF84A08520853F8620852084BF84A44EA
:1057C0004A486A3052204210428843064200B9AB30
:1057D0000080048004800840084010202010420807
:1057E000820604000440082010203FF01010000042
:1057F000CBBE00003FF8000800087FE80008000862
:105800001F8810881088108810881F88108800282A
:105810000010BBB600800080FC8004FC0504490831
:105820002A401440104028A024A0451081100208EE
:1058300004040802D3AD00002080133C122402248B
:105840000224F2241224122412B41328122010204D
:10585000282047FE0000C4FA0900090011FC3204A8
:1058600054489950114812441444114010800200C9
:105870005104511290120FF0B4BF0000002010200C
:1058800013FE202026244A247A241224222423FCD6
:105890007C20002204227822003CC9AB00000000DA
:1058A00004000FF0102020207FFC2084208420841E
:1058B00020843FF82000200220021FFECCEE0000D2
:1058C0000000204023FE204079FC220423FC220417
:1058D00023FC220423FC3A0465FA01980204B3E491
:1058E0000000010001007FFE0220041004080804EB
:1058F0003FFC044204400440044208421042607EDF
:10590000BED800000000207E3E804880488048FECF
:1059100048827F8208820C8214FA128422802180BD
:1059200040FED0CE000000007F842208223022C03A
:10593000220222047FC8223022C22202220422082C
:1059400022304040BBAD000000007FFE00000FF0A1
:1059500011101110111051125FF251125112511207
:105960004FF240027FFCD4B2000000007FFE47E20D
:105970004812481247E24FF250125012511251127F
:1059800042924472580A3FFCCDBC000000003FFE2A
:10599000440247F24C225362408243625E1A4182C3
:1059A0004062430240C240223FFCC6AC00000040BF
:1059B0002040204020403FFE2000200020003FE00B
:1059C000201020102010201040104010CFD40000D4
:1059D00000003FFC200420043FFC200420041FF8AA
:1059E00024441448144814480C5004407FFECABE96
:1059F000000000003FFC0000000000007FFE00806F
:105A000008900888108810842084208240820780B3
:105A1000B2CB0000002008207FFE002000783F88E5
:105A20001108089009207FFE018003400D30310CE1
:105A30004002B5A500000010081004203FF8210422
:105A400021043FFC210421043FF801007FFE0100F6
:105A500001000100D6D000000100010001003FFC60
:105A60002104210421042104210421043FFC01001C
:105A7000010001000100D3A20000000008207FFE09
:105A80000820092001003FF82108210821081FF4FF
:105A9000014002200C10700ECEC400000100010075
:105AA00000803F7C081008100410042002200240EF
:105AB0000180018002601C18E006D7DB00000000B6
:105AC000102011FE2202220249FC5800300013FE71
:105AD0002528792401240D24722202A2BACF0000C5
