:020000040800F2
:10000000F09901204D030008772800085D210008C1
:10001000752800087D090008112F00080000000065
:100020000000000000000000000000008D02000839
:100030004D0A000800000000E9020008112B00082A
:1000400067030008670300086703000867030008E8
:1000500067030008670300086703000867030008D8
:1000600067030008670300086703000867030008C8
:1000700067030008670300086703000867030008B8
:1000800067030008670300086703000867030008A8
:100090006703000867030008670300086703000898
:1000A0006703000867030008670300086703000888
:1000B0006703000867030008670300086703000878
:1000C0006703000867030008670300087928000831
:1000D000670300086703000867030008F92E00089B
:1000E0006703000867030008670300086703000848
:1000F00067030008D12B00086703000867030008A6
:100100006703000867030008670300086703000827
:100110006703000867030008670300086703000817
:1001200067030008850900086703000891090008B3
:1001300067030008670300086703000867030008F7
:1001400067030008670300086703000867030008E7
:10015000670300089D09000867030008052F0008D1
:1001600067030008670300086703000867030008C7
:100170006703000867030008670300080000000029
:10018000670300086703000800F002F800F06EF84B
:100190000AA090E8000C82448344AAF10107DA45E2
:1001A00001D100F063F8AFF2090EBAE80F0013F0C6
:1001B000010F18BFFB1A43F00103184798C502004E
:1001C000D8C502000A444FF0000C10F8013B13F0B0
:1001D000070408BF10F8014B1D1108BF10F8015BA0
:1001E000641E05D010F8016B641E01F8016BF9D193
:1001F00013F0080F1EBF10F8014BAD1C0C1B09D1EA
:100200006D1E58BF01F801CBFAD505E014F8016B5B
:1002100001F8016B6D1EF9D59142D6D370470000ED
:10022000103A24BF78C878C1FAD8520724BF30C822
:1002300030C144BF04680C607047000000230024F4
:1002400000250026103A28BF78C1FBD8520728BFE6
:1002500030C148BF0B6070471FB527F03EFC9DE8DA
:10026000030000F08BFA1FBD10B510BD00F004FBB9
:100270001146FFF7F1FF1EF009FD00F022FB03B469
:10028000FFF7F2FF03BC00F053FB00002C4B196892
:100290000868B0E8F04F80F30988BFF36F8F4FF024
:1002A000000080F3118870470000000008480068D3
:1002B000006880F308884FF0000080F3148862B66D
:1002C00061B6BFF34F8FBFF36F8F00DF00BF00BF7A
:1002D00008ED00E0DFF80C00016841F470010160F6
:1002E000704700BF88ED00E0EFF30980BFF36F8F28
:1002F000134B1A681EF0100F08BF20ED108A20E97A
:10030000F04F106009B44FF0500080F31188BFF334
:100310004F8FBFF36F8F26F075FD4FF0000080F315
:10032000118809BC19680868B0E8F04F1EF0100F7A
:1003300008BFB0EC108A80F30988BFF36F8F704755
:1003400018000020EFF3058070470000094880473F
:1003500009480047FEE7FEE7FEE7FEE7FEE7FEE7A7
:10036000FEE7FEE7FEE7FEE704480549054A064BBF
:1003700070470000C12B000889010008F0D7012058
:10038000F0990120F0D90120F095012070B50646C2
:1003900000F0D8F9056806F10B0020F00704B4421C
:1003A0009CBF002070BD2B466A68BAB11068A0429D
:1003B00010D304F1080188423CBF5068586007D34D
:1003C0005168101941601168091B01605860146080
:1003D000101D70BD13465268002AE7D121462846F9
:1003E00000F0B8F90028DED170BD70B50446051FD5
:1003F00000F0A8F90068002C14BF446870BD002C00
:1004000018BFAC423CBF20466468F8D301680A18A4
:10041000AA4218BF456003D12A680546114401600D
:1004200028684119A1421CBF6C6070BD6168696099
:1004300021680844286070BD53EA020C00F069800E
:100440002DE9F04B4FF00006002B1FBFB3FA83F5E8
:1004500003FA05F424FA05F65E4012BF1643B2FA19
:1004600082F502FA05F4C5F120051EBF22FA05FC4B
:1004700044EA0C04203556EA044C4FEA144418BFF1
:10048000641C4FF000084FF00009904271EB030C20
:1004900039D3002919BFB1FA81F701FA07F6B0FA8A
:1004A00080F700FA07F6C7F120071EBF20FA07FC05
:1004B00046EA0C062037B6FBF4FCA7EB0507103F15
:1004C00007F01F0BCBF120060CFA0BFB2CFA06F6FB
:1004D00044BFB3460026202FA4BF5E464FF0000B5A
:1004E0005BEA060C08BF4FF0010B19EB0B09ABFBE5
:1004F000027C48EB0608C01B06FB02CC0BFB03CCBE
:1005000071EB0C01C1E70B46024641464846BDE887
:10051000F08B13B54FF000004FF00001AFF30080F7
:10052000BDE81C40704710B54C1084EA530404D554
:100530004042C1F1000138BF491E1B4204D552425E
:10054000C3F1000338BF5B1EFFF776FF14F0804F46
:1005500004D04042C1F1000138BF491E14F0004FE1
:1005600004D05242C3F1000338BF5B1E10BD032A02
:1005700040F2308010F0030C00F0158011F8013BC0
:10058000BCF1020F624498BF11F801CB00F8013BA7
:1005900038BF11F8013BA2F1040298BF00F801CB6B
:1005A00038BF00F8013B11F0030300F02580083A42
:1005B000C0F0088051F8043B083A51F804CBA0E899
:1005C0000810F5E7121D5CBF51F8043B40F8043BEE
:1005D000AFF30080D20724BF11F8013B11F801CB23
:1005E00048BF11F8012B24BF00F8013B00F801CBF4
:1005F00048BF00F8012B704710B5203AC0F00B80BF
:10060000B1E81850203AA0E81850B1E81850A0E816
:100610001850BFF4F5AF5FEA027C24BFB1E8185070
:10062000A0E8185044BF18C918C0BDE810405FEAE0
:10063000827C24BF51F8043B40F8043B08BF70475C
:10064000D20728BF31F8023B48BF11F8012B28BF61
:1006500020F8023B48BF00F8012B704702F0FF036F
:1006600043EA032242EA024200F0C0B84FF000021F
:1006700000B5134694469646203922BFA0E80C5098
:10068000A0E80C50B1F12001BFF4F7AF090728BF73
:10069000A0E80C5048BF0CC05DF804EB890028BFEF
:1006A00040F8042B08BF704748BF20F8022B11F018
:1006B000804F18BF00F8012B704700004FF0013C3D
:1006C00050F8042B51F8043B9A4221D1A2EB0C03C1
:1006D000934313EACC1317D150F8042B51F8043B81
:1006E0009A4215D1A2EB0C03934313EACC130BD11E
:1006F00050F8042B51F8043B9A4209D1A2EB0C03A9
:10070000934313EACC13DBD04FF00000704700BFD7
:10071000D01A01BAB1FA81F101F0180122FA01F000
:10072000CB40C1F12001DBB2C0B2C01A2CFA01F3F8
:10073000D11A914311EAC311E6D17047704770474F
:10074000704700000048704794D7012070477047F9
:100750007047704738B504460A4600206946AFF333
:100760000080002808BF38BD02460099204600F0EE
:1007700061F8012038BD012000F076B8F8B5AFF37C
:100780000080054600200C46102000BF0646A81930
:10079000A0420DD9324669460020AFF30080070021
:1007A00008BF00F061F80098A04218BF0546C419C0
:1007B000FFF7C8FF05600746F01D20F00700461947
:1007C000284600F00AF8B44208BFF8BDA21B314623
:1007D0003868BDE8F84000F02DB800210160C0E99C
:1007E00001107047102070474FF000020429C0F03C
:1007F000128010F0030C3FF43BAFCCF1040CBCF1C1
:10080000020F18BF00F8012BA8BF20F8022BA1EBA4
:100810000C01FFF72DBF5FEAC17C24BF00F8012B5C
:1008200000F8012B48BF00F8012B704700487047C3
:100830008CD70120034640688C46002818BF8842A8
:100840003CBF03464068F8D318681844884207D074
:100850000CF1030020F00700001D411A521A014656
:10086000081D0A60FFF7C1BD10B500F039F8BDE8FA
:10087000104000F02FB870477546FFF7D7FFAE461F
:1008800005006946534620F00700854618B020B59C
:10089000FFF76AFDBDE820404FF000064FF000076B
:1008A0004FF000084FF0000B21F00701AC46ACE818
:1008B000C009ACE8C009ACE8C009ACE8C0098D4685
:1008C000704710B50446AFF300802046BDE81040E5
:1008D000FFF7D5BC002801D000F02AB8704700000F
:1008E00010B5012805D0002103A000F027F8012051
:1008F00010BD09A1F8E7000053494752544D454D3A
:100900003A204F7574206F662068656170206D65B0
:100910006D6F7279000000003A2048656170206DAB
:10092000656D6F727920636F7272757074656400A3
:1009300001491820ABBEFEE72600020070B505464F
:100940000C460A2000E06D1C00F011F835B1287843
:100950000028F8D102E0641C00F009F814B12078F6
:100960000028F8D1BDE870400A20AFF3008008B538
:1009700069468DF800000320ABBE08BDFEE7704756
:1009800070470000014800F0E5B8000020C30120D6
:10099000014800F0DFB80000D0C10120014800F09C
:1009A000D9B80000C0C2012001681823CAB2103AA9
:1009B000B2FBF3F2054B6FF30901032A9B5CC3659D
:1009C00000D9091D8165084670470000707B020848
:1009D00010B5014600208B698A6A4FF0C07453B18C
:1009E000B3F5005F15D072B1012A0CD0022A0AD0EB
:1009F000032A09D104E01AB1012A06D0022A03D140
:100A0000C96AC90100D5012010BDC96AA142FAD046
:100A100010BD002AF7D0012AF2D0022AF3D0032A0F
:100A2000F3D010BD30B50468256825F48025256015
:100A3000046863608368402B036803D09960006892
:100A4000C26030BD9A600068C16030BD704772B648
:100A5000FEE710B5040002D0607910B106E0012075
:100A600010BD00202071204600F004F801206071C4
:100A7000002010BD08B500680649884208D1064824
:100A8000016841F480510160006800F480500090DA
:100A900008BD000000300240303802402DE9F0412E
:100AA0000446876D00F0D8FA064694F83500002514
:100AB000022806D08020606584F834500120BDE80B
:100AC000F0812068016821F0160101602068416909
:100AD00021F080014161206C08B9A06C20B1206830
:100AE000016821F0080101602068016821F001011E
:100AF00001600CE000F0B0FA801B052807D9202027
:100B00006065032084F8350084F83450D7E7206806
:100B10000068C007EED194F85C103F208840B860B0
:100B2000012084F8350084F834500020C7E790F89D
:100B30003510022903D0802141650120704705212D
:100B400080F835100068016821F001010160002083
:100B5000704700002DE9F84304464FF00009CDF836
:100B6000009063484FF41651A56D0068B0FBF1F793
:100B70002E6894F85C10082000FA01F131420FD081
:100B800021680A6852070BD50A6822F004020A603D
:100B900094F85C108840A860606D40F001006065CA
:100BA00094F85C104FF0010808FA01F0304208D0C8
:100BB00021684969090604D5A860606D40F002000B
:100BC000606594F85C1004208840304208D02168A9
:100BD0000968890704D5A860606D40F0040060656D
:100BE00094F85C1010208840304218D021680968C1
:100BF000090714D5A86020680168490304D5006876
:100C0000000308D5A16C07E00168C90503D4016899
:100C100021F008010160216C09B12046884794F851
:100C20005C1020208840304231D021680968C90614
:100C30002DD5A86094F8350005282068016806D0F5
:100C4000490347D5006800031DD4616C1CE021F006
:100C5000160101602068416921F080014161206C2A
:100C600008B9A06C20B12068016821F0080101607A
:100C700094F85C103F208840A86084F8358084F8A0
:100C80003490216D1FE0E16B09B120468847606D0B
:100C900000282BD0606DC00714D0052084F83500E3
:100CA0002068016821F0010101600098401C00905B
:100CB000B84203D820680068C007F6D184F83580B0
:100CC00084F83490E16C002910D001B02046BDE8D2
:100CD000F04308470168C905D5D4016821F0100127
:100CE000016084F8358084F83490CCE7BDE8F8835F
:100CF000140000202DE9F041044600F0ADF906464D
:100D00005CB1022084F83500002584F83450206856
:100D1000016821F0010101600DE00120BDE8F081D2
:100D200000F09AF9801B052805D920206065032072
:100D300084F83500F2E720680068C007F0D1226827
:100D4000116820480140D4E901031843D4E903366F
:100D50003343184363691843A3691843E36918438D
:100D6000236A18430843616A042903D1D4E90B13A9
:100D700019430843106020684069666A20F0070143
:100D800030460E43012704280CD1A06A0643E06ACE
:100D900040B12046FFF71CFE20B14020606584F87A
:100DA0003570BAE7206846612046FFF7FDFD94F8EC
:100DB0005C203F2191408160656584F8357000209A
:100DC000ACE700003F8010F02DE9F0410446866D4D
:100DD00090F83400002501280DD0012084F834005B
:100DE00094F835700020012F07D084F834000225D4
:100DF0002846BDE8F0810220FBE7022784F8357021
:100E000060652046FFF70EFE94F85C103F20884096
:100E1000B0602068016841F016010160206C20B1CB
:100E20002068016841F0080101602068016841F014
:100E300001010160DCE7000070B5044600F00CF928
:100E40000546601C02D004480078044400F004F910
:100E5000401BA042FAD370BD08C001202DE9F84F15
:100E6000DFF8BCA10022012503264FF00F090AF18B
:100E7000040BAAF1040E00BF0B6805FA02F423402C
:100E8000A34270D10F7907F00307012F01D0022F81
:100E900016D187684FEA420806FA08FC27EA0C07D1
:100EA000D1F80CC00CFA08FC4CEA070CC0F808C0DA
:100EB0004768A7430C79C4F3001494403C43446052
:100EC0000C79E443A4070AD0C4684FEA420C06FA3E
:100ED0000CF7BC438F6807FA0CF72743C7600C79FF
:100EE00004F00304022C12D1D40800EB840CDCF8CB
:100EF00020405707FF0E09FA07F824EA0804D1F842
:100F0000108008FA07F848EA0408CCF82080046842
:100F10004FEA420C06FA0CF7BC430F7907F00307BF
:100F200007FA0CF7274307604C6814F4403F70D071
:100F30003C4C276847F480472760246822F0030769
:100F400004F480440094384C07EB040CDCF80848A7
:100F500097074FEA177809FA08F7BC43334FB842AE
:100F600002D1002724E054E0314FB84201D10127DB
:100F70001EE0304FB84201D1022719E02E4FB8428F
:100F800001D1032714E02D4FB84201D104270FE00F
:100F90002B4FB84201D105270AE02A4FB84201D1B0
:100FA000062705E0284FB84201D1072700E00827AF
:100FB00007FA08F72743CCF80878DAF800405746D4
:100FC000D1F804C09C435FEACC2C00D51C433C60A4
:100FD000DBF800405F46D1F804C09C435FEA8C2CEC
:100FE00000D51C433C60DEF800407746D1F804C0D1
:100FF0009C435FEA8C3C00D51C433C60084F083F93
:101000003C68D1F804C09C435FEACC3C00D51C434B
:101010003C60521C102AFFF42FAFBDE8F88F00008F
:10102000083C0140443802400030014000000240CA
:101030000004024000080240000C02400010024080
:101040000014024000180240001C02400AB18161F5
:1010500070470904FBE70000014880687047000002
:1010600008C00120024881680278114481607047FD
:1010700008C001200B4810B5016841F400710160FF
:10108000016841F480610160016841F48071016090
:10109000032000F09FF80F2000F006F800F050F851
:1010A000002010BD003C024030B505461F4887B007
:1010B0000024016841F480710160006806A900F411
:1010C0008070009001A800F031F90498A8B100F0F8
:1010D0004DF940001649174AB0FBF1F11648491E78
:1010E000026040F2E732C0E90324C0E901148461E0
:1010F00000F007FD040003D015E000F037F9E9E740
:101100000D4800F02DFD04000DD12D2000F034F825
:10111000102D07D2002229462D2000F03BF8074869
:10112000056000E0012407B0204630BD4038024091
:1011300040420F000020004080C301200CC001206D
:101140000C4882B0016841F480410160006800F4FD
:10115000804000900748001F016841F08051016005
:101160000068002200F0805000900F21901E02B015
:1011700000F010B844380240002809DB00F01F02DC
:10118000012191404009800000F1E020C0F80011E9
:1011900070470000F0B40E4B1B680C46C3F30223EB
:1011A000C3F10705042D00D90425191D072901D213
:1011B000002300E0DB1E012606FA05F1491E21404E
:1011C00099409E40761E16403143F0BC01F0A1BE0E
:1011D0000CED00E0064900F0070208684FF6FF0337
:1011E000184040EA0220034A10430860704700009C
:1011F0000CED00E00000FA052DE9F0470E46050071
:1012000065D0DFF81481D8F80000F7B200F00700CD
:10121000B04207D288F80070D8F8000000F007004C
:10122000B04254D128683D4C810712D5400703D500
:10123000206840F4E05020602878000703D520683B
:1012400040F4604020602068A96820F0F000084366
:1012500020602878C0072DD03049686808390128F7
:1012600012D0022813D0032811D009688907002959
:101270002DDA216821F0030101432160FFF7ECFE24
:10128000814641F2883A0EE009688903EFE7096870
:101290008901ECE7FFF7E0FEA0EB0901514502D917
:1012A0000320BDE8F0872068696800F00C00B0EB0F
:1012B000810FEFD1D8F80010404601F00701B1428C
:1012C00007D90770006800F00700B04201D0012084
:1012D000E7E72878400705D52068E96820F4E05062
:1012E000084320602878000706D52068296920F483
:1012F000604040EAC100206000F058F82168084AC8
:10130000C1F30311515CC8400649086006480068F3
:10131000FFF7CAFE0020C4E7003C02400838024044
:10132000787B0208140000200CC001200F2202600C
:101330000C4A136803F003034360136803F0F003DF
:101340008360136803F4E053C36012684FF4E05302
:1013500003EAD20202610448006800F00700086056
:101360007047000008380240003C0240044805492C
:1013700000680968044AC1F38221515CC840704783
:101380001400002008380240887B02080448054900
:1013900000680968044AC1F34231515CC840704793
:1013A0001400002008380240887B0208154810B558
:1013B000006810F00C02144813D01449042A0FD00E
:1013C000082A0ED10F4C241F2268236802F03F0226
:1013D0005B0207D52068C0F38810A0FB010106E07E
:1013E000084610BD2168C1F38811A1FB000100234C
:1013F000FFF722F82168C1F30141491C4900B0FB05
:10140000F1F010BD083802400024F40040787D015E
:101410002DE9F84F04006ED02078DFF84C93C00718
:10142000A9F104054AD009F104000168C1F3810162
:10143000012908D00068C0F3810002280AD1D9F838
:101440000000400206D52868800337D56068002870
:10145000E1D033E06068B0F5803F10D0B0F5A02F48
:10146000286810D020F480302860286820F480207C
:1014700028606068A8B1FFF7EFFD06460DE0286818
:1014800040F48030F4E740F480202860F7E700BFA4
:10149000FFF7E2FD801B642873D828688003F7D526
:1014A0000CE0FFF7D9FD064605E000BFFFF7D4FDCD
:1014B000801B6428F0D828688003F7D42078DFF8F0
:1014C000AC8280074FF0000A3ED5A748001D016896
:1014D00011F00C0F08D00068C0F3810002280BD176
:1014E000D9F80000400207D42868800716D5E068C4
:1014F000012800D112E033E1E068B8B10120C8F85A
:101500000000FFF7A9FD064605E000BFFFF7A4FDB8
:10151000801B0228C0D828688007F7D52868216971
:1015200020F0F80040EAC10028600DE0C8F800A0F3
:10153000FFF792FD064604E0FFF78EFD801B0228B0
:101540001FD828688007F7D42078000722D5864F57
:1015500087486169703771B101210160FFF77CFD37
:10156000064604E0FFF778FD801B022809D838689A
:101570008007F7D50EE0C0F800A0FFF76DFD064626
:1015800005E082E0FFF768FD801B02287DD83868FF
:101590008007F7D42078400768D5DFF8CCB1002762
:1015A0000BF13C0BDBF80000C0000BD4DBF80010A3
:1015B00041F08051CBF80010DBF80000012700F06B
:1015C000805000906B4E3068C00510D4306840F4F5
:1015D00080703060FFF740FD009005E0FFF73CFDB4
:1015E0000099401A022850D83068C005F6D55E4EE2
:1015F000A0686C3601280FD00528306810D020F084
:1016000001003060306820F004003060A068B8B19C
:10161000FFF722FD00900FE0306840F00100F4E792
:1016200040F004003060F7E7FFF716FD0099411A1B
:1016300041F28830814266D830688007F4D50EE0E8
:10164000FFF70AFD009007E0FFF706FD0099411A39
:1016500041F28830814256D830688007F4D42FB1E7
:10166000DBF8001021F08051CBF80010A069C8B35E
:101670003D49091D0968C1F3810102294AD00228A8
:10168000504607D0C8F8600000E03CE0FFF7E4FCFB
:1016900004463BE04746C8F86000FFF7DDFC06461D
:1016A00005E000BFFFF7D8FC801B02282BD8286874
:1016B0008001F7D4D4E907010843A16A2E4A4908FA
:1016C00002EB0141626A41EA8211084394F82C104E
:1016D00040EA0161C9F8001001203866FFF7BCFC40
:1016E000044606E03EE000BFFFF7B6FC001B022800
:1016F00009D828688001F7D534E000BFFFF7ACFCBB
:10170000001B022802D90320BDE8F88F2868800159
:10171000F4D427E00128F7D0D9F80000E26900F4FA
:10172000800191421CD1226A00F03F01914217D101
:1017300047F6C071626A0140B1EB821F10D1A26A04
:101740004FF0FF3300F4403103EB5202B1EB024F94
:1017500006D194F82C1000F07060B0EB016F01D04E
:101760000120D1E70020CFE70438024000004742C3
:10177000800E4742007000400000FFFF70470000ED
:1017800038B5016804464A688868C043430606D5F0
:10179000C30704D1D3435B0601D4216C05E0830762
:1017A00008D4D3431B0605D4616C01B02046BDE8C4
:1017B00030400847830603D5430601D5C30551D4FD
:1017C000D3439B064ED443060AD494F85130032BDE
:1017D00049D0636D43F004036365CB688B68009365
:1017E000830609D4636D43F0010363658B6800933E
:1017F0000B6823F040030B60C00506D4606D40F019
:1018000008006065206880680090606D002829D01D
:101810002068416821F0E0014160012084F8510016
:10182000900701D4D00722D02068416821F003013D
:101830004160114DE06C40B10565E06CFFF777F950
:1018400018B1606D40F040006065A06C002809D0C0
:101850000565A06CFFF76BF9002803D0606D40F0C0
:101860004000606538BDC8688868009038BD204673
:10187000FFF784FF38BD00008528000870B504001C
:1018800009D0606A002540B125616561A56294F8C0
:10189000510040B10CE0012070BD6068B0F5827F5E
:1018A000F4D0E561F2E784F85050204600F044F8A7
:1018B000022084F851002068016821F04001016095
:1018C000A088218900F4827001F404410843A189B1
:1018D00001F400610843217C01F002010843217DED
:1018E00001F001010843218B01F400710843217FBD
:1018F00001F03801084394F8201001F080010843FA
:10190000218D01F40051084321680860A069042179
:1019100001EA104094F8241001F0100108432168F6
:1019200048602068C16921F40061C16165650120DA
:1019300084F85100002070BD2DE9F04387B00646C1
:1019400014216846FEF792FE2D493068884253D133
:101950002C480025016841F4805101600068294944
:1019600000F4805014390590086840F001000860C8
:10197000086800F001000590086840F00200086067
:1019800008684FF0400900F002004FF00508CDF85C
:101990000090CDE9048001AA0224032782E8B00068
:1019A00069461948FFF75AFA28208DE8B1016946BF
:1019B0001648FFF753FA174C154820607806C4E91B
:1019C00001094FF48060C4E9035040006061800069
:1019D000C4E90605256220466562FFF78BF908B168
:1019E000FFF735F8B464002205212320A663FFF732
:1019F000D1FB2320FFF7C0FB07B0BDE8F083000058
:101A0000003001404438024000000240000402401F
:101A100058640240D0C1012070B5044690F85000CF
:101A20000026012809D0012084F8500094F85100C4
:101A30000025012803D002264AE0022070BD89B1AA
:101A400082B1032084F8510065652163A286E28695
:101A5000A56365642564A587E587A068B0F5004F98
:101A600002D00BE0012633E02068016821F040013C
:101A700001602068016841F480410160A16C164852
:101A80000864A16C1548C863A16C1548C864A06CB3
:101A90000565E38E2268216B0C32A06CFFF794F988
:101AA00020B1606D40F010006065DBE720680168E0
:101AB000490603D4016841F0400101602068416893
:101AC00041F0200141602068416841F0020141601D
:101AD00084F85050304670BDB7280008C12800086F
:101AE0009528000800680349884202D10249012074
:101AF00048607047003001406C000020704770471C
:101B0000704710B5040003D094F83D0010B107E011
:101B1000012010BD002084F83C00204600F01EF893
:101B2000022084F83D00211D206801F057F80120B3
:101B300084F8460084F83E0084F83F0084F84000B2
:101B400084F8410084F8420084F8430084F844009B
:101B500084F8450084F83D00002010BD7047000067
:101B600090F83D10012901D001207047022180F832
:101B70003D100168CA6842F00102CA60006811495C
:101B8000884214D0B0F1804F11D00F4988420ED056
:101B90000E4988420BD00E49884208D00D49884230
:101BA00005D00D49884202D00C49884204D1816891
:101BB00001F00701062903D0016841F0010101602D
:101BC0000020704700000140000400400008004071
:101BD000000C00400004014000400140001800409B
:101BE00070472DE9F04104460068C66805694FF06A
:101BF0000007A90713D5B10711D5F91E016101200E
:101C00002077206880698007204602D0FFF7E8FF30
:101C100004E000F07EF8204600F07CF827776807A3
:101C200016D5700714D521686FF0040008610220F2
:101C300020772068806910F4407F204602D0FFF7AB
:101C4000CFFF04E000F065F8204600F063F8277746
:101C5000280715D5300713D521686FF008000861F3
:101C6000042020772068C0698007204602D0FFF753
:101C7000B7FF04E000F04DF8204600F04BF827775E
:101C8000E80616D5F00614D521686FF0100008613B
:101C9000082020772068C06910F4407F204602D0D9
:101CA000FFF79EFF04E000F034F8204600F032F821
:101CB0002777E80708D0F00706D021686FF0010009
:101CC0000861204600F028F8280608D5300606D519
:101CD00021686FF0800008612046FFF710FF68065A
:101CE00008D5700606D521686FF0400008612046CF
:101CF00000F028F8A8060AD5B00608D521686FF0CC
:101D0000200008612046BDE8F041FFF7F9BEBDE8BC
:101D1000F08170477047000070B504460068074DB9
:101D2000A84201D1FFF79EF92068A84204D1BDE87E
:101D3000704003481CF0ACBC70BD000000200040A7
:101D4000591000087047704770470000F8B50168E7
:101D500004460868CA684B6910F00F0F4FF0000581
:101D600059D003F0010602F49077374365D0C107DC
:101D700005D0D10503D5616C41F0010161644107D3
:101D800005D5D90703D0616C41F002016164810778
:101D900005D5D90703D0616C41F0040161640107E6
:101DA00007D502F02001314303D0616C41F00801F6
:101DB0006164616C00293AD0800604D5900602D592
:101DC000204600F0B2FF20684069616CC0F38010CB
:101DD000090700D460B3204600F080FF2068406906
:101DE000400621D52068143050E8001F21F0400142
:101DF00040E80012002AF5D1E06BA8B16E490165F8
:101E0000E06BFEF794FE002811D0E06B016D01B08D
:101E1000BDE8F040084783060FD593060DD5204650
:101E2000BDE8F84000F081BF2046FFF78DFFF8BD08
:101E30002046FFF789FF6564F8BD266B2023012E3D
:101E40007DD1C6067BD5D60679D50868486800904E
:101E500048694FF00206400641D5E16B08684068CA
:101E60000004000CE8D0A28D8242E5D9E085C86963
:101E7000B0F5807F2DD020680C3050E8001F21F491
:101E8000807140E80012002AF5D12068143050E833
:101E9000001F21F0010140E80012002AF5D120685E
:101EA000143050E8001F21F0400140E80012002AE1
:101EB000F5D184F84230256320680C3050E8001FCB
:101EC00021F0100140E80012002AF5D1E06BFEF786
:101ED000E5FD6663A08DE18D401A81B22AE0A08DF8
:101EE000E18D401A81B2E08D0028A5D00029A3D051
:101EF00022680C3252E8000F20F4907042E800078C
:101F0000002FF5D12068143050E8002F22F0010294
:101F100040E80027002FF5D184F84230256320687F
:101F20000C3050E8002F22F0100240E80023002B74
:101F3000F5D166632046FFF706FFF8BDFFE705060B
:101F40002BD5150629D594F841002128F5D1A06894
:101F5000B0F5805F01D12069B0B1206A411C2162D7
:101F6000216800784860E08C401E0004000CE0848A
:101F7000E3D12068C16821F08001C1602068C16898
:101F800041F04001C160D8E7206A0088C0F3080032
:101F90004860206A801C2062E5E74006CDD55006E7
:101FA000CBD5CA68204622F04002CA6084F841308E
:101FB00000F0D3F8C1E70000CD2C000870B5040094
:101FC00004D094F84100002510B106E0012070BD56
:101FD00084F84050204600F023F8242084F8410083
:101FE0002068C16821F40051C160204600F0FEFE67
:101FF0002068016921F4904101612068416921F064
:102000002A0141612068C16841F40051C1606564E2
:10201000202084F8410084F842006563002070BDF0
:102020002DE9F04186B0064614216846FEF71EFBF6
:10203000424D31684248022203230024A94222D1A2
:102040003F4910310D6845F480250D60096801F4A1
:1020500080210591016841F0020101600068694634
:1020600000F00200059098028DE815000720CDE9E8
:1020700003303448FEF7F2FE002205212720FFF747
:1020800089F8272054E0304DA94253D12C4914310E
:102090000D6845F020050D60096801F020010591EB
:1020A000016841F0040101600068694600F0040025
:1020B0000590C0208DE815000820CDE903302348A5
:1020C000FEF7CCFE234D22484FF02067E5E80207DB
:1020D00040204FF48068A5E811011E4845F81449D6
:1020E000AC61EC612C626C62FEF704FE08B1FEF795
:1020F000AEFCB563AE63174D15486035783828607F
:10210000C5E90174C5E9034880156C61C5E906405D
:102110002C6228466C62FEF7EDFD08B1FEF797FCD5
:10212000F563002205214720AE63FFF733F847200F
:10213000FFF722F806B0BDE8F0810000004800403B
:102140003038024000040240001401400008024000
:10215000A0640240C0C2012070477047FEE7000043
:102160002DE9F04704467F2300211A46084600F077
:10217000D1F9194D4FF40049002249462846FEF78F
:1021800065FF012291032846FEF760FF0021134AF4
:10219000E0B2230A8C00491C135514448029607056
:1021A000A370E070F6D300240D4E4FF480782746DC
:1021B00042460A490B48FFF72FFC70680028FCD004
:1021C0007760641C802CF3D349462846BDE8F0476D
:1021D0000122FEF73BBF0000000402404CD2002069
:1021E0006C00002078C101202DE9F05F141A5F1AFD
:1021F0009BB292B289B280B2641C7F1CDDF8288049
:1022000000F088F9DFF884904FF4004B0022594623
:102210004D464846FEF71AFF012291032846FEF775
:1022200015FF0026DFF868A026E0A000FEF7AEF854
:10223000050020D000200BE006FB040238F8121045
:1022400082000B0AAB542A44401C51709370D17029
:10225000A042F1D34FF6FF7000EA440229460D4830
:10226000FFF7DAFB504641680029FCD000214160AD
:102270002846FEF7BAF8761CBE42D6D359464846E1
:10228000BDE8F05F0122FEF7E1BE0000000402405D
:102290006C00002078C1012010B5914C00224FF451
:1022A00000412046FEF7D2FE00F01CF9112000F09C
:1022B0007DF97820FEF7C0FDB12000F077F901200C
:1022C00000F05CF92C2000F059F92D2000F056F9AF
:1022D000B22000F06BF9012000F050F92C2000F042
:1022E0004DF92D2000F04AF9B32000F05FF90120EC
:1022F00000F044F92C2000F041F92D2000F03EF9C7
:10230000012000F03BF92C2000F038F92D2000F0DE
:1023100035F9B42000F04AF9072000F02FF9C02069
:1023200000F044F9A22000F029F9022000F026F97B
:10233000842000F023F9C12000F038F9C52000F016
:102340001DF9C22000F032F90A2000F017F9002030
:1023500000F014F9C32000F029F98A2000F00EF9EA
:102360002A2000F00BF9C42000F020F98A2000F0A8
:1023700005F9EE2000F002F9C52000F017F90E2053
:1023800000F0FCF8362000F011F9C82000F0F6F853
:10239000E02000F00BF90F2000F0F0F81A2000F018
:1023A000EDF80F2000F0EAF8182000F0E7F82F20F1
:1023B00000F0E4F8282000F0E1F8202000F0DEF83A
:1023C000222000F0DBF81F2000F0D8F81B2000F0DE
:1023D000D5F8232000F0D2F8372000F0CFF8002005
:1023E00000F0CCF8072000F0C9F8022000F0C6F891
:1023F000102000F0C3F8E12000F0D8F80F2000F022
:10240000BDF81B2000F0BAF80F2000F0B7F8172035
:1024100000F0B4F8332000F0B1F82C2000F0AEF852
:10242000292000F0ABF82E2000F0A8F8302000F0B2
:10243000A5F8302000F0A2F8392000F09FF83F20E6
:1024400000F09CF8002000F099F8072000F096F8C2
:10245000032000F093F8102000F090F82A2000F0FC
:10246000A5F8002000F08AF8002000F087F800208E
:1024700000F084F87F2000F081F82B2000F096F81F
:10248000002000F07BF8002000F078F8002000F039
:1024900075F89F2000F072F8F02000F087F8012016
:1024A00000F06CF8F62000F081F8002000F066F8EB
:1024B0003A2000F07BF8052000F060F8292000F0B9
:1024C00075F8002000F09AF8012251032046FEF72B
:1024D000BDFDBDE810404FF6FF70FFF741BE0000A4
:1024E0000004024070B50A4D4FF48054002221468A
:1024F0002846FEF7ABFD6420FEF79EFC0122214634
:102500002846FEF7A3FDBDE870403220FEF794BCDC
:10251000000402402DE9F041174C07469846154645
:102520000E46A07A00F042F8002000F027F8A07BC9
:102530003844C0B200F022F8002000F01FF8A07B61
:102540002844C0B200F01AF8207B00F02FF80020D9
:1025500000F014F8E07B3044C0B200F00FF8002027
:1025600000F00CF8E17B01EB0800C0B200F006F8C7
:10257000BDE8F04100F032B83CD2002031B5094C42
:1025800000224FF400412046FEF760FD0122910336
:102590002046FEF75BFD012269460348FFF73CFA3F
:1025A00038BD00000004024078C1012031B5094C5B
:1025B00000224FF400412046FEF748FD00224FF470
:1025C00080412046FEF742FD012269460248FFF79E
:1025D00023FA38BD0004024078C101200148007A86
:1025E000FFF7E4BF3CD2002010B50C46FFF7DEFF3A
:1025F000E0B2BDE81040FFF7C1BF000030B417499A
:102600002A2202234A812B228A812C220A81032436
:10261000802278B1012813D00124022816D0032883
:102620001AD10A804A808C73CB73682130BC362063
:10263000FFF7DABF0A804A808B73CC73C821F5E7B5
:102640000A804A808C73CB73A821EFE70A804A8006
:102650008B73CC730821E9E730BC70473CD2002073
:10266000074910B5054808600846FEF7F2F900284A
:1026700003D0BDE81040FEF7EAB910BD00300240BB
:1026800000C00120114808B5016841F480010160D3
:102690000068002200F48000009005213920FEF738
:1026A00079FD3920FEF768FD002205213B20FEF769
:1026B00071FD3B20FEF760FD002205214520FEF75D
:1026C00069FDBDE808404520FEF756BD30380240A0
:1026D00010B5134B0022012112481CF095FD124C3D
:1026E0000F4B0022E0601033012110481CF08CFDDC
:1026F0000B4A20616C3A00210D481CF03FFD084A4E
:102700002060483A00210B481CF038FD044A606004
:10271000243A002108481CF031FDA06010BD0000E3
:10272000507B02087F090008000000208109000892
:10273000492A0008012B0008092B000870B586B053
:1027400014216846FDF792FF1A480025016841F000
:1027500004010160016801F004010591016841F084
:1027600080010160016801F080010591016841F07C
:1027700001010160016801F001010591016841F06A
:102780000201016000680C4E00F002004FF470443A
:102790000590002221463046FEF758FC0121CDE984
:1027A0000041CDE9021569463046FEF757FB06B0F9
:1027B00070BD00003038024000040240104810B5DF
:1027C0000E4901604FF48271416000218160C16057
:1027D0004FF400720161C0E905121022C0E907211F
:1027E000416281620A21C162FFF748F8002803D0E4
:1027F000BDE81040FEF72BB910BD000000300140CD
:1028000078C101200C4810B50A4901604FF4E1314C
:102810004160002181600C22C160C0E90412816125
:10282000C161FFF7CBFB002803D0BDE81040FEF7E5
:102830000EB910BD0048004030C201200C4810B550
:102840000A4901604FF4E1314160002181600C22AE
:10285000C160C0E904128161C161FFF7AFFB0028CC
:1028600003D0BDE81040FEF7F2B810BD00140140DF
:1028700078C20120FEE7FEE70148FEF781BF0000B5
:1028800078C1012010B5806B0021C187C186FEF799
:1028900075FF10BD10B5806B01684A6822F0030215
:1028A0004A60416D41F010014165012180F85110ED
:1028B000FEF764FF10BD10B5806BFFF71FF910BD68
:1028C00038B50546846BFEF7C7FB024628680068EA
:1028D000C00523D42068416821F0200141602068B0
:1028E000416821F0020141606421204600F01AF89D
:1028F00018B1606D40F020006065A068002118B933
:102900002068C26880680090E186012084F8510048
:10291000606D18B12046FEF731FF38BD2046FFF745
:10292000E1F838BDF8B515460E460B460092044650
:102930000122022100F02CF8A0B9134813490068C5
:10294000B0FBF1F04FF47A71484300906068B0F545
:10295000827F0DD13346002280212046009500F071
:1029600017F870B1606D40F0200060650320F8BD7D
:10297000009830B1401E009020688068C043000677
:10298000F6D50020F8BD00001400002000366E01CE
:102990002DE9F8431E46914688460446089DFEF7F9
:1029A0005BFB401B351AFEF757FB074625480068BE
:1029B000C0F3CB30684338E0701C37D0FEF74CFBD7
:1029C000C01BA84203D215B1009860B32CE0206868
:1029D000416821F0E00141606068B0F5827F0BD171
:1029E000A068B0F5004F02D0B0F5806F04D1206828
:1029F000016821F040010160A06AB0F5005F09D1D3
:102A00002068016821F4005101602068016841F4E8
:102A100000510160012084F85100002084F850002A
:102A20000320BDE8F8830025401E009020688168DF
:102A300038EA010004D000214945BDD10020F0E76B
:102A40000121F9E71400002096B0FFF725FC13F0F0
:102A50006DFB19F083F943F657200CF097FE0446FE
:102A600019F008FD0022214618F01AFF19F002FDA6
:102A700013F046FD04461EA114F0D2FA6FF07F4019
:102A80000CF084FE01460022204618F04BFF002384
:102A90001A460921204615F0EAF968460AF076F848
:102AA0002046009417F0F8F9A0F13205204617F0FF
:102AB000F3F900F132014FF00040CDE90A010F486F
:102AC00001904FF4FA6009956421CDE90E100C9045
:102AD000801010904FF6FF70ADF8440068460AF081
:102AE000DDF800BF1BF012FF01201CF00BFBF9E723
:102AF00048656C6C6F20776F726C64008FB9010849
:102B000005201CF0FFFAFBE701201CF0FBFAFBE7B5
:102B100010B54FF0E020006924F0C2FD012803D079
:102B2000BDE8104024F0F0BA10BD000030B593B0FD
:102B300030216846FDF79AFD14210CA8FDF796FD9B
:102B40001D480025016841F080510160006800F0D7
:102B5000805011901948016841F48041016000687B
:102B6000022400F480401190012003901020049072
:102B7000009406940820CDE90750A820CDE9090467
:102B800004200B906846FEF743FC08B172B6FEE7DE
:102B90000CA90F2081E831004FF4A0500F904FF4A2
:102BA0008050109005210CA8FEF726FB002801D0CC
:102BB00072B6FEE713B030BD4038024000700040EE
:102BC0000248016841F470010160704788ED00E03F
:102BD0000148FFF706B8000080C30120F0B5026885
:102BE000294C2A4D2A4E2B4F2B4B4FF0804CA042A4
:102BF00009D0604507D0A84205D0B04203D0B84202
:102C000001D0984204D122F0700E4A6842EA0E02C6
:102C1000A0421BD0604519D0A84217D0B04215D0B1
:102C2000B84213D0984211D01C4DA8420ED01C4D72
:102C3000A8420BD01B4DA84208D01B4DA84205D07E
:102C40001A4DA84202D01A4DA84203D122F4407571
:102C5000CA682A434D6922F080022A4302608A68CA
:102C6000C2620A688262A04201D0984201D1096919
:102C70000163012141610169C90703D0016921F0A4
:102C800001010161F0BD00000000014000040040AE
:102C900000080040000C00400004014000400140DA
:102CA000004401400048014000180040001C004062
:102CB0000020004010B51DF013F8002805D0D0E921
:102CC0000021BDE810400846104710BD10B5806BCC
:102CD0000021C185C184FFF737F810BD01680C31B0
:102CE00051E8002F22F4907241E80023002BF5D127
:102CF0000168143151E8002F22F0010241E800235D
:102D0000002BF5D1016B012909D101680C3151E883
:102D1000002F22F0100241E80023002BF5D12021E2
:102D200080F8421000210163704708B590F8421006
:102D3000222901D0022008BD82684FF480539A42B4
:102D400001D1016921B1816A9A421BD04AB10AE0DE
:102D50000268816A5268C2F308020A80816A891C8B
:102D600008E0026972B10268526802F07F020A70DC
:102D7000816A491C8162C18D491E0904090CC18503
:102D800003D01BE002685268F1E70168CA6822F0CC
:102D90002002CA600168CA6822F48072CA600168B1
:102DA0004A6922F001024A61202180F84210002184
:102DB0004163026B012A03D0FFF7CEF9002008BD62
:102DC000016301680C3151E8002F22F0100241E844
:102DD0000023002BF5D101680A68D20602D50A68E3
:102DE00049680091818DFEF7AEFFE7E770B50446B4
:102DF00000680169E26821F44051114301612169D1
:102E0000A068E26908436169114308432168CA6800
:102E100049F20C639A430243CA6020684169A2697F
:102E200021F440711143416131492068884202D048
:102E30003049884202D1FEF7A9FA01E0FEF796FA7E
:102E4000E2690023192164253226B2F5004F626839
:102E500028D0A0FB0101930F9200FDF7EDFA014687
:102E6000B0FBF5F06FF01802504301EB800006EB69
:102E70000010B0FBF5F000F0F002B1FBF5F002EB52
:102E80000012B1FBF5F06FF01803584301EB80001E
:102E900006EB0010B0FBF5F000F00F0021681044C5
:102EA000886070BDA0FB010192185B41FDF7C4FA78
:102EB0000146B0FBF5F00201B1FBF5F06FF018032D
:102EC000584301EB800006EBC000B0FBF5F000F0CA
:102ED000F80002EB4002B1FBF5F0584301EB800033
:102EE00006EBC000B0FBF5F000F00700D6E70000ED
:102EF00000100140001401400148FEF727BF000008
:102F000030C201200148FEF721BF000078C2012035
:102F1000FEE70907090E002804DB00F1E02080F835
:102F20000014704700F00F0000F1E02080F8141D3D
:102F3000704770B5044600256FF02F0608E0206842
:102F4000411C2160007805EB850106EB4101451825
:102F50002068007800F02CF80028F0D1284670BDD9
:102F600070B514460D461BB911460DF05FFD0346C2
:102F700003FB05F0142C0ED0E11F03290AD8072CFF
:102F80000DD0082C0DD0092C0DD00A2C0DD000210D
:102F900000EB810070BD590801FB050070BD0221E6
:102FA000F6E70421F4E71021F2E74FF48071EFE730
:102FB0003038092801D801207047002070470000F0
:102FC00010B55821094800F0F5FC002221210848DD
:102FD0001BF092FB054CAC3CC4F8A800A43401F0F3
:102FE00047FD00202070607010BD0000F8D4002064
:102FF000A14A00082DE9F0470C4606461546114641
:10300000204600F0C5F800285CD000222946204662
:1030100000F07BF800284FF0000051D1E7686168AC
:103020002368A7EB010C6F68A2687F1AA2EB030963
:10303000002F05DD08C60F4486E886000120361FF4
:10304000E96862688A1AACEB0203002B0CDDE268C7
:10305000914209DA06EB001C2768A2684CF8047B51
:103060000B448CE80E00401C69686268914200DCE9
:103070001146EA68E3689A4200DB1A46531A2F6841
:103080002268BF1A002F0BDD002B09DD06EB0018AC
:10309000174448F8042B01EB030C88E88210401C0D
:1030A000AA682468151BA9EB0504002C08DD06EBB3
:1030B00000151444C5E900210B44C5E90243401C36
:1030C000BDE8F0874FF0FF30FAE770B50B68146881
:1030D000A34200DC234603604D685468A54200DD2E
:1030E0002C4644608E689568AE4200DA35468560AD
:1030F000C968D268914200DB1146C1600120AB4231
:1031000001DC8C4200DD002070BD7CB50D4604461C
:10311000006809681646884238DB61686A6891422F
:1031200034DBA268AB689A4230DCE268EB689A4212
:103130002CDC4EB3CDE9000132466946284600F04A
:103140007AF8002821D0D4E90110CDE900013246F7
:103150006946284600F06FF8002816D0E16820681C
:10316000CDE9000132466946284600F064F800289F
:103170000BD0D4E90201CDE9000132466946284668
:1031800000F059F8002800D001207CBD00207CBD53
:1031900002688B689A420DDC82680B689A4209DBF0
:1031A0004268CB689A4205DCC0684968884201DB06
:1031B00001207047002070477CB50D4604468068AA
:1031C00009681646884234DBE0686968884230DB6B
:1031D0002168A86881422CDC6068EA68904228DC9B
:1031E0002EB3CDE9001032466946284600F023F898
:1031F000E8B9D4E90110CDE9000132466946284614
:1032000000F019F898B9E1682068CDE9000132466C
:103210006946284600F00FF848B9D4E90201CDE923
:10322000000132466946284600F005F808B1002042
:103230007CBD01207CBD2DE9FF4114460E460A6885
:10324000016805468A422EDBA86882422BDC726840
:103250006B689A4227DBEF68BA4224DC002C5DDD04
:10326000401A401C00EBD0704210F81A401C00EBD2
:10327000D0704010824200DA1046844200DD0446DD
:1032800000912868002220440290686801906868D4
:103290003146204403906846FFF7CDFF38B10298CD
:1032A0002044029032E0002004B0BDE8F081E868DC
:1032B0000022001B0190E868039031466846FFF742
:1032C000BAFF18B10298204402900DE0A8680022CD
:1032D000001B0090A868029031466846FFF7ABFFDC
:1032E00030B10098001B00900198001B019010E085
:1032F000686801906868002220440390314668465F
:10330000FFF799FF50B10098001B009003982044EC
:1033100003903146684618F008FDC5E70120C3E771
:1033200010B50C6813689C4200DA234603604C68B1
:1033300053689C4200DA234643608C6893689C4241
:1033400000DD23468360C968D268914200DC1146E3
:10335000C16010BD2DE9F041444C28B1C168216124
:103360001BF0CCFA206902E00CF02CFD2061002853
:103370007AD0416A002977D00A69002A74D0C968D6
:10338000002971D0002234210CF0AEFD2069D0F864
:10339000B00218F065FB2069D0F8B40208B118F04B
:1033A0005FFB2069D0F8BC0218F05AFB2069D0F806
:1033B000C00218F055FB2069D0F8C40218F050FB89
:1033C00020690026D0F8B012B9B118F079FD1DF0CF
:1033D000A9F91CF00BFF2069D0F85C1279B100222A
:1033E00037210CF081FD20690CF068FD58B320698D
:1033F00090F83910012926D10AE0C0F85C6200F08B
:1034000017F92069BDE8F041002235210CF06CBDB0
:1034100023F0DFFD00254FF03C080FE005F50F71AC
:10342000415C51B900F5197000F01BFB226908EBF3
:10343000051111448EC980E88E006D1C2069D0F8FA
:103440005C12A942EAD820694FF4007200213C3096
:1034500014F0C7F920692022002100F50F7014F044
:10346000C0F92069C9E7FFE7BDE8F0814CD400202E
:1034700010B51421084814F0E8F907480749C8387E
:1034800040F8C81F06494160064981600021C160BB
:103490000549016110BD000014D50020F356000855
:1034A000EF560008E356000801700208F0B59BB023
:1034B0001E0014460D46074655D0206803906068EC
:1034C0000490A0680590E0680690EB6A3BB9296B10
:1034D0004FF48070814202D1696B814228D021680B
:1034E000A0686268411AE068B5F830E0821AB5F861
:1034F00034C01FFA8EFE05F140001FFA8CFCCDF897
:1035000000E0CDE901C003A8491C521C00F0D8F826
:103510000398216808440390049861680844049063
:10352000059821680844059006986168084406904B
:1035300003A916A8BA68FFF7C8FD002813D0002217
:1035400007A8E96912F035FA01280CD116A8CDE9CF
:103550000040002307AA29460296384608F034F9AD
:1035600007A812F0F7F91BB0F0BD00002DE9F04FED
:10357000A1B05FEA030917468846054653D00022EA
:1035800007A8D8F81C1012F014FA01284BD1D8F86B
:1035900024000DF10C0A84B2060C97E80F008AE8AB
:1035A0000F00214603A80AF068F9314603A80AF083
:1035B0005FF91E480DF1640A039F0FC88AE80F00E7
:1035C00029E003A91DA8AA68FFF77FFD48B1CDF83F
:1035D00000A0CDE901B919AB07AA4146284608F079
:1035E000F3F803982044039005982044059003E0E5
:1035F0000DF10C0A0DF1740BA868039980688142E3
:10360000DFDD049803973044049006983044069018
:103610003819401E0590A9680498C9688842E7DDFA
:1036200007A812F097F921B0BDE8F08FC47B02081B
:1036300070B50B4E002400BFC4EBC40006EB800540
:10364000D5F8FC0008B111F08FFD05F1FC001C213C
:1036500014F007F9641CE4B2042CEDD370BD000033
:103660004CD400200849C96E0AE04A68824202D060
:103670000A68824203D10A7E42F001020A76496951
:103680000029F2D1704700004CD400200149406964
:10369000C86670474CD400200249CA6E4261C866B1
:1036A000704700004CD400200421014800F082B98A
:1036B000DCD500202021014800F07CB980D4002016
:1036C0002DE9F0478AB05FEA030ADDE91387DDF8E8
:1036D000489015460E4604460FD14FF48071894537
:1036E0000BD1884509D1551E0020E560761E20606B
:1036F000C4E901060AB0BDE8F087202102A8FCF762
:10370000B5FF0496CDE9075609950125CDE9007569
:1037100043464A46514602A818F0FCFACDE9007526
:1037200043464A46514604A818F0F4FACDE900751C
:1037300043464A46514606A818F0ECFACDE9007512
:1037400043464A46514608A818F0E4FA04990298FC
:10375000884200DB0846089A0699914200DB114630
:10376000884204DA04990298884205DB03E006984F
:103770001146904200DB0846206004990298884276
:1037800000DC0846089A0699914200DC11468842FE
:1037900004DD04990298884205DC03E0069811468E
:1037A000904200DC0846401EA060059903988842BC
:1037B00000DB0846099A0799914200DB11468842CE
:1037C00004DA05990398884205DB03E0079811465F
:1037D000904200DB0846606005990398884200DC4F
:1037E0000846099A0799914200DC1146884204DD97
:1037F00005990398884205DC03E00798114690423A
:1038000000DC0846401EE06074E700001821014813
:1038100000F0D0B828D5002070B588B00D4604005F
:1038200003D10CF0CFFA04002BD00CF04DFB002894
:1038300027D0A06B800300D5FEE70026FDB10096DF
:10384000204601960CF0CEFA401E029020460CF065
:1038500021FB401E03906A46294604A8FFF735FC69
:1038600000280ED094F8390002280CD004AA302188
:1038700020460CF039FB012803D1002517E0C4F8DD
:103880005C6208B070BD9DE80F0004F13C0585E85E
:103890000F0001201FE000BF04EB0511002204A867
:1038A0003C31FFF732FC0028EBD16D1CADB2D4F8EF
:1038B0005C02A842F0D804A9202802D36946C4F8C3
:1038C0005C62D4F85C0204EB00103C3009F04FFF5E
:1038D000D4F85C02401CC4F85C020022332120466C
:1038E0000CF002FBCDE7000010B5044600211622C3
:1038F00016F0E9F810F0FF000ED008498A6D8242F8
:103900000AD3CA6D042101EBC001515852F830208E
:103910002046BDE81040104710BD00004CD40020E8
:1039200010B5064CA06DC00013F02AFEE06511F042
:103930006BFABDE8104011F0C1BE00004CD400206D
:103940002DE9F0410E46074600F017F8044608E05E
:103950002146384600F023F8054636B12046B047E8
:103960002C46002CF4D1BDE8F0812146384600F009
:103970009FF8204611F0F8FBF2E7002800D04068DD
:10398000704700B503460022FFF7F7FF03E0184633
:10399000521C00F004F80100F9D1104600BD006887
:1039A000091D40587047006840587047002800D0F3
:1039B0008068704700224260C91C21F003018260C8
:1039C0000160704770B504460068083013F0D8FDF8
:1039D000050013D00146002220461BF0D5FA2946E7
:1039E000204662681BF0CAFA616819B12A4620466F
:1039F0001BF0CAFA6560A06800B9A560284670BDD2
:103A00002DE9F0410C4606000AD04CB1FFF7B5FF96
:103A1000A04208D13046FFF7D5FF051E01D01EE0B9
:103A20000020BDE8F0813068083013F0A9FD051EC4
:103A3000F7D030682A460759304639461BF09EFABF
:103A40003A46294630461BF09FFA2A462146304620
:103A50001BF09AFA2246294630461BF08FFA284678
:103A6000DFE770B504460068083013F089FD0500F3
:103A700013D00146002220461BF080FA294620463A
:103A8000A2681BF081FAA16819B12A4620461BF0F2
:103A900075FAA560606800B96560284670BD28B1F8
:103AA000416809B9806808B100207047012070475B
:103AB00070B504000DD0FFF760FF00228842204659
:103AC00008D1FFF76CFF6060011E01D000221EE0EC
:103AD000A26070BDFFF76AFF8842206808440AD1DF
:103AE0000168A16029B12046BDE8704000221BF0AA
:103AF00045BA626070BD05682046FFF750FF064674
:103B00000246294620461BF039FA2A46314620460D
:103B1000BDE870401BF038BA10B5044600688268F2
:103B20000AB12146904720680068002801D0206033
:103B3000F5E710BD8068002800D0406A70478068B3
:103B4000002802D0408DC0F38120704770B5164622
:103B500005460C4651EA06001AD0284614F047FBE9
:103B6000A86801233246816921448161A868C1693E
:103B70003144C1612146284616F062FD00220C2125
:103B8000284617F02AFD012803D1284616F0AFFC7D
:103B9000012070BD77B581B00E4605001BD06122B3
:103BA00015F091FF040016D02068A0B128463146D8
:103BB000622215F088FF10F0FF020CD02368204627
:103BC000039998470090BDF80000ADF80C009DF8EF
:103BD00002008DF80E00039804B070BD2DE9F04787
:103BE000074696B0408D1E9E40F008007885154629
:103BF0003A8599468A46327A384615F064FF04467B
:103C0000A7F82890327A5146384615F05CFF798D36
:103C1000804621F008017985444505D101462046BA
:103C20000BF059FD002864D13D85327A5146384663
:103C300015F049FF0446A7F828905146384607F08A
:103C4000CDFB317A0068224619F062FA307A0C28EE
:103C500024D147F6FF794C4501D0C8451ED13846DE
:103C600016F005F900EBD0704510384615F0A3F8B2
:103C700000EBD07040104C4506D16A1C431C9A42A0
:103C800001DA6C1C00E01C46C84507D1691C421CC7
:103C9000914201DA681C00E0401C80461748FFF79B
:103CA00091FE050028D02F60C5E90348307A2871BD
:103CB0006846C5F808A008F069FF11480021CDE961
:103CC00000501048039010480490FF200991C1074C
:103CD000CDE90A1030880C90708840420D90F06851
:103CE000089000208DF84E0030690790684608F073
:103CF000D5FF16B0BDE8F087FEE7000064D40020D1
:103D0000EB580208395B0208915A02081421014855
:103D1000FFF750BE64D400202DE9F84F00259046EF
:103D2000894606462C460427DEE000BFF06807EB14
:103D3000C401405881016ED480B230EA090112D02A
:103D40005FF0000130EA08000FD00020814262D00D
:103D5000F0686A46102150F83400824618F0C8FF17
:103D6000002863D103E00121ECE70120EEE76A4679
:103D70001121504618F0BCFF002857D16A46122185
:103D8000504618F0B5FF002850D16A46132150461E
:103D900018F0AEFFF0BB6A461521504618F0A8FF98
:103DA000C0BB6A461421504618F0A2FF90BB6A4679
:103DB0001621504618F09CFF60BB6A466A215046A7
:103DC00018F096FF30BB6A466B21504618F090FF02
:103DD00000BB6A460121504618F08AFFD0B96A46F6
:103DE0000221504618F084FFA0B96A4604215046CB
:103DF00018F07EFF70B96A460521504618F078FF2A
:103E000040B96A460621504618F072FF10B96A465A
:103E1000072101E00AE066E0504618F069FF28B982
:103E20006A463021504618F063FF10B10320BDE808
:103E3000F88F6A466821504618F05AFFF0BB6A4670
:103E40006921504618F054FFC0BB6A466E215046A7
:103E500018F04EFF90BB6A466C21504618F048FFA0
:103E600060BB6A466D21504618F042FF30BB6A467F
:103E70003A21504618F03CFF00BB6A463B215046B1
:103E800018F036FFD0B96A463821504618F030FF96
:103E9000A0B96A463C21504618F02AFF70B96A461C
:103EA0003E21504618F024FF40B96A464021504652
:103EB00018F01EFF10B96A46412100E00FE050469D
:103EC00018F016FF58B96A464221504618F010FF04
:103ED00028B96A464821504618F00AFF08B1022561
:103EE00001E005B90125641C708DC0F30510A042E6
:103EF0003FF61CAF28469AE770B5054601F080FFF3
:103F00000446A86820B1418D64F38B21418570BDC2
:103F1000002CFCD0284614F06AF9A868F3E70000EA
:103F200001480069704700004CD400207047000031
:103F3000FF2805D0002804D08D2803D2074909E0C6
:103F40003F207047064A8D38C0B2116B21B1926A8A
:103F5000824201D9085C70470020704764B40208AF
:103F60004CD400202DE9F04190460C46050015D0B8
:103F700018F0B6FE0A4F06462146BA682846904712
:103F80000446BA682819414690470146701A03E072
:103F90006218AA5C2A55641CA042F9D2BDE8F081DF
:103FA000740000202DE9F041094D90460E466A68E4
:103FB0001C46074619469047306020B120686A6861
:103FC000384400219047C8F80000BDE8F0810000A7
:103FD000740000202DE9F04F85B08A46DDE90E58C7
:103FE0001F4693460446002105B129605CB1207844
:103FF000002809D0BAF1000F05D000265FEA8870CA
:1040000015D0002004E0002005B0BDE8F08F401C72
:10401000215C0A2904D00D2902D00029F7D100E043
:10402000401C002DF0D04FF0FF312960ECE75FEA33
:10403000C87001D06FF060478946039121E000BF4E
:10404000CDF81090080026D0002204ABCDF80080F7
:10405000CDE9013220443B465A46514619F048FC0E
:1040600004997F1A0E4480B103990144039120788A
:104070000A280AD00D2808D0605C0A280DD00D2827
:104080000BD0605C08B1002FDADC039840B105B1B9
:104090002E600398B8E70122D7E7481C0390F4E7A5
:1040A000064A03A92046526890470146002DF0D0E9
:1040B0000022504611F026F80646E9E77400002079
:1040C0002DE9F0411746884606001ED0002F1CD06F
:1040D00018F006FE0446384618F002FE050014D01B
:1040E0000B4A2C444146926830469047411903E000
:1040F000621BB25C3255641EA142F9D930442A4693
:104100003946BDE8F04113F0B1BABDE8F0810000D6
:1041100074000020002823D0A0F59C41B1F5A44FE5
:104120001DD36FF47F4101445D2918D9A0F540519A
:104130003F2914D9A0F53A517F2910D9A0F547514C
:104140002F290CD9A0F54151BF2908D9A0F57E41EE
:1041500010390F2903D9A1F120001F2801D801200F
:10416000704700207047202822D3A0F5C0611C3979
:104170001ED0A0F588515F391AD0B0F58B5F17D0EB
:10418000A1F2AC61032913D9A1F5006104290FD96B
:104190001D3907290CD93739102909D9A0F57E41D5
:1041A000FF3905D0A0F57841FF3901D000207047D4
:1041B000012070472DE9F0410D46074602460021D7
:1041C0002B4608461AF016FD0446401C13F0D8F999
:1041D000060007D02B463A46611C1AF00BFD30460C
:1041E000BDE8F081FEE7000010B518210348FFF795
:1041F000E1FBBDE8104001201AF0B8BAC0D400209D
:104200002DE9F0471E4614460D468246DDF8209003
:1042100015E000BF4FEA540808FB065739465046E0
:104220004A469047002808DD44F30000C0EB5404E0
:1042300007EB0605A4F1010401E005DA4446002C71
:10424000E8D12046BDE8F0873846FBE72DE9FF4F6F
:1042500089B005460A9800249246002800D1FE4DF8
:104260008FE1252804D02246641C53460A990BE2AC
:10427000491C4FF0000808460C9101782B2919D0F1
:1042800004DC202919D0232904D119E02D290ED0CE
:10429000302909D00026C8B2FEF78AFEB0B10CA8BA
:1042A000FEF747FE06461FE048F001010AE048F02D
:1042B000020107E048F0040104E048F0080101E0D1
:1042C00048F01001401C88460C90D6E70C990878FD
:1042D0002A2809D1169840C81690002E02DA48F014
:1042E00002087642491C0C910C984FF0000B0178A3
:1042F0002E2919D1401C0C9048F480680078FEF7F4
:1043000057FE20B10CA8FEF714FE83460CE00C9A71
:1043100010782A2808D1169802C81690002900DCC7
:104320000021521C8B460C920C9801786C290AD003
:1043300004DC68290FD06A2919D128E0742929D012
:104340007A2914D126E0401C0C90017848F480783A
:104350006C291CD00BE0401C0C90017848F08008C0
:10436000682904D148F04001401C88460C90024660
:104370000078692822D015DC62281FD00DDC2528A2
:1043800071D050281AD058287FF46DAF16E048F449
:104390000071E9E748F48071E6E7632878D0642883
:1043A000F2D10BE0732874D004DC6F2806D070289B
:1043B000EAD103E0752801D07828E5D178280DD01E
:1043C00058280BD070280BD0502809D06F2816D051
:1043D000622816D00A2128F0100016E0102107E00C
:1043E0005078102148F48878562804D1521C0C9239
:1043F0001078582807D01078502804D006E00821FB
:1044000009E0022107E048F0200080461078692882
:1044100003D0642801D028F00C085FEA485001D589
:1044200028F00108107869281ED064281CD056286E
:1044300064D05FEA885072D5169804ABC01D002284
:1044400083E806080292CDE9076820F0070053468A
:10445000F0E80212CDE900121690224628460A9989
:1044600000F0F4F989E00AE15FEA885024D5169853
:1044700004AFC01D20F00703F3E8020216930023E7
:1044800087E80A08CDE90768002A03DA012102E07B
:1044900080E0A6E000210023029119461B1A9141F9
:1044A00001DA114603E00021404261EB020153466C
:1044B0002246CDE90001D1E75FEAC85004D516983D
:1044C00004C80FE0524215E05FEA486003D5169831
:1044D00010F8042B06E05FEA0860F0D5169830F873
:1044E000042B12B21690CDE9021BCDE90468D00F5F
:1044F000002AE7DDCDE9002053461EE01698AAEB1E
:10450000040202C816904868006800900A980B6878
:1045100001192846FFF79AFE04442FE0FFE75FEAFF
:10452000C8500CD5CDE9021BCDE9046816980021CE
:10453000534604C8CDE900211690224619E05FEAEF
:10454000486003D5169810F8042B08E05FEA08606D
:10455000169803D530F8042B92B200E004C81690E8
:104560000020CDE90020CDE9021BCDE904685346C7
:10457000224628460A9900F029F904460C98401C66
:104580000C900C99087800287FF46BAE54457DD2CE
:1045900022467DE001275FEA887006D509E02246C1
:1045A000641C534620200A99A84738467F1CB04215
:1045B000F5D316992246641C11F8040B1691534644
:1045C0000A99A8475FEA887006D4D7E72246641C98
:1045D000534620200A99A84738467F1CB042F5D39D
:1045E000CCE7169850F8049B16904B46BBF10000A0
:1045F00001D0014601E04FF0FF31484600E0401C89
:1046000002780AB1491EFAD2C71A5FEA485003D5A8
:1046100058465F4500D307465FEA887006D512E02A
:104620002246641C534620200A99A84738467F1C1E
:10463000B042F5D307E000BF224609F10109641C2E
:1046400053460A99A84799F8000040B15FEA4851DB
:10465000F2D5BBF1010B01E0D5480008ECD25FEACE
:10466000887006D48AE72246641C534620200A99A3
:10467000A84738467F1CB042F5D37FE706E02246C4
:10468000641C534625200A99A84777E7AAF101023E
:10469000534600200A99A8470DB02046BDE8F08F88
:1046A0002DE9FC5F9B460CAB8A468146DDE9116033
:1046B00093E81210DDE90F575FEA80784FF030037E
:1046C0001AD45EB15FEAC07808D000F00C0858EA4E
:1046D0000C0803D0761E01E00B55641CBC4204D2CA
:1046E000202CF9D301E00B55641C5FEAC07803D09D
:1046F000B44201D2202CF6D35FEAC06825D55FEA28
:1047000040580AD44CB1BC4201D0B44205D1641E19
:1047100003D0102D03D1641E04E0102D02D0022D11
:104720000AD00EE0850603D4202C1ED2782506E0A0
:10473000202C1AD2582502E0202C16D262250D55C5
:10474000641C202C11D20B55641C202C0DD2BCF102
:10475000000F01D02D2306E0430701D52B2302E0F3
:10476000030702D520230B55641CCDE900BAC846C7
:10477000154681468B46AA46800714D1274607E096
:104780002A46DDE900316D1C2020C446E0477F1C2D
:10479000B742F5D307E02A466D1C641EDDE90031FF
:1047A0001BF80400C047002CF5D15FEA897006D4DD
:1047B00009E02A46DDE900316D1C2020C047A5EB49
:1047C0000A00B042F5D32846BDE8FC9F2DE9F04F22
:1047D0008FB099468B46DDE91818DDE91C63DDE9E9
:1047E0001A4792468646002209B923F0100358055D
:1047F00007AD00D5C9B1B1FBF4F004FB1010C0B295
:104800000A2801D2303009E05FEA836C02D54FF00C
:10481000410C01E04FF0610C60440A38B1FBF4F147
:10482000A854521C09B1202AE5D3CDF80880CDE95F
:104830000563CDE90052CDE903474B465246594640
:104840007046FFF72DFF0FB0BDE8F08F2DE9FF4F49
:104850008FB01CACDDE9239594E8030820AC94E804
:10486000C004002450EA010201D125F010056A05B8
:104870000DF11C0802D550EA010217D032463B4622
:10488000FBF7DAFDD2B20A2A01D2303206E0AB06DB
:1048900001D5412300E061231A440A3A08F80420B4
:1048A000641C50EA010201D0202CE7D3CDE900843A
:1048B000CDF808B0CDE90595CDE9036A0FAF97E8CB
:1048C0000F00FFF7EDFE13B0BDE8F08F9A4200D263
:1048D0008854704770472DE9FF4114460D4607463E
:1048E0000A461E4621466846DDF82880FEF7EDFBA5
:1048F00000281AD0019861682268411A009808FBC4
:104900000171821A54182A6881198A1A02990B1A9D
:1049100000205B1C07E0115C255C2944FF2900D9BD
:10492000FF211154401C9842F5D3BDE8FF8110B51A
:1049300002004FF000000CD04B1E194200D0FEE7E1
:104940000A44521E9A43B2F5803F02D20C2A01D982
:10495000104610BD0C2010BD08444A1E401E904356
:10496000114200D0FEE770472DE9F0410F460121CA
:10497000002504462E46C16309E01A49FBF79EFE56
:1049800008B16D1C02E0E06B401CE063761C57F838
:10499000260010B101780029EFD1A06BA8421FD0EA
:1049A000206B002610B110F0DFFB2663606B10B1A6
:1049B00010F0DAFB6663280112F0E2FD206338B1E3
:1049C000A80012F0DDFD606318B1216B11B102E0A7
:1049D000FEE7FEE70025AA00002112F002FFA56312
:1049E000BDE8F0814CE6000810B5044690F854008C
:1049F000E26BC10709D1B4F8441049B1A1F57F4376
:104A0000FF3B1BD0491EA4F84410B4F84410A9B9C8
:104A10000AB1C10712D021461448FFF749F800F047
:104A200027F8216909B120468847616909B1204604
:104A300088472046BDE8104010F096BB216C4942E3
:104A40006163002A10D0C10702D1A16B49426163A2
:104A5000411C61F3000084F85400E16A606A6162FD
:104A6000E062206B2263E06310BD0000F8D40020F8
:104A700010B50A4C012084F8A40004F1AC00FEF744
:104A80007CFF0028D4F8A80003D0BDE8104019F03E
:104A90005ABFBDE8104019F031BF00004CD40020CF
:104AA0002DE9F0413E4D95F8A50038B15FF00000CA
:104AB00085F8A5003A48AC30074666E00120F7E7E4
:104AC000206D19F0CFFD616B0844606319F0D0FDD3
:104AD0002065002085F8A40094F8540095F8A510EE
:104AE000C0F340028A4256D061F3410084F854007A
:104AF000400720D4606B002843DB94F84E00C007C9
:104B000009D1A16939B120468847616A01446162CF
:104B1000E16A0844E06220461CF034F8E16809B11B
:104B20002046884794F8540040F0040084F854006C
:104B300020461BF063FF606B002822DB216B88425C
:104B400000DD6163216A20468847A16A0646B142BA
:104B50000DD0A662626812B131462068904795F880
:104B6000A40088B9A2682AB131462046904795F83A
:104B7000A40048B9D4E90C0181420CDB2046FFF7C0
:104B800033FF95F8A40030B13846FEF7F6FE040076
:104B900096D1BDE8F08121463846FEF700FFF6E7E2
:104BA0004CD4002070B5044640680D4608B1FFF7AC
:104BB000F9FF2268002A04D029462046BDE870404B
:104BC000104770BD70B50D6806460C46286838B1B0
:104BD000296AC90204D5206021463046FFF7F2FF5A
:104BE000214630462560BDE87040FFF7DBBF08F086
:104BF00054BC08F08ABC00002DE9F04F064693B083
:104C0000D6E90170804696F821B03568F0681190B9
:104C1000D6E906401090D6E904A00B900CA80AF043
:104C2000DBFE96F8220008B10020C4E0BAF1000FC4
:104C300005D0BBF1FD0F4FF0000066D28DE0BBF157
:104C4000FD0F4FF0000018D21DE000260DE000BF60
:104C500005EB860A04EB8600DAF8001000680CAA5F
:104C60000AF08BFCCAF80000761CBE42F0DB1198FB
:104C700005441098044409F1010081464045E4DBF5
:104C800013B0BDE8F08F81464045F9DA002612E006
:104C900004EB86000068020E12FB0BF1090A05EB1B
:104CA000860A61F31F60DAF800100CAA0AF065FCAE
:104CB000CAF80000761CBE42EADB11980544109841
:104CC000044409F10100DEE7002614E004EB86004D
:104CD0001AF806100068020E12FB01F1090A05EB32
:104CE000860B61F31F60DBF800100CAA0AF045FC8C
:104CF000CBF80000761CBE42E8DB11980B99054406
:104D000010988A44044409F1010081464045DBDBE8
:104D1000B6E7002617E000BF04EB86001AF806107D
:104D20000068020E12FB01F101FB0BF1090C61F3AB
:104D30001F6005EB8601079109680CAA0AF01DFCAB
:104D40000799761C0860BE42E6DB11980B99054472
:104D500010988A44044409F1010081464045D8DB9B
:104D60008EE7002019E000BF04EB8900BAF1000FC4
:104D7000016824D01AF809000B0E13FB00F202FBA5
:104D80000BF2100C60F31F6196F8222005EB8900EE
:104D90000CAB00F079FA09F101008146B842E3DB7F
:104DA000BAF1000F01D00B998A441198054410986C
:104DB00004440398401C03904045D2DB60E70A0E90
:104DC00012FB0BF0000ADDE72DE9F04F804687B0BB
:104DD000D8E90170814698F821B0D8F80040D8F899
:104DE0000C000290D8E906500190D8E904A0039085
:104DF00098F8220008B100203AE1BAF1000F05D07E
:104E0000BBF1FD0F4FF0000061D284E0BBF1FD0F5C
:104E10004FF0000018D21DE00026B0460CE000BFA5
:104E200005EB080034F81610C2780AF047FB24F8A6
:104E3000160008F10408761CBE42F1DB0298044417
:104E4000019805440AF1010082464845E4DB07B0B9
:104E5000BDE8F08F82464845F9DA0026B0460EE0FC
:104E600005EB0800C27812FB0BF10A0A34F81610A1
:104E70000AF024FB24F8160008F10408761CBE4250
:104E8000EEDB02980444019805440AF10100E1E7D1
:104E90000026B04611E000BF05EB08001AF8061026
:104EA000C27812FB01F10A0A34F816100AF006FB68
:104EB00024F8160008F10408761CBE42ECDB0298C8
:104EC0000399044401988A4405440BF10100834688
:104ED0004845DDDBBBE70026B04612E005EB0800E5
:104EE0001AF80620C17811FB02F101FB0BF10A0C44
:104EF00034F816100AF0E2FA24F8160008F1040853
:104F0000761CBE42EADB02980444019805440398EB
:104F100082440098401C00904845DCDB97E700265F
:104F20000096049496E000BF98F82200012822D051
:104F3000022857D003288AD1049800996A1830F8BB
:104F400016009178C30AC90813FB01F14909527888
:104F5000C902C0F34513920813FB02F2920901EB58
:104F6000421100F01F020098285CC00812FB00F0FC
:104F700001EB501024E0049800996A1830F81600EC
:104F80009178C30A03EBD1011F2900D31F214FF6EB
:104F9000FF7303EAC1215278C0F3451303EB920279
:104FA0003F2A00D33F2201EB421100F01F0200987C
:104FB00089B2285C02EBD0001F2800D31F200844D0
:104FC00080B2BAF1000F32D01AF80620BBF1FD0F03
:104FD00036D200992944C97812FB01F101FB0BF18B
:104FE0000A0C2DE00498009A2A4430F816009378B1
:104FF000C10AA1EBD301002900DC00214FF6FF73A9
:1050000003EAC1235278C0F34511A1EB92010029B4
:1050100000DC002100F01F02009803EB411189B26F
:10502000285CA2EBD0000028C9DC0020C7E700996B
:10503000BBF1FD0F2944CA7802D212FB0BF10A0A18
:1050400034F816100AF002FA24F816000098001D31
:10505000761C0090BE42FFF667AF0298BAF1000FCF
:1050600004440198054401D0039882440598401CEB
:1050700005904845FFF653AFE9E600002DE9F34FF0
:10508000064685B0D6E90170804696F821B03568AD
:10509000F0680190D6E906400090D6E904900390AC
:1050A00096F8220008B10020BCE0B9F1000F05D04D
:1050B000BBF1FD0F4FF000005DD280E0BBF1FD0FB2
:1050C0004FF0000016D21BE04FF000094E4609E0F9
:1050D00004EB860005EB0901C2780AF028FA06996C
:1050E000761C8944BE42F3DB0198054400980444D1
:1050F0000AF1010082464045E6DB07B0BDE8F08FCB
:1051000082464045F9DA4FF000094E460DE000BFF7
:1051100004EB8600C27812FB0BF10A0A05EB0901C9
:105120000AF005FA0699761C8944BE42F0DB019824
:105130000544009804440AF10100E1E74FF0000A39
:1051400056460EE004EB860019F80610C27812FBF2
:1051500001F10A0A05EB0A010AF0E9F90699761C41
:105160008A44BE42EEDB01980399054400988944C5
:1051700004440BF1010083464045DFDBBDE700BF7F
:105180004FF0000A564610E004EB860019F80610AE
:10519000C27812FB01F101FB0BF10A0C05EB0A01CD
:1051A0000AF0C5F90699761C8A44BE42ECDB0198E8
:1051B000039905440098894404440298401C0290D5
:1051C0004045DDDB99E7002002901DE004EB8A00FA
:1051D000B9F1000F016829D0029A0B0E19F80200EC
:1051E00013FB00F000FB0BF05FEA104060F31F615F
:1051F000029896F82220284400F099F8069902981F
:10520000084402900AF101008246B842DEDBB9F19F
:10521000000F01D003998944019805440098044483
:105220000498401C04904045CDDB66E70A0E12FB53
:105230000BF0000ADAE7000010B5416C96B00446A6
:10524000B1B1684607F0A2FC0C480021CDE900404E
:10525000606C0C9001200991C107CDE90A10084843
:10526000089008480490684607F018FD16B010BD75
:1052700016B0BDE810401AF045BD00007DFD0108E4
:105280004DCC00087FFD01082DE9F041174604468A
:10529000C1F30746C1F30725CAB2012F14D0022F6C
:1052A00031D0032F2DD1A77817FB06F6360A66F307
:1052B0001740667816FB05F52D0A65F30F20257853
:1052C00015FB02F2120A12E0A7783E44FF2E00D32B
:1052D000FF2666F3174066783544FF2D00D3FF257F
:1052E00065F30F2025782A44FF2A00D3FF2262F3BA
:1052F0000700090E61F31F6021681A460AF03DF9A4
:105300002060BDE8F081A778BE1B002E00DC0026DF
:1053100066F317406678751B002D00DC002565F3E9
:105320000F202578AA1A002AE1DC0022DFE738B531
:1053300000230093CDB2C1F30724C1F30743012A30
:1053400014D0022A2DD0032A2AD1027812FB05F2AA
:10535000120A8DF80020427812FB04F2120A8DF82E
:105360000120827812FB03F2120A12E002782A442A
:10537000FF2A00D3FF228DF8002042782244FF2A22
:1053800000D3FF228DF8012082781A44FF2A00D32F
:10539000FF228DF802200A0E014668460AF0C7F87F
:1053A00038BD0278521B002A00DC00228DF8002054
:1053B0004278121B002A00DC00228DF8012082783E
:1053C000D21A002AE5DC0022E3E710B50446406863
:1053D00082080AD0496821F00301091D0844606071
:1053E000204600F042F8204610BDFEE7406810312C
:1053F00020F00300884201D301207047002070474D
:105400002DE9FC47054648680C4620F0030001AA38
:10541000694619F06BFCDDE9007005EBC71101EB83
:1054200080098046D9F83C0060B164B1C4E9020546
:1054300004F10806C46030460421FFF78DFA864265
:1054400002D0FEE7FEE7FEE7C9F83C4001202969EB
:1054500000FA07F21143296105EB870100FA08F011
:105460004A6902434A61BDE8FC8710B5044600F072
:1054700087F8046010BD2DE9FC4706464FF0000098
:105480000D0000900746019042D00C46E9460DF110
:105490000408802907D3084620F020FA411F012084
:1054A0008840401E044442464946204619F01EFCEE
:1054B000009C0A2C2CDA06EB8400019A40694FF01C
:1054C000FF3101FA02F210400CD1641C3069A14096
:1054D00008401DD020F0FAF90446009006EB800049
:1054E000406978B120F0F2F9034606EBC41101904F
:1054F00001EB8000C76B5FB1786820F00300A84221
:1055000001D2FEE7FEE739463046009A1BF0B2FAB8
:105510003846BDE8FC8710B50446FFF7A6FF416892
:1055200041F002014160606840F00100606010BD20
:1055300010B5044600F024F8416821F002014160F2
:10554000606820F00100606010BD70B506460D4631
:10555000084600F015F8040010D02079C0070BD0E1
:10556000686880080BD02146304600F03CF82146A0
:105570002846FFF72AFF0546284670BDFEE7FEE7EE
:10558000426800F1080122F00300001F084491085E
:1055900000D1FEE7704770B506460C004FF00000E2
:1055A0001ED0F2B120791546C0071BD01146204607
:1055B000FFF71CFF78B12946204600F025F8054684
:1055C0002046FFF752FF6868294640F002006860F5
:1055D0003046FFF715FF2046FFF7AAFF04F1080049
:1055E00070BDFEE7FEE77CB5054648680C4620F036
:1055F000030001AA694619F079FBDDE90023214681
:1056000028461BF037FA7CBD2DE9F0410D460446D3
:1056100000F10801281F0E18606806F1080720F045
:105620000300401BA0F1040838460421FFF794F959
:10563000874200D0FEE7606820F0030108EB050018
:10564000001D814200D0FEE7307900F0030040EAFF
:105650000800706020F003000C2800D2FEE72079DB
:1056600000F00300284360603046FFF754FF3046E7
:10567000BDE8F08138B5044610F0CAFC054610F0CC
:1056800002FD0028204605D0616C216414F02FFF34
:10569000012038BD0FF0F0F8002820461ED00EF093
:1056A0009DFFD4E9100181420CD06064206C009011
:1056B0006A461E21204615F090FF0128E9D12046B8
:1056C00014F015FF284610F0E9FC0428E0D120462C
:1056D00013F06CFB002110F0DBF8D9E70FF02AF98A
:1056E000D6E7002802D0C01C20F0030070470FF05E
:1056F0003BBDC01C11F044BF2DE9F04F0C4685B0F6
:105700000546002113F07CFA58B32146284600F0E4
:1057100095FA2146284600F06BF80021284614F03F
:105720005DF983460021284614F0A3F90490002176
:10573000284614F030F801281BD000270021284605
:1057400014F00EFB80460021284614F0A5F8DFF87F
:105750009C900646C8450ED1688D00050BD40120EB
:105760000AE005B02046BDE8F04F2022002112F0EB
:1057700038B80127E2E700208046284613F0DDFA1A
:10578000824628460021822214F09DF9C2B2236984
:10579000A1682068CDE90031CDE902075B464146AA
:1057A000504605F097FEA0614E4504D1688D400536
:1057B00001D4012600E00026284613F0ADFA074682
:1057C00028460021832214F07EF9C2B260690025C8
:1057D0006368E1688DE82B0031463846049B05F08C
:1057E00079FEE06105B0BDE8F08F0000D107002030
:1057F0002DE9F34F81B00C46019805F03AF9050008
:105800004FF000091ED1019813F020FB05F031F98B
:10581000070074D0019805F030F98146019805F031
:1058200030F980468600301D11F0AAFE054632464A
:1058300007EB890111F01AFF6FF0604145F828105D
:105840004FF00109019813F078FA8346284600F0DA
:1058500021FF2061800011F093FE2060206980000C
:1058600011F08EFE0026DFF838A1A06038E055F870
:105870002610DFF83081514531D100271FE039462D
:10588000019813F0BDF94849009014F03CFBA8B909
:10589000009805F0F6F8012810D1009805F0EDF811
:1058A000B0420BD1009814F0E2FA4146404501DACB
:1058B000084602E0009814F0DAFA80467F1C01984E
:1058C00013F0DCF9B842DAD8B8F1000F03DBA168B5
:1058D00041F8268003E0A168002041F82600761CEC
:1058E0002069B042C3D8DFF8B880002608F101086B
:1058F000C8F100035246374630469A4614E04DE060
:1059000055F82010414503DB731803EB0A060AE043
:10591000914204D1A16851F820100F4403E0A3681C
:105920000F4443F82010401C21698142E8D800212F
:10593000019814F053F82169C1F1010200FB02B093
:10594000C11B00D500210022C4464FF0FF33104692
:10595000D0460EE055F82070674509DB07EB0802DA
:1059600001FB02F3B3FBF6F3A76847F820300346C8
:10597000401C27698742EDD8002B07DBB01A48434B
:10598000B0FBF6F0081AA16841F82300B9F1000F46
:1059900004D02846BDE8FE4F0FF0E6BBBDE8FE8F01
:1059A0009AFFFF1F010000E0010006002DE9FC5FE7
:1059B000054613F09BFB8346A86808B10021C1612E
:1059C0000021284614F03CF901900021284614F0EB
:1059D000AAF88246284613F099FE014601982F4CFA
:1059E000014401EB0A07284613F048F980460026D7
:1059F0003AE0A868DFF8A4902949006850F826002A
:105A0000009014F080FA70BB009814F0D1FDE8BB50
:105A10000021009813F09EFEC0B3012837D0022861
:105A200035D0032833D00021009814F0A5F968B9C7
:105A30000098016A8069091A0198084400F1010977
:105A40000021009813F05EFF484481460021009831
:105A500013F03DFF4844A04205DB0021009813F0FD
:105A600036FF00EB0904761C4645C2D3A86810B186
:105A7000CBF10001C1616FF06040C44203D004EB80
:105A80000A00B84200DA3846BDE8FC9FFFE70098FC
:105A9000A969006A401A401CD7E70000010000E035
:105AA000010004002DE9FE4F054613F019FB02909A
:105AB000A86808B1002181610021284614F091F8FE
:105AC00000900021284614F05DF88346284613F024
:105AD0002BFE00EB0B010098DFF8589101EB00085A
