:020000040800F2
:10000000F00800202902000883180008671700087C
:100010008118000863040008E51C000800000000C7
:10002000000000000000000000000000CF180008E1
:100030006504000800000000CD180008D118000871
:10004000430200084302000843020008430200087C
:10005000430200084302000843020008430200086C
:10006000430200084302000843020008430200085C
:10007000430200084302000843020008430200084C
:10008000430200084302000843020008430200083C
:10009000430200084302000843020008430200082C
:1000A000430200084302000843020008430200081C
:1000B000430200084302000843020008430200080C
:1000C00043020008430200084302000843020008FC
:1000D00043020008C11C0008CD1C0008D91C000800
:1000E00043020008430200084302000843020008DC
:1000F000430200087919000843020008430200087F
:1001000043020008430200084302000843020008BB
:1001100043020008430200084302000843020008AB
:10012000430200084302000843020008430200089B
:10013000430200084302000843020008430200088B
:10014000430200084302000843020008430200087B
:10015000430200084302000843020008430200086B
:10016000430200084302000843020008430200085B
:100170004302000843020008430200080000000098
:10018000430200084302000800F002F800F03CF8C7
:100190000AA090E8000C82448344AAF10107DA45E2
:1001A00001D100F031F8AFF2090EBAE80F0013F0F8
:1001B000010F18BFFB1A43F001031847081C000089
:1001C000281C0000103A24BF78C878C1FAD852071A
:1001D00024BF30C830C144BF04680C6070470000C1
:1001E0000023002400250026103A28BF78C1FBD840
:1001F000520728BF30C148BF0B6070471FB501F0E0
:10020000CFFD1FBD10B510BD00F0F1F81146FFF78E
:10021000F5FF01F0A1FD00F00FF903B4FFF7F2FFC5
:1002200003BC00F017F9000009488047094800475F
:10023000FEE7FEE7FEE7FEE7FEE7FEE7FEE7FEE796
:10024000FEE7FEE704480549054A064B70470000F3
:100250006919000889010008F0020020F008002058
:10026000F0040020F004002053EA020C00F0698042
:100270002DE9F04B4FF00006002B1FBFB3FA83F5BA
:1002800003FA05F424FA05F65E4012BF1643B2FAEB
:1002900082F502FA05F4C5F120051EBF22FA05FC1D
:1002A00044EA0C04203556EA044C4FEA144418BFC3
:1002B000641C4FF000084FF00009904271EB030CF2
:1002C00039D3002919BFB1FA81F701FA07F6B0FA5C
:1002D00080F700FA07F6C7F120071EBF20FA07FCD7
:1002E00046EA0C062037B6FBF4FCA7EB0507103FE7
:1002F00007F01F0BCBF120060CFA0BFB2CFA06F6CD
:1003000044BFB3460026202FA4BF5E464FF0000B2B
:100310005BEA060C08BF4FF0010B19EB0B09ABFBB6
:10032000027C48EB0608C01B06FB02CC0BFB03CC8F
:1003300071EB0C01C1E70B46024641464846BDE859
:10034000F08B13B54FF000004FF00001AFF30080C9
:10035000BDE81C4070474FF000020429C0F0128035
:1003600010F0030C00F01B80CCF1040CBCF1020F68
:1003700018BF00F8012BA8BF20F8022BA1EB0C013D
:1003800000F00DB85FEAC17C24BF00F8012B00F833
:10039000012B48BF00F8012B70474FF0000200B559
:1003A000134694469646203922BFA0E80C50A0E898
:1003B0000C50B1F12001BFF4F7AF090728BFA0E846
:1003C0000C5048BF0CC05DF804EB890028BF40F812
:1003D000042B08BF704748BF20F8022B11F0804F54
:1003E00018BF00F8012B704770477047704775467B
:1003F00000F02CF8AE4605006946534620F0070091
:10040000854618B020B5FFF71DFFBDE820404FF02E
:1004100000064FF000074FF000084FF0000B21F0EE
:100420000701AC46ACE8C009ACE8C009ACE8C009BB
:10043000ACE8C0098D46704710B50446AFF30080A4
:100440002046BDE81040FFF7E8BE000000487047B6
:100450008C02002001491820ABBEFEE726000200F6
:100460007047FEE7704772B6FEE70000064A136861
:1004700023F44073136013681360136843F001039F
:100480001360017070470000103C0240094910B52C
:100490000C6824F440740C600C6844F440740C60E4
:1004A0000C6844F001040C600260BFF36F8F43607E
:1004B00010BD0000103C0240074A136823F440734B
:1004C0001360136843F480731360136843F00103EF
:1004D0001360018070470000103C0240074A136817
:1004E00023F440731360136843F4007313601368BC
:1004F00043F001031360016070470000103C0240AC
:1005000017490868C206174805D5C26942F01002AB
:10051000C26110220A600A68920605D5C26942F0DB
:100520000802C26120220A600A68520605D5C26923
:1005300042F00402C26140220A600A68120605D530
:10054000C26942F00202C26180220A600A68920710
:1005500005D5C26942F02002C261022008607047DE
:100560000C3C02404001002070B5114904460020B7
:10057000C86100F0F9F906460E4D09E0601C07D08D
:1005800024B100F0F1F9801BA04201D9032070BD15
:100590002868C003F2D42868C00701D00120286071
:1005A000286810F0F200F2D0FFF7AAFF012070BD1A
:1005B000400100200C3C024010B5040002D06079DC
:1005C00010B106E0012010BD00202071204600F08F
:1005D00005F801206071002010BD000008B500681A
:1005E0000649884208D10648016841F480510160FB
:1005F000006800F48050009008BD00000030024008
:10060000303802402DE9F0410446876D00F0ACF926
:10061000064694F835000025022806D08020606543
:1006200084F834500120BDE8F0812068016821F091
:10063000160101602068416921F080014161206C50
:1006400008B9A06C20B12068016821F008010160A0
:100650002068016821F0010101600CE000F084F9DC
:10066000801B052807D920206065032084F8350009
:1006700084F83450D7E720680068C007EED194F8BA
:100680005C103F208840B860012084F8350084F871
:1006900034500020C7E790F83510022903D080219C
:1006A000416501207047052180F835100068016818
:1006B00021F001010160002070470000034801683B
:1006C00041F000410160002070470000103C0240F2
:1006D0002DE9F0471B4E05461446307E1F468946DD
:1006E000012808D0012030764CF250384046FFF700
:1006F0003BFF18B114E00220BDE8F0879DB1012D49
:1007000016D0022D19D022463B464846FFF7BEFEC2
:100710004046FFF729FF0C490A6822F001020A60EF
:1007200000213176E8E7E1B24846FFF79FFEEFE7A8
:10073000A1B24846FFF7C0FEEAE721464846FFF768
:10074000CDFEE5E740010020103C024007490020B3
:100750000A68002A09DA054A054B0C3A1360054B72
:1007600013600968002900DA01207047103C02403C
:1007700023016745AB89EFCD2DE9F84FDFF8BCA128
:100780000022012503264FF00F090AF1040BAAF1FC
:10079000040E00BF0B6805FA02F42340A34270D197
:1007A0000F7907F00307012F01D0022F16D18768B8
:1007B0004FEA420806FA08FC27EA0C07D1F80CC0F9
:1007C0000CFA08FC4CEA070CC0F808C04768A743BD
:1007D0000C79C4F3001494403C4344600C79E44326
:1007E000A4070AD0C4684FEA420C06FA0CF7BC43CF
:1007F0008F6807FA0CF72743C7600C7904F00304ED
:10080000022C12D1D40800EB840CDCF820405707EE
:10081000FF0E09FA07F824EA0804D1F8108008FA54
:1008200007F848EA0408CCF8208004684FEA420C34
:1008300006FA0CF7BC430F7907F0030707FA0CF729
:10084000274307604C6814F4403F70D03C4C276845
:1008500047F480472760246822F0030704F48044AB
:100860000094384C07EB040CDCF8084897074FEA73
:10087000177809FA08F7BC43334FB84202D1002772
:1008800024E054E0314FB84201D101271EE0304F3F
:10089000B84201D1022719E02E4FB84201D10327F7
:1008A00014E02D4FB84201D104270FE02B4FB8427E
:1008B00001D105270AE02A4FB84201D1062705E0F9
:1008C000284FB84201D1072700E0082707FA08F7A8
:1008D0002743CCF80878DAF800405746D1F804C02E
:1008E0009C435FEACC2C00D51C433C60DBF8004005
:1008F0005F46D1F804C09C435FEA8C2C00D51C43B2
:100900003C60DEF800407746D1F804C09C435FEAC3
:100910008C3C00D51C433C60084F083F3C68D1F834
:1009200004C09C435FEACC3C00D51C433C60521C95
:10093000102AFFF42FAFBDE8F88F0000083C0140FB
:1009400044380240003001400000024000040240F0
:1009500000080240000C0240001002400014024057
:1009600000180240001C02400148806870470000E7
:1009700008000020024881680278114481607047B5
:10098000080000200B4810B5016841F400710160B7
:10099000016841F480610160016841F48071016087
:1009A000032000F09BF80F2000F006F800F050F84C
:1009B000002010BD003C024030B505461F4887B0FE
:1009C0000024016841F480710160006806A900F408
:1009D0008070009001A800F02DF90498A8B100F0F3
:1009E00049F940001649174AB0FBF1F11648491E73
:1009F000026040F2E732C0E90324C0E901148461D7
:100A000000F042FB040003D015E000F033F9E9E701
:100A10000D4800F067FB04000DD12D2000F030F8E8
:100A2000102D07D2002229462D2000F037F8074864
:100A3000056000E0012407B0204630BD4038024088
:100A400040420F0000200040F80000200C00002071
:100A50000A4808B5016841F480410160006800F46B
:100A6000804000900548001F016841F080510160FE
:100A7000006800F08050009008BD0000443802403B
:100A8000002809DB00F01F0201219140400980008D
:100A900000F1E020C0F8001170470000F0B40E4BE8
:100AA0001B680C46C3F30223C3F10705042D00D9CC
:100AB0000425191D072901D2002300E0DB1E0126B1
:100AC00006FA05F1491E214099409E40761E1640C7
:100AD0003143F0BC01F024B90CED00E0064900F010
:100AE000070208684FF6FF03184040EA0220034A55
:100AF00010430860704700000CED00E00000FA05AC
:100B00002DE9F0470E46050065D0DFF81481D8F8CE
:100B10000000F7B200F00700B04207D288F800707A
:100B2000D8F8000000F00700B04254D128683D4CCE
:100B3000810712D5400703D5206840F4E0502060BB
:100B40002878000703D5206840F4604020602068C2
:100B5000A96820F0F000084320602878C0072DD055
:100B6000304968680839012812D0022813D00328B8
:100B700011D00968890700292DDA216821F00301C5
:100B800001432160FFF7F0FE814641F2883A0EE012
:100B900009688903EFE709688901ECE7FFF7E4FEDC
:100BA000A0EB0901514502D90320BDE8F087206878
:100BB000696800F00C00B0EB810FEFD1D8F800109D
:100BC000404601F00701B14207D90770006800F004
:100BD0000700B04201D00120E7E72878400705D59B
:100BE0002068E96820F4E050084320602878000776
:100BF00006D52068296920F4604040EAC1002060E1
:100C000000F058F82168084AC1F30311515CC8404C
:100C10000649086006480068FFF7CEFE0020C4E7DA
:100C2000003C024008380240AA1D000814000020C1
:100C30000C0000200F2202600C4A136803F003032B
:100C40004360136803F0F0038360136803F4E05318
:100C5000C36012684FF4E05303EAD2020261044811
:100C6000006800F007000860704700000838024084
:100C7000003C02400448054900680968044AC1F381
:100C80008221515CC840704714000020083802409F
:100C9000BA1D00080448054900680968044AC1F300
:100CA0004231515CC84070471400002008380240AF
:100CB000BA1D0008154810B5006810F00C02144861
:100CC00013D01449042A0FD0082A0ED10F4C241F28
:100CD0002268236802F03F025B0207D52068C0F358
:100CE0008810A0FB010106E0084610BD2168C1F391
:100CF0008811A1FB00010023FFF7B6FA2168C1F3B8
:100D00000141491C4900B0FBF1F010BD0838024018
:100D10000024F40040787D012DE9F84F04006ED0E6
:100D20002078DFF84C93C007A9F104054AD009F1F7
:100D300004000168C1F38101012908D00068C0F3F3
:100D4000810002280AD1D9F80000400206D528689F
:100D5000800337D560680028E1D033E06068B0F5E3
:100D6000803F10D0B0F5A02F286810D020F480303C
:100D70002860286820F4802028606068A8B1FFF708
:100D8000F3FD06460DE0286840F48030F4E740F4B7
:100D900080202860F7E700BFFFF7E6FD801B64288E
:100DA00073D828688003F7D50CE0FFF7DDFD064611
:100DB00005E000BFFFF7D8FD801B6428F0D8286845
:100DC0008003F7D42078DFF8AC8280074FF0000A68
:100DD0003ED5A748001D016811F00C0F08D000682F
:100DE000C0F3810002280BD1D9F80000400207D4DB
:100DF0002868800716D5E068012800D112E033E1A9
:100E0000E068B8B10120C8F80000FFF7ADFD064664
:100E100005E000BFFFF7A8FD801B0228C0D82868A6
:100E20008007F7D52868216920F0F80040EAC10062
:100E300028600DE0C8F800A0FFF796FD064604E024
:100E4000FFF792FD801B02281FD828688007F7D47F
:100E50002078000722D5864F87486169703771B1C5
:100E600001210160FFF780FD064604E0FFF77CFDED
:100E7000801B022809D838688007F7D50EE0C0F833
:100E800000A0FFF771FD064605E082E0FFF76CFD6C
:100E9000801B02287DD838688007F7D42078400767
:100EA00068D5DFF8CCB100270BF13C0BDBF8000074
:100EB000C0000BD4DBF8001041F08051CBF80010DB
:100EC000DBF80000012700F0805000906B4E306886
:100ED000C00510D4306840F480703060FFF744FDE6
:100EE000009005E0FFF740FD0099401A022850D815
:100EF0003068C005F6D55E4EA0686C3601280FD06C
:100F00000528306810D020F001003060306820F0F3
:100F100004003060A068B8B1FFF726FD00900FE034
:100F2000306840F00100F4E740F004003060F7E77B
:100F3000FFF71AFD0099411A41F28830814266D8C4
:100F400030688007F4D50EE0FFF70EFD009007E053
:100F5000FFF70AFD0099411A41F28830814256D8C4
:100F600030688007F4D42FB1DBF8001021F08051F5
:100F7000CBF80010A069C8B33D49091D0968C1F349
:100F8000810102294AD00228504607D0C8F86000E3
:100F900000E03CE0FFF7E8FC04463BE04746C8F8C9
:100FA0006000FFF7E1FC064605E000BFFFF7DCFC50
:100FB000801B02282BD828688001F7D4D4E90701C8
:100FC0000843A16A2E4A490802EB0141626A41EADC
:100FD0008211084394F82C1040EA0161C9F800100E
:100FE00001203866FFF7C0FC044606E03EE000BF83
:100FF000FFF7BAFC001B022809D828688001F7D542
:1010000034E000BFFFF7B0FC001B022802D9032028
:10101000BDE8F88F28688001F4D427E00128F7D0D4
:10102000D9F80000E26900F4800191421CD1226AE3
:1010300000F03F01914217D147F6C071626A01404A
:10104000B1EB821F10D1A26A4FF0FF3300F44031A0
:1010500003EB5202B1EB024F06D194F82C1000F0D2
:101060007060B0EB016F01D00120D1E70020CFE725
:101070000438024000004742800E474200700040A2
:101080000000FFFF7047704710B5040003D094F8CC
:101090003D0010B107E0012010BD002084F83C00A5
:1010A000204600F01EF8022084F83D00211D206833
:1010B00000F068FC012084F8460084F83E0084F8C3
:1010C0003F0084F8400084F8410084F8420084F82E
:1010D000430084F8440084F8450084F83D00002073
:1010E00010BD704790F83D10012901D001207047D4
:1010F000022180F83D100168CA6842F00102CA600E
:1011000000681149884214D0B0F1804F11D00F49C6
:1011100088420ED00E4988420BD00E49884208D032
:101120000D49884205D00D49884202D00C498842B9
:1011300004D1816801F00701062903D0016841F05C
:1011400001010160002070470000014000040040E0
:1011500000080040000C0040000401400040014035
:101160000018004070472DE9F04104460068C66849
:1011700005694FF00007A90713D5B10711D5F91E6E
:10118000016101202077206880698007204602D015
:10119000FFF7E8FF04E000F07EF8204600F07CF85E
:1011A0002777680716D5700714D521686FF00400FB
:1011B0000861022020772068806910F4407F204673
:1011C00002D0FFF7CFFF04E000F065F8204600F002
:1011D00063F82777280715D5300713D521686FF0F6
:1011E00008000861042020772068C0698007204635
:1011F00002D0FFF7B7FF04E000F04DF8204600F002
:101200004BF82777E80616D5F00614D521686FF05D
:1012100010000861082020772068C06910F4407F22
:10122000204602D0FFF79EFF04E000F034F820468D
:1012300000F032F82777E80708D0F00706D02168D9
:101240006FF001000861204600F028F8280608D554
:10125000300606D521686FF0800008612046FFF750
:1012600011FF680608D5700606D521686FF04000AA
:101270000861204600F01CF8A8060AD5B00608D57B
:1012800021686FF0200008612046BDE8F041FFF7BB
:10129000FABEBDE8F081704770470000006803495E
:1012A000884201D1FFF766BB704700000020004074
:1012B0007047704770470000F8B501680446086839
:1012C000CA684B6910F00F0F4FF0000559D003F0BA
:1012D000010602F49077374365D0C10705D0D105E8
:1012E00003D5616C41F001016164410705D5D9075F
:1012F00003D0616C41F002016164810705D5D90713
:1013000003D0616C41F004016164010707D502F06C
:101310002001314303D0616C41F008016164616CCC
:1013200000293AD0800604D5900602D5204600F068
:10133000C4FB20684069616CC0F38010090700D4C9
:1013400060B3204600F092FB20684069400621D53A
:101350002068143050E8001F21F0400140E80012DE
:10136000002AF5D1E06BA8B16E490165E06BFFF78B
:1013700092F9002811D0E06B016D01B0BDE8F0409A
:10138000084783060FD593060DD52046BDE8F840E3
:1013900000F093BB2046FFF78DFFF8BD2046FFF716
:1013A00089FF6564F8BD266B2023012E7DD1C6061A
:1013B0007BD5D60679D508684868009048694FF013
:1013C0000206400641D5E16B086840680004000C45
:1013D000E8D0A28D8242E5D9E085C869B0F5807F6A
:1013E0002DD020680C3050E8001F21F4807140E8B7
:1013F0000012002AF5D12068143050E8001F21F0B7
:10140000010140E80012002AF5D12068143050E8AC
:10141000001F21F0400140E80012002AF5D184F8B5
:101420004230256320680C3050E8001F21F0100185
:1014300040E80012002AF5D1E06BFFF7E3F866639D
:10144000A08DE18D401A81B22AE0A08DE18D401A75
:1014500081B2E08D0028A5D00029A3D022680C32EB
:1014600052E8000F20F4907042E80007002FF5D1F9
:101470002068143050E8002F22F0010240E80027D5
:10148000002FF5D184F84230256320680C3050E8F5
:10149000002F22F0100240E80023002BF5D16663F4
:1014A0002046FFF706FFF8BDFFE705062BD515061A
:1014B00029D594F841002128F5D1A068B0F5805FC6
:1014C00001D12069B0B1206A411C216221680078F5
:1014D0004860E08C401E0004000CE084E3D12068EA
:1014E000C16821F08001C1602068C16841F04001FD
:1014F000C160D8E7206A0088C0F308004860206A0D
:10150000801C2062E5E74006CDD55006CBD5CA68E1
:10151000204622F04002CA6084F8413000F022F9EF
:10152000C1E700005D1A000870B5040004D094F80B
:101530004100002510B106E0012070BD84F8405044
:10154000204600F023F8242084F841002068C16878
:1015500021F40051C160204600F010FB20680169B1
:1015600021F4904101612068416921F02A01416123
:101570002068C16841F40051C1606564202084F88E
:10158000410084F842006563002070BDF0B587B06B
:10159000044614216846FEF700FF3D4B27680022F1
:1015A0003C490224032507263B489F4221D1394B61
:1015B00014331F6847F010071F601B6803F0100307
:1015C00005930B6843F001030B60096802AB01F05F
:1015D000010105916902CDE9001483E864006946C0
:1015E000FFF7CAF8002211462520FFF757FA2520F9
:1015F00024E0284BDFF8A4C01033674522D11F68D0
:1016000047F400371F601B6803F4003305930B6831
:1016100043F001030B60096802AF01F0010105917D
:101620000C21CDE9001487E864006946FFF7A4F8AF
:10163000002211462620FFF731FA2620FFF720FA74
:1016400007B0F0BD16488742FAD1186840F48020F0
:101650001860186800F480200590086840F00200C7
:101660000860086802AF00F0020005904FF4406087
:10167000CDE9000487E8640069460A48FFF77CF872
:10168000002211462720FFF709FA2720D6E700009D
:101690000010014030380240000002400044004089
:1016A000004800400004024090F84230202B01D056
:1016B0000220704721B11AB10023036300F0E4BA9D
:1016C000012070472DE9F0418046006892B04168E2
:1016D000224C214D20782954401CC1B22170482948
:1016E00031D30020A1F148022BE02B5CAB2B27D19A
:1016F0002B185B78CD2B23D10B1A482B20DB2844E9
:10170000694600F0BFF800264FF4967790B99DF82F
:1017100000001349402201EB80100DF1010100F09F
:10172000E2FA38B96068401C60606068B84201D372
:1017300000F006FB267039460748FEF70CFE02E073
:10174000401C9042D1DD207812B029184046BDE8F7
:10175000F0410122FFF7A8BF60010020180000201F
:10176000000002087047FEE7074910B50548086009
:101770000846FEF721FF002803D0BDE81040FEF721
:1017800072BE10BD0030024000000020114808B5B4
:10179000016841F004010160016801F00401009159
:1017A000016841F080010160016801F08001009151
:1017B000016841F001010160016801F0010100913F
:1017C000016841F002010160006800F00200009031
:1017D00008BD0000303802400C4810B50A490160CD
:1017E0004FF4E1314160002181600C22C160C0E909
:1017F00004128161C161FFF797FE002803D0BDE8A4
:101800001040FEF730BE10BD001001402000002047
:101810000C4810B50A4901604FF4E13141600021E4
:1018200081600C22C160C0E904128161C161FFF7CF
:101830007BFE002803D0BDE81040FEF714BE10BDAB
:1018400000440040680000200C4810B50A490160BF
:101850004FF4E1314160002181600C22C160C0E998
:1018600004128161C161FFF75FFE002803D0BDE86B
:101870001040FEF7F8BD10BD00480040B000002049
:10188000FEE7FEE710B50278AB2A02D14278CD2AF6
:1018900001D0012010BD428852BA0A70002283187C
:1018A0008C181B79521C6370402AF8DB0021491CFC
:1018B0004029FCDB90F84610DC2903D190F8470062
:1018C000BA2801D0042010BD002010BD7047704719
:1018D0007047000030B593B030216846FEF75DFDDB
:1018E00014210CA8FEF759FD1D480025016841F0A0
:1018F00080510160006800F0805011901948016823
:1019000041F4804101600068022400F4804011909D
:101910000120039010200490009406940820CDE943
:101920000750A820CDE9090404200B906846FFF772
:10193000F3F908B172B6FEE70CA90F2081E8310077
:101940004FF4A0500F904FF48050109005210CA838
:10195000FFF7D6F8002801D072B6FEE713B030BD0D
:1019600040380240007000400248016841F47001B4
:101970000160704788ED00E00148FFF7F4BB00000C
:10198000F8000020F0B50268294C2A4D2A4E2B4F52
:101990002B4B4FF0804CA04209D0604507D0A842A5
:1019A00005D0B04203D0B84201D0984204D122F011
:1019B000700E4A6842EA0E02A0421BD0604519D060
:1019C000A84217D0B04215D0B84213D0984211D0D7
:1019D0001C4DA8420ED01C4DA8420BD01B4DA84256
:1019E00008D01B4DA84205D01A4DA84202D01A4D6E
:1019F000A84203D122F44075CA682A434D6922F0F7
:101A000080022A4302608A68C2620A688262A04237
:101A100001D0984201D10969016301214161016945
:101A2000C90703D0016921F001010161F0BD000087
:101A3000000001400004004000080040000C00408D
:101A400000040140004001400044014000480140C2
:101A500000180040001C00400020004010B5806BC2
:101A60000021C185C184FFF725FC10BD01680C3140
:101A700051E8002F22F4907241E80023002BF5D1A9
:101A80000168143151E8002F22F0010241E80023DF
:101A9000002BF5D1016B012909D101680C3151E806
:101AA000002F22F0100241E80023002BF5D1202165
:101AB00080F8421000210163704708B590F8421089
:101AC000222901D0022008BD82684FF480539A4237
:101AD00001D1016921B1816A9A421BD04AB10AE061
:101AE0000268816A5268C2F308020A80816A891C0E
:101AF00008E0026972B10268526802F07F020A705F
:101B0000816A491C8162C18D491E0904090CC18585
:101B100003D01BE002685268F1E70168CA6822F04E
:101B20002002CA600168CA6822F48072CA60016833
:101B30004A6922F001024A61202180F84210002106
:101B40004163026B012A03D0FFF7BCFD002008BDF2
:101B5000016301680C3151E8002F22F0100241E8C6
:101B60000023002BF5D101680A68D20602D50A6865
:101B700049680091818DFFF79CFBE7E770B504464B
:101B800000680169E26821F4405111430161216953
:101B9000A068E26908436169114308432168CA6883
:101BA00049F20C639A430243CA6020684169A26902
:101BB00021F440711143416131492068884202D0CB
:101BC0003049884202D1FFF765F801E0FFF752F88B
:101BD000E2690023192164253226B2F5004F6268BC
:101BE00028D0A0FB0101930F9200FEF73DFB0146B8
:101BF000B0FBF5F06FF01802504301EB800006EBEC
:101C00000010B0FBF5F000F0F002B1FBF5F002EBD4
:101C10000012B1FBF5F06FF01803584301EB8000A0
:101C200006EB0010B0FBF5F000F00F002168104447
:101C3000886070BDA0FB010192185B41FEF714FBA8
:101C40000146B0FBF5F00201B1FBF5F06FF01803AF
:101C5000584301EB800006EBC000B0FBF5F000F04C
:101C6000F80002EB4002B1FBF5F0584301EB8000B5
:101C700006EBC000B0FBF5F000F00700D6E700006F
:101C8000001001400014014081628285C28500215C
:101C90004164222180F84210016921B10168CA68BB
:101CA00042F48072CA6001684A6942F001024A61E6
:101CB0000068C16841F02001C16000207047000049
:101CC0000148FFF7F9BA0000200000200148FFF7A3
:101CD000F3BA0000680000200148FFF7EDBA0000E9
:101CE000B0000020FEE72DE9F0410D4604468718BC
:101CF000FEF72CFD0EE00023214602202A68FEF7A5
:101D0000E7FC060004D0FEF7D9FC3046BDE8F081C0
:101D1000241D2D1DBC42EED3FEF7D0FC0020F5E7BC
:101D20000907090E002804DB00F1E02080F8001408
:101D3000704700F00F0000F1E02080F8141D70479C
:101D400004494868421C04D0096881F3088872B6C7
:101D50000047FEE70000010808B5FEF713FEFFF795
:101D6000B9FDFFF713FDFFF7FFFCFFF751FDFFF78C
:101D700033FDFFF769FD07A0012200680090694666
:101D80000548FFF791FC012269460448FFF78CFCE7
:101D9000FEE7000061000000200000206800002035
:101DA0004FF04070E1EE100A7047000000000000A4
:101DB00000000102030406070809000000000102F8
:101DC00003040000E41D00080000002020000000C3
:101DD000C4010008041E000820000020D0080000F4
:101DE000E001000800000000000000000100000009
:101DF00010000000000000000024F40000000000BB
:041E000000000000DE
:040000050800018965
:00000001FF
