:020000040800F2
:103800007007002089390008C3520008DD4C000809
:10381000C15200088F3A0008155600080000000049
:10382000000000000000000000000000BD53000880
:103830009D3A000800000000C5520008BF53000870
:10384000A3390008A3390008A3390008A3390008E8
:10385000A3390008A3390008A3390008A3390008D8
:10386000A3390008A3390008A3390008A3390008C8
:10387000A3390008A3390008A3390008913A0008C9
:10388000A3390008A3390008A3390008A3390008A8
:10389000A3390008A3390008A3390008A339000898
:1038A000A3390008A3390008A3390008A339000888
:1038B000A3390008A3390008A3390008A339000878
:1038C000A3390008A3390008A3390008A339000868
:1038D000C952000809560008A3390008A339000896
:1038E000A3390008A3390008A339000800F002F842
:1038F00000F03AF80AA090E8000C82448344AAF150
:103900000107DA4501D100F02FF8AFF2090EBAE84D
:103910000F0013F0010F18BFFB1A43F00103184703
:10392000841D0000A41D0000103A24BF78C878C18F
:10393000FAD8520724BF30C830C144BF04680C60B5
:10394000704700000023002400250026103A28BFFD
:1039500078C1FBD8520728BF30C148BF0B60704701
:103960001FB51FBD10B510BD00F058F81146FFF788
:10397000F7FF01F061FE00F076F803B4FFF7F2FF05
:1039800003BC00F07DF80000094880470948004763
:10399000FEE7FEE7FEE7FEE7FEE7FEE7FEE7FEE7FF
:1039A000FEE7FEE704480549054A064B704700005C
:1039B00021540008ED380008700100207007002035
:1039C00070030020700300204FF0000200B5134682
:1039D00094469646203922BFA0E80C50A0E80C502F
:1039E000B1F12001BFF4F7AF090728BFA0E80C50E0
:1039F00048BF0CC05DF804EB890028BF40F8042BD9
:103A000008BF704748BF20F8022B11F0804F18BF45
:103A100000F8012B7047704770477047754600F0FB
:103A20002BF8AE4605006946534620F00700854650
:103A300018B020B5FFF7B6FFBDE820404FF00006F4
:103A40004FF000074FF000084FF0000B21F0070186
:103A5000AC46ACE8C009ACE8C009ACE8C009ACE8C9
:103A6000C0098D46704710B50446AFF3008020466C
:103A7000BDE81040FFF781BF0048704710010020EB
:103A800001491820ABBEFEE7260002007047FEE7A2
:103A9000014800F09BB8000074000020704772B627
:103AA000FEE710B5040002D0607910B106E00120F5
:103AB00010BD00202071204600F004F80120607144
:103AC000002010BD08B500680649884208D10648A4
:103AD000416941F040014161406900F040000090BF
:103AE00008BD0000003002400010024010B590F800
:103AF00021100022022905D00421816380F82020B2
:103B0000012010BD01680B6823F00E030B600168F3
:103B10000B6823F001030B6090F84030C46B012167
:103B200001FA03F3636080F8211080F8202010462A
:103B300010BD000010B590F821100024022903D018
:103B40000421816301243DE001680A6822F00E022D
:103B50000A6001680A6822F001020A601A4A0168D4
:103B6000914201D1012121E0174A1432914201D141
:103B700010211BE0144A2832914201D1891515E029
:103B8000114A3C32914201D189140FE00E4A503261
:103B9000914202D14FF4803108E00B4A64329142E5
:103BA00002D14FF4801101E04FF08071064A083ACB
:103BB0005160012180F82110002180F82010416B14
:103BC00001B18847204610BD080002402DE9F05F92
:103BD000C16B0C6801680B68D0F840C0042202FA7F
:103BE0000CF2494DDFF824A1494E4A4FDFF828B1C5
:103BF000DFF828E122422CD05A072AD50A6892061B
:103C000003D40A6822F004020A600168A94201D1C3
:103C1000042219E0514501D1402215E0B14202D100
:103C20004FF4806210E0B94202D14FF480420BE0C1
:103C3000594502D14FF4802206E0714502D14FF47C
:103C4000800201E04FF080622F4908394A60C16A62
:103C50003BE04FF0020808FA0CF818EA040F4FF0A6
:103C600000094FF0010235D05FEA837832D50B6846
:103C70009B0605D40B6823F00A030B6080F8212013
:103C80000168A94201D1022219E0514501D1202247
:103C900015E0B14202D14FF4007210E0B94202D1F6
:103CA0004FF400520BE0594502D14FF4003206E0C8
:103CB000714502D14FF4001201E04FF00072124939
:103CC00008394A6080F82090816A00291AD0BDE83E
:103CD000F05F0847082505FA0CF5254212D01B07AE
:103CE00010D50B6823F00E030B6090F84010C36BE7
:103CF00002FA01F15960826380F8212080F8209057
:103D0000016BE2E7BDE8F09F080002401C000240A2
:103D10003000024044000240580002406C00024063
:103D200030B528B308C8134914221944B1FBF2F185
:103D30008900C16310498163022141771A6843F603
:103D4000F0718A43D0E900142143D0E902452C43A5
:103D50002143046921434469214384692143114378
:103D6000196000214163012242770177084630BD86
:103D7000012030BDF8FFFDBF0000024070B50446D1
:103D800000F004F90546601C02D0044800780444A1
:103D900000F0FCF8401BA042FAD370BD0C000020DC
:103DA0002DE9F84FDFF8B8910024A9F1040B234660
:103DB0000F2709F1040AABF1040EC9E00125A54063
:103DC0002A40AA427DD1674ED1F804C0ACEB060868
:103DD000B44532D014DCBCF1030F3AD009DCBCF19D
:103DE000000F2AD0BCF1010F1CD0BCF1020F31D161
:103DF0001DE0BCF1110F17D0BCF1120F2AD119E050
:103E0000B8F5881F19D006DCB8F5803F15D0B8F595
:103E1000801F1FD111E0B8F5001F0ED0B8F5041FA8
:103E200018D10AE0CB6815E0CB681B1D12E0CB6807
:103E300008330FE0CB680C330CE08B682BB1012BFF
:103E40004FF0080303D0456104E0042302E005615C
:103E500000E00023FF2A01D8064601E000F1040635
:103E60004FEA840501D9A5F12005D6F8008007FAAC
:103E700005FC28EA0C0803FA05F548EA0508C6F827
:103E800000804D68ED0062D5374DAE6946F0010601
:103E9000AE61AD6924F0030605F001050095334DD0
:103EA00006EB050CDCF80850A607360F07FA06F8F3
:103EB00025EA0805DFF8B880404503D14FF0000837
:103EC00017E044E0DFF8AC80404502D14FF0010834
:103ED0000FE0DFF8A480404502D14FF0020808E06F
:103EE000DFF89880404502D14FF0030801E04FF021
:103EF000040808FA06F848EA0508CCF808804D6876
:103F0000D9F80060ED024D4601D5164300E0964316
:103F10002E604D68DAF80060AD02554601D51643B3
:103F200000E096432E604D68DBF80060AD035D460F
:103F300001D5164300E096432E604D68DEF8006020
:103F4000ED03754601D5164300E096432E60641CD0
:103F50000D682A46E5407FF431AFBDE8F88F0000D8
:103F60000804014000001110001002400000014050
:103F700000080140000C0140001001400014014005
:103F80000AB1016170470904FBE70000014880683D
:103F9000704700000C00002002488168027811443C
:103FA000816070470C000020074810B5016841F09F
:103FB00010010160032000F075F80F2000F006F8F2
:103FC00000F024F8002010BD0020024070B50D4D17
:103FD00004464FF47A712878B1FBF0F00A49096879
:103FE000B1FBF0F000F0B9FC48B9102C07D2002268
:103FF0002146501E00F036F800206C6070BD012094
:1040000070BD00000C000020180000200C4808B50E
:10401000816941F001018161816901F00101009133
:10402000C16941F08051C161C06900F080500090C9
:104030000448416821F0E06141F00071416008BD31
:104040000010024000000140002809DB00F01F02C0
:10405000012191404009800000F1E020C0F80011EA
:1040600070470000F0B40E4B1B680C46C3F30223EC
:10407000C3F10705042D00D90425191D072901D214
:10408000002300E0DB1E012606FA05F1491E21404F
:1040900099409E40761E16403143F0BC01F0BBBAF9
:1040A0000CED00E0064900F0070208684FF6FF0338
:1040B000184040EA0220034A10430860704700009D
:1040C0000CED00E00000FA052DE9F0470F46050071
:1040D00061D0434E306800F00700B84209D2306822
:1040E00020F0070038433060306800F00700B84225
:1040F00051D128683B4C810712D5400703D5606831
:1041000040F4E06060602878000703D5606840F400
:10411000605060606068A96820F0F000084360604B
:104120002878C00728D06868012810D021680228A4
:1041300010D0890700292EDA616821F003010143BC
:104140006160FFF723FF804641F288390DE0216866
:104150008903EFE78901EDE7FFF718FFA0EB0801FE
:10416000494502D90320BDE8F0876068696800F01E
:104170000C00B0EB810FEFD1306800F00700B842BF
:104180000BD9306820F0070038433060306800F009
:104190000700B84201D00120E5E72878400705D59F
:1041A0006068E96820F4E0600843606028780007F0
:1041B00006D56068296920F4605040EAC10060605B
:1041C00000F038F86168084AC1F30311515CC84037
:1041D0000649086006480068FFF7F8FE0020C2E7BD
:1041E00000200240001002408A56000818000020FB
:1041F000100000200448054900684968044AC1F3DA
:104200000221515CC8407047180000200010024095
:104210009A5600080448054900684968044AC1F3F1
:10422000C221515CC84070471800002000100240B5
:104230009A5600080E4A51680E4801F00C03042BF0
:1042400011D0082B0FD10C48C1F38343C903C05CC4
:104250000AD55168084AC1F34041921E515C054A93
:104260005043B0FBF1F070470449484370470000E9
:104270000010024000127A007A56000800093D0042
:104280002DE9F84F040070D02078C04DC00749D008
:104290006868C0F38100012807D06868C0F3810016
:1042A000022809D16868C00306D52868800339D57B
:1042B00060680028E7D035E06068B0F5803F0BD03B
:1042C00010B1B0F5A02F11D0286820F480302860FC
:1042D000286820F4802002E0286840F480302860BC
:1042E000606890B1FFF752FE06460AE0286840F485
:1042F00080202860F0E700BFFFF748FE801B64289D
:1043000073D828688003F7D50CE0FFF73FFE064618
:1043100005E000BFFFF73AFE801B6428F0D828684C
:104320008003F7D420789A4E80074FF001094FF0B0
:10433000000839D5686810F00C0F07D06868C0F322
:104340008100022809D16868C00306D42868800764
:1043500014D52069012808D110E02069B0B1C6F851
:104360000090FFF713FE074605E00AE1FFF70EFE97
:10437000C01B0228C4D828688007F7D5286861695F
:1043800020F0F80040EAC10028600DE0C6F8008087
:10439000FFF7FCFD074604E0FFF7F8FDC01B02280D
:1043A00023D828688007F7D4207800072CD57948CF
:1043B000A169D9B1C0F80090FFF7E8FD074604E015
:1043C000FFF7E4FDC01B02280FD8686A8007F7D505
:1043D00071484FF4FA510068B0FBF1F0009000BF53
:1043E0000098411E0091FAD20EE080E0C0F80080F3
:1043F000FFF7CCFD074604E0FFF7C8FDC01B02280D
:1044000075D8686A8007F7D42078400760D5E869D6
:104410000027C00008D4E86940F08050E861E869EE
:10442000012700F0805000905C480168C90513D452
:104430000168834641F480710160FFF7A7FD824661
:1044400006E000BFFFF7A2FDA0EB0A0064284ED8EB
:10445000DBF80000C005F5D5E06801280AD008B1F6
:10446000052813D0286A20F001002862286A20F06D
:10447000040002E0286A40F001002862E06841F28E
:10448000883B98B1FFF782FD82460BE0286A40F036
:1044900004002862EEE700BFFFF778FDA0EB0A01F9
:1044A00059455AD8286A8007F6D50CE0FFF76EFD0B
:1044B000824605E0FFF76AFDA0EB0A0159454CD89A
:1044C000286A8007F6D41FB1E86920F08050E861BF
:1044D000E06988B36968C1F38101022944D00228E8
:1044E000C6F8608004D0FFF751FD044638E034E0A0
:1044F000FFF74CFD074604E0FFF748FDC01B02280C
:104500002BD828688001F7D4206AB0F5803F05D108
:104510006868A16820F4003008436860D4E90801A5
:104520000843696821F4741108436860C6F8609014
:10453000FFF72CFD044606E025E000BFFFF726FD4F
:10454000001B022809D828688001F7D51BE000BFAE
:10455000FFF71CFD001B022802D90320BDE8F88FDD
:1045600028688001F4D40EE00128F7D06868226A38
:1045700000F48031914204D1616A00F470108842E5
:1045800001D00120EAE70020E8E700000010024027
:1045900000004242800442421800002000700040A7
:1045A0007047000038B50446006842688168C94316
:1045B0004B0606D5CB0704D1D3435B0601D4216C4F
:1045C00005E08B0708D4D3431B0605D4616C01B00A
:1045D0002046BDE8304008478B0601D54B0646D43F
:1045E000D3439B0643D44B060AD494F85130032B93
:1045F0003ED0636D43F004036365C3688368009332
:10460000890609D4616D41F00101616581680091FD
:10461000016821F040010160606D002827D020680A
:10462000416821F0E0014160012084F851009007C9
:1046300022D02068416821F003014160104DE06CF8
:1046400040B14563E06CFFF775FA18B1606D40F05A
:1046500040006065A06C002809D04563A06CFFF79E
:1046600069FA002803D0606D40F04000606538BDF5
:10467000C1688068009038BD2046FFF791FF38BDC3
:10468000D552000870B5040009D0606A002540B119
:1046900025616561A56294F8510040B10CE00120EC
:1046A00070BD6068B0F5827FF4D0E561F2E784F810
:1046B0005050204600F040F8022084F85100206855
:1046C000016821F040010160A088218900F4827016
:1046D00001F404410843A18901F400610843217CED
:1046E00001F002010843217D01F001010843218B03
:1046F00001F400710843217F01F03801084394F868
:10470000201001F080010843218D01F4005108437D
:1047100021680860A069042101EA1040216848600E
:104720002068C16921F40061C1616565012084F8D8
:104730005100002070BD000070B586B0002506460F
:10474000009501950295039500682349884241D15F
:104750002249C86940F48040C861C86900F48040BB
:104760000490886940F00800886188691C4C00F05A
:10477000080004904FF42040009002200190032094
:10478000039069462046FFF70BFB4FF48040CDE9CC
:104790000005694620460295FFF702FB124C1148BE
:1047A00020601020C4E901058020C4E9030565618B
:1047B000A5612046E561FFF7B3FA08B1FFF76FF98D
:1047C000B4640022114624206662FFF74BFC2420CB
:1047D000FFF73AFC06B070BD003800400010024000
:1047E000000C014058000240740000202DE9F84FF1
:1047F000044690F850000026984615468A4601283F
:104800000CD0012784F85070FFF7C0FB814694F864
:104810005100B346012804D002269AE00220BDE8E8
:10482000F88FBAF1000F6FD0002D6DD0032084F8FF
:104830005100C4F854B0C4F830A0A586E586C4F889
:1048400038B0A4F83CB0A4F83EB0C4F844B0C4F802
:1048500040B0A068B0F5004F09D12068016821F090
:10486000400101602068016841F4804101602068D6
:104870000168490603D4016841F040010160E06825
:10488000B0F5006F606803D058B3012D29D049E01E
:1048900008B1012D1FD1206B21680088C86006E097
:1048A00020688168890709D5216B0988C160206B60
:1048B000801C2063E08E401EE0860CE0FFF766FB64
:1048C000A0EB0901414503D3B8F1FF3F03D006E057
:1048D000B8F1000F03D0E08E0028E1D125E00326D7
:1048E00035E0206B21680078087306E02068816855
:1048F00089070AD5216B09780173206B401C20635E
:10490000E08E401EE0860DE01FE0FFF73FFBA0EBCE
:104910000901414503D3B8F1FF3F03D0DFE7B8F108
:10492000000FDCD0E08E0028E0D14A464146204608
:1049300000F0D8FC08B120206065A06818B9206894
:10494000C16880680090606D08B1012601E084F8BC
:10495000517084F850B0304661E710B5401EB0F198
:10496000807F01D3012010BD4FF0E02460610F2152
:10497000601700F050FE0020A06107202061002099
:1049800010BD704770470000F8B50168044608681C
:10499000CA684B6910F00F0F4FF0000559D003F0B3
:1049A000010602F49077374365D0C10705D0D105E1
:1049B00003D5616C41F001016164410705D5D90758
:1049C00003D0616C41F002016164810705D5D9070C
:1049D00003D0616C41F004016164010707D502F066
:1049E0002001314303D0616C41F008016164616CC6
:1049F00000293AD0800604D5900602D5204600F062
:104A000046FD20684069616CC0F38010090700D43E
:104A100060B3204600F014FD20684069400621D5AF
:104A20002068143050E8001F21F0400140E80012D7
:104A3000002AF5D1E06BA8B16D494163E06BFFF747
:104A400079F8002811D0E06B416B01B0BDE8F0406F
:104A5000084783060FD593060DD52046BDE8F840DC
:104A600000F015BD2046FFF78DFFF8BD2046FFF78B
:104A700089FF6564F8BD266B2023012E7CD1C60614
:104A80007AD5D60678D508684868009048694FF00E
:104A90000206400640D5E16B086840680004000C3F
:104AA000E8D0A28D8242E5D9E085886920282DD002
:104AB00020680C3050E8001F21F4807140E800129B
:104AC000002AF5D12068143050E8001F21F00101C0
:104AD00040E80012002AF5D12068143050E8001F89
:104AE00021F0400140E80012002AF5D184F842305C
:104AF000256320680C3050E8001F21F0100140E8C9
:104B00000012002AF5D1E06BFEF7F0FF6663A08D7E
:104B1000E18D401A81B22AE0A08DE18D401A81B268
:104B2000E08D0028A6D00029A4D022680C3252E8DB
:104B3000000F20F4907042E80007002FF5D12068A4
:104B4000143050E8002F22F0010240E80027002F27
:104B5000F5D184F84230256320680C3050E8002FEE
:104B600022F0100240E80023002BF5D166632046B6
:104B7000FFF707FFF8BDFFE705062BD5150629D57A
:104B800094F841002128F5D1A068B0F5805F01D1EB
:104B90002069B0B1206A411C216221680078486018
:104BA000E08C401E0004000CE084E3D12068C16862
:104BB00021F08001C1602068C16841F04001C160FE
:104BC000D8E7206A0088C0F308004860206A801C8B
:104BD0002062E5E74006CDD55006CBD5CA68204611
:104BE00022F04002CA6084F8413000F076F8C1E754
:104BF0003154000870B5040004D094F84100002539
:104C000010B106E0012070BD84F84050204600F04D
:104C100023F8242084F841002068C16821F4005161
:104C2000C160204600F094FC2068016921F49041A5
:104C300001612068416921F02A0141612068C16851
:104C400041F40051C1606564202084F8410084F87B
:104C500042006563002070BD30B585B0002400942B
:104C60000194029403940068184988422CD1184892
:104C7000816941F480418161816901F4804104913D
:104C8000816941F0040181618069124D00F00400E6
:104C900004904FF4007000900220019003200390D4
:104CA00069462846FFF77CF82815CDE900046946D7
:104CB00028460294FFF774F8002211462520FFF7DA
:104CC000D1F92520FFF7C0F905B030BD003801400B
:104CD000001002400008014070477047FEE70000E6
:104CE0002DE9F047174C814600216088401E83B2B1
:104CF0002088401E82B2084600F05EF9124F4FF441
:104D00000068002241463846FFF73AF90122910235
:104D10003846FFF735F9002609E0002503E048464C
:104D200000F004FA6D1C2088A842F8D8761C608830
:104D3000B042F2D841463846BDE8F0470122FFF7BD
:104D40001FB9000000010020000C014010B500F068
:104D50001BF9112000F086F97820FFF70FF8B12039
:104D600000F080F9012000F05BF92C2000F058F9E8
:104D70002D2000F055F9B22000F074F9012000F068
:104D80004FF92C2000F04CF92D2000F049F9B32008
:104D900000F068F9012000F043F92C2000F040F900
:104DA0002D2000F03DF9012000F03AF92C2000F010
:104DB00037F92D2000F034F9B42000F053F9072022
:104DC00000F02EF9C02000F04DF9A22000F028F9E3
:104DD000022000F025F9842000F022F9C12000F023
:104DE00041F9C52000F01CF9C22000F03BF90A206F
:104DF00000F016F9002000F013F9C32000F032F99A
:104E00008A2000F00DF92A2000F00AF9C42000F0F1
:104E100029F98A2000F004F9EE2000F001F9C520FC
:104E200000F020F90E2000F0FBF8362000F01AF90F
:104E3000C82000F0F5F8E02000F014F90F2000F091
:104E4000EFF81A2000F0ECF80F2000F0E9F8182035
:104E500000F0E6F82F2000F0E3F8282000F0E0F85A
:104E6000202000F0DDF8222000F0DAF81F2000F00A
:104E7000D7F81B2000F0D4F8232000F0D1F8372019
:104E800000F0CEF8002000F0CBF8072000F0C8F8C2
:104E9000022000F0C5F8102000F0C2F8E12000F078
:104EA000E1F80F2000F0BCF81B2000F0B9F80F204B
:104EB00000F0B6F8172000F0B3F8332000F0B0F897
:104EC0002C2000F0ADF8292000F0AAF82E2000F0E8
:104ED000A7F8302000F0A4F8302000F0A1F8392025
:104EE00000F09EF83F2000F09BF8002000F098F8BA
:104EF000072000F095F8032000F092F8102000F051
:104F00008FF82A2000F0AEF8002000F089F8002089
:104F100000F086F8002000F083F87F2000F080F891
:104F20002B2000F09FF8002000F07AF8002000F01D
:104F300077F8002000F074F89F2000F071F8F0205E
:104F400000F090F8012000F06BF8F62000F08AF8ED
:104F5000002000F065F83A2000F084F8052000F009
:104F60005FF8292000F07EF8002000F0ADF8012263
:104F700051020448FFF704F8BDE810404FF6FF70F7
:104F8000FFF7AEBE000C014070B50A4D4FF48054DF
:104F9000002221462846FEF7F3FF6420FEF7EEFECE
:104FA000012221462846FEF7EBFFBDE87040322083
:104FB000FEF7E4BE000C01402DE9F041174C074616
:104FC000984615460E46A07A00F04CF8002000F0F6
:104FD00027F8A07B3844C0B200F022F8002000F08F
:104FE0001FF8A07B2844C0B200F01AF8207B00F024
:104FF00039F8002000F014F8E07B3044C0B200F033
:105000000FF8002000F00CF8E17B01EB0800C0B2C3
:1050100000F006F8BDE8F04100F046B800010020BD
:1050200038B50E4D8DF800004FF400640022214683
:105030002846FEF7A5FF012291022846FEF7A0FFB1
:105040004FF0FF33012269460548FFF7CFFB0122ED
:1050500021462846FEF794FF38BD0000000C0140B1
:105060001C00002038B50E4D8DF800004FF4006490
:10507000002221462846FEF783FF002261102846C1
:10508000FEF77EFF4FF0FF33012269460548FFF728
:10509000ADFB012221462846FEF772FF38BD000015
:1050A000000C01401C0000200148007AFFF7DABF25
:1050B0000001002010B50C46FFF7D4FFE0B2BDE8B8
:1050C0001040FFF7ADBF000030B417492A22022379
:1050D0004A812B228A812C220A810324802278B1E2
:1050E000012813D00124022816D003281AD10A80DF
:1050F0004A808C73CB73682130BC3620FFF7DABF4F
:105100000A804A808B73CC73C821F5E70A804A80F5
:105110008C73CB73A821EFE70A804A808B73CC7322
:105120000821E9E730BC70470001002038B5010ACA
:105130008DF800100D4D8DF801004FF40064002231
:1051400021462846FEF71CFF012291022846FEF761
:1051500017FF4FF0FF33022269460548FFF746FB71
:10516000012221462846FEF70BFF38BD000C014006
:105170001C000020074910B5054808600846FEF7E6
:1051800090FC002803D0BDE81040FEF788BC10BD9D
:105190000030024004000020094808B5416941F090
:1051A000010141614069002200F0010000901146B8
:1051B0000F20FEF757FFBDE808400F20FEF744BF61
:1051C0000010024070B586B000241C480094019481
:1051D00002940394816941F010018161816901F0B9
:1051E00010010491816941F020018161816901F020
:1051F00020010491816941F008018161816901F018
:1052000008010491816941F00401816180690C4EBB
:1052100000F004004FF4F055049000222946304677
:10522000FEF7AEFE01200095CDE9010403200390B6
:1052300069463046FEF7B4FD06B070BD001002406E
:10524000000C01400F4810B50D4901604FF4827108
:10525000416000218160C1604FF400720161C0E9CA
:105260000512C1610162416281620A21C162FFF7D8
:1052700009FA002803D0BDE81040FEF710BC10BDAD
:10528000003800401C0000200C4810B50A4901609D
:105290004FF4E1314160002181600C22C160C0E91E
:1052A00004128161C161FFF7A5FC002803D0BDE8AD
:1052B0001040FEF7F4BB10BD00380140B8000020DC
:1052C000FEE7FEE7704700000148FFF76BB90000FA
:1052D0001C00002010B5406A0021C187C186FFF77D
:1052E0005FF910BD38B50B460092044600228021BC
:1052F00000F008F8002804D0606D40F020006065E0
:10530000032038BD2DE9F8431E46914688460446E1
:10531000089DFEF73BFE401B351AFEF737FE074699
:1053200025480068C0F3CB30684338E0701C37D0A4
:10533000FEF72CFEC01BA84203D215B1009860B343
:105340002CE02068416821F0E00141606068B0F520
:10535000827F0BD1A068B0F5004F02D0B0F5806F0E
:1053600004D12068016821F040010160A06AB0F515
:10537000005F09D12068016821F4005101602068B4
:10538000016841F400510160012084F851000020BF
:1053900084F850000320BDE8F8830025401E0090EB
:1053A0002068816838EA010004D000214945BDD158
:1053B0000020F0E70121F9E7180000207047FEF710
:1053C000EBBD30B58FB028216846FEF7FDFA1421F9
:1053D0000AA8FEF7F9FA0225012004900095102092
:1053E000059000244FF46010CDE908400795684609
:1053F000FEF746FF08B172B6FEE70F20CDE90A05B9
:105400004FF48060CDE90C4002210AA80E94FEF70B
:105410005BFE002801D072B6FEE70FB030BD000081
:1054200002490148086070470038000808ED00E0B4
:1054300010B5406A0021C185C184FFF7A3FA10BDF1
:1054400001680C3151E8002F22F4907241E80023EA
:10545000002BF5D10168143151E8002F22F0010230
:1054600041E80023002BF5D1016B012909D1016826
:105470000C3151E8002F22F0100241E80023002BEC
:10548000F5D1202180F8421000210163704708B552
:1054900090F84210222901D0022008BD82684FF402
:1054A00080539A4201D1016921B1816A9A421BD08D
:1054B0004AB10AE00268816A5268C2F308020A80AF
:1054C000816A891C08E0026972B10268526802F0C0
:1054D0007F020A70816A491C8162C18D491E0904DC
:1054E000090CC18503D01BE002685268F1E701682E
:1054F000CA6822F02002CA600168CA6822F4807279
:10550000CA6001684A6922F001024A61202180F8DC
:10551000421000214163026B012A03D0FFF7DCFB3C
:10552000002008BD016301680C3151E8002F22F012
:10553000100241E80023002BF5D101680A68D20669
:1055400002D50A6849680091818DFFF71AFAE7E7EA
:1055500070B5044600680169E26821F440511143C6
:1055600001612169A0680843616908432168CA682C
:1055700041F20C639A430243CA6020684169A26900
:1055800021F44071114341611E492068884202D1D3
:10559000FEF740FE01E0FEF72DFE00EBC00101EB3F
:1055A0000012606864218000B2FBF0F3B3FBF1F3FA
:1055B0006FF018067343B2FBF0F5B2FBF0F605EBA3
:1055C0008305322303EB0515B5FBF1F5B6FBF1F6C8
:1055D00005F0F00505EB0615B2FBF0F6B2FBF0F0B6
:1055E000B0FBF1F06FF01802504306EB800003EBC4
:1055F0000010B0FBF1F0216800F00F002844886033
:1056000070BD0000003801400148FFF7BDB900003F
:10561000B8000020FEE70907090E002804DB00F1AE
:10562000E02080F80014704700F00F0000F1E02047
:1056300080F8141D70470000FEF7B6FCFFF7C1FEAE
:10564000FFF7C0FDFFF7A8FDFFF794FDFFF71CFE75
:10565000FFF7F8FDFFF77AFB064C4FF4784520681A
:10566000401C20602846FFF73BFBC820FEF786FB66
:10567000F5E7000000000020010202030405060710
:1056800008090A0B0C0D0E0F10100000000000009E
:1056900000000102030406070809000000000102DF
:1056A00003040000C4560008000000201C00000095
:1056B00028390008E05600081C00002054070000AC
:1056C0004439000800000000000000000000000055
:1056D0000100000010000000000000000024F400A1
:04000005080038EDCA
:00000001FF
