:020000040800F2
:1000000010070020890100083B140008EB120008CB
:10001000391400088F0200082718000800000000AB
:100020000000000000000000000000003F14000875
:1000300091020008000000003D140008411400086F
:10004000A3010008A3010008A3010008A301000800
:10005000A3010008A3010008A3010008A3010008F0
:10006000A3010008A3010008A3010008A3010008E0
:10007000A3010008A3010008A3010008A3010008D0
:10008000A3010008A3010008A3010008A3010008C0
:10009000A3010008A3010008A3010008A3010008B0
:1000A000A5140008C9140008BD140008B114000804
:1000B000A3010008A3010008A3010008A301000890
:1000C000A3010008A3010008A3010008A301000880
:1000D000A3010008A3010008A3010008A301000870
:1000E000A3010008A3010008A301000800F002F822
:1000F00000F03AF80AA090E8000C82448344AAF188
:100100000107DA4501D100F02FF8AFF2090EBAE885
:100110000F0013F0010F18BFFB1A43F0010318473B
:10012000EC1900000C1A0000103A24BF78C878C1FE
:10013000FAD8520724BF30C830C144BF04680C60ED
:10014000704700000023002400250026103A28BF35
:1001500078C1FBD8520728BF30C148BF0B60704739
:100160001FB51FBD10B510BD00F058F81146FFF7C0
:10017000F7FF01F069FB00F076F803B4FFF7F2FF38
:1001800003BC00F07DF8000009488047094800479B
:10019000FEE7FEE7FEE7FEE7FEE7FEE7FEE7FEE737
:1001A000FEE7FEE704480549054A064B7047000094
:1001B000A3140008ED000008100100201007002023
:1001C00010030020100300204FF0000200B513467A
:1001D00094469646203922BFA0E80C50A0E80C5067
:1001E000B1F12001BFF4F7AF090728BFA0E80C5018
:1001F00048BF0CC05DF804EB890028BF40F8042B11
:1002000008BF704748BF20F8022B11F0804F18BF7D
:1002100000F8012B7047704770477047754600F033
:100220002BF8AE4605006946534620F00700854688
:1002300018B020B5FFF7B6FFBDE820404FF000062C
:100240004FF000074FF000084FF0000B21F00701BE
:10025000AC46ACE8C009ACE8C009ACE8C009ACE801
:10026000C0098D46704710B50446AFF300802046A4
:10027000BDE81040FFF781BF00487047B000002084
:1002800001491820ABBEFEE7260002007047FEE7DA
:10029000704700002DE9F84FDFF8B8910024A9F16C
:1002A000040B23460F2709F1040AABF1040EC9E041
:1002B0000125A5402A40AA427DD1674ED1F804C04D
:1002C000ACEB0608B44532D014DCBCF1030F3AD0D5
:1002D00009DCBCF1000F2AD0BCF1010F1CD0BCF12D
:1002E000020F31D11DE0BCF1110F17D0BCF1120F7C
:1002F0002AD119E0B8F5881F19D006DCB8F5803F7F
:1003000015D0B8F5801F1FD111E0B8F5001F0ED031
:10031000B8F5041F18D10AE0CB6815E0CB681B1DA7
:1003200012E0CB6808330FE0CB680C330CE08B682D
:100330002BB1012B4FF0080303D0456104E00423E7
:1003400002E0056100E00023FF2A01D8064601E033
:1003500000F104064FEA840501D9A5F12005D6F87D
:10036000008007FA05FC28EA0C0803FA05F548EABC
:100370000508C6F800804D68ED0062D5374DAE69BE
:1003800046F00106AE61AD6924F0030605F00105F3
:100390000095334D06EB050CDCF80850A607360F28
:1003A00007FA06F825EA0805DFF8B880404503D1CA
:1003B0004FF0000817E044E0DFF8AC80404502D180
:1003C0004FF001080FE0DFF8A480404502D14FF064
:1003D000020808E0DFF89880404502D14FF003089A
:1003E00001E04FF0040808FA06F848EA0508CCF8DE
:1003F00008804D68D9F80060ED024D4601D51643DE
:1004000000E096432E604D68DAF80060AD02554674
:1004100001D5164300E096432E604D68DBF800607E
:10042000AD035D4601D5164300E096432E604D684E
:10043000DEF80060ED03754601D5164300E09643F3
:100440002E60641C0D682A46E5407FF431AFBDE89C
:10045000F88F000008040140000011100010024055
:100460000000014000080140000C01400010014064
:10047000001401400148806870470000100000200F
:1004800002488168027811448160704710000020A2
:10049000074810B5016841F010010160032000F029
:1004A00075F80F2000F006F800F024F8002010BDC9
:1004B0000020024070B50D4D04464FF47A71287843
:1004C000B1FBF0F00A490968B1FBF0F000F0BCFAAA
:1004D00048B9102C07D200222146501E00F036F8F1
:1004E00000206C6070BD012070BD00001000002075
:1004F0001C0000200C4808B5816941F001018161B0
:10050000816901F001010091C16941F08051C1612F
:10051000C06900F0805000900448416821F0E0611B
:1005200041F00071416008BD001002400000014030
:10053000002809DB00F01F020121914040098000E2
:1005400000F1E020C0F8001170470000F0B40E4B3D
:100550001B680C46C3F30223C3F10705042D00D921
:100560000425191D072901D2002300E0DB1E012606
:1005700006FA05F1491E214099409E40761E16401C
:100580003143F0BC01F050B90CED00E0064900F039
:10059000070208684FF6FF03184040EA0220034AAA
:1005A00010430860704700000CED00E00000FA0501
:1005B0002DE9F0470F46050061D0434E306800F04A
:1005C0000700B84209D2306820F007003843306095
:1005D000306800F00700B84251D128683B4C8107D1
:1005E00012D5400703D5606840F4E0606060287869
:1005F000000703D5606840F4605060606068A968D7
:1006000020F0F000084360602878C00728D06868B0
:10061000012810D02168022810D0890700292EDA7D
:10062000616821F0030101436160FFF723FF804609
:1006300041F288390DE021688903EFE78901EDE790
:10064000FFF718FFA0EB0801494502D90320BDE8D8
:10065000F0876068696800F00C00B0EB810FEFD1A3
:10066000306800F00700B8420BD9306820F007006E
:1006700038433060306800F00700B84201D00120F4
:10068000E5E72878400705D56068E96820F4E06070
:10069000084360602878000706D56068296920F45F
:1006A000605040EAC100606000F018F86168084AD4
:1006B000C1F30311515CC840064908600648006850
:1006C000FFF7F8FE0020C2E70020024000100240C1
:1006D000FA1A00081C000020140000200E4A51687D
:1006E0000E4801F00C03042B11D0082B0FD10C483D
:1006F000C1F38343C903C05C0AD55168084AC1F3FA
:100700004041921E515C054A5043B0FBF1F07047E6
:1007100004494843704700000010024000127A006C
:10072000EA1A000800093D002DE9F84F040070D0D6
:100730002078C04DC00749D06868C0F38100012807
:1007400007D06868C0F38100022809D16868C00337
:1007500006D52868800339D560680028E7D035E0E1
:100760006068B0F5803F0BD010B1B0F5A02F11D06C
:10077000286820F480302860286820F4802002E077
:10078000286840F480302860606890B1FFF772FEFE
:1007900006460AE0286840F480202860F0E700BFA1
:1007A000FFF768FE801B642873D828688003F7D59C
:1007B0000CE0FFF75FFE064605E000BFFFF75AFEBC
:1007C000801B6428F0D828688003F7D420789A4EDC
:1007D00080074FF001094FF0000839D5686810F024
:1007E0000C0F07D06868C0F38100022809D168683F
:1007F000C00306D42868800714D52069012808D1D1
:1008000010E02069B0B1C6F80090FFF733FE07464C
:1008100005E00AE1FFF72EFEC01B0228C4D82868B5
:100820008007F7D52868616920F0F80040EAC10028
:1008300028600DE0C6F80080FFF71CFE074604E0C4
:10084000FFF718FEC01B022823D828688007F7D4BA
:10085000207800072CD57948A169D9B1C0F800905B
:10086000FFF708FE074604E0FFF704FEC01B02285E
:100870000FD8686A8007F7D571484FF4FA510068BD
:10088000B0FBF1F0009000BF0098411E0091FAD239
:100890000EE080E0C0F80080FFF7ECFD074604E0C2
:1008A000FFF7E8FDC01B022875D8686A8007F7D4F7
:1008B0002078400760D5E8690027C00008D4E869BF
:1008C00040F08050E861E869012700F08050009016
:1008D0005C480168C90513D40168834641F48071FE
:1008E0000160FFF7C7FD824606E000BFFFF7C2FDCB
:1008F000A0EB0A0064284ED8DBF80000C005F5D54F
:10090000E06801280AD008B1052813D0286A20F031
:1009100001002862286A20F0040002E0286A40F002
:1009200001002862E06841F2883B98B1FFF7A2FD20
:1009300082460BE0286A40F004002862EEE700BF20
:10094000FFF798FDA0EB0A0159455AD8286A80079D
:10095000F6D50CE0FFF78EFD824605E0FFF78AFD35
:10096000A0EB0A0159454CD8286A8007F6D41FB17C
:10097000E86920F08050E861E06988B36968C1F3F4
:100980008101022944D00228C6F8608004D0FFF714
:1009900071FD044638E034E0FFF76CFD074604E0E3
:1009A000FFF768FDC01B02282BD828688001F7D408
:1009B000206AB0F5803F05D16868A16820F4003056
:1009C00008436860D4E908010843696821F4741198
:1009D00008436860C6F86090FFF74CFD044606E0E7
:1009E00025E000BFFFF746FD001B022809D8286854
:1009F0008001F7D51BE000BFFFF73CFD001B02287C
:100A000002D90320BDE8F88F28688001F4D40EE0F5
:100A10000128F7D06868226A00F48031914204D13D
:100A2000616A00F47010884201D00120EAE70020DA
:100A3000E8E7000000100240000042428004424209
:100A40001C0000200070004010B5401EB0F1807FF7
:100A500001D3012010BD4FF0E02460610F21601729
:100A600000F0E2FE0020A06107202061002010BD00
:100A70007047704770B590F83C20012A26D00124B9
:100A800080F83C40022280F83D2003685A689D6847
:100A900022F070060A6832435A600D4B02689A428F
:100AA00008D0B2F1804F05D00A4B9A4202D00A4BCF
:100AB0009A4204D1496825F080031943916080F877
:100AC0003D40002180F83C10084670BD022070BDFA
:100AD000002C0140000400400008004010B5040054
:100AE00003D094F83D0010B107E0012010BD0020B4
:100AF00084F83C00204600F01FF8022084F83D00F6
:100B0000211D206800F0E6FC012084F8460084F8EE
:100B10003E0084F83F0084F8400084F8410084F8E7
:100B2000420084F8430084F8440084F8450084F8C7
:100B30003D00002010BD000000B585B000210091EF
:100B400001910291039100681E49884237D11E48E5
:100B5000816941F400618161816901F4006104915E
:100B6000816941F0040181618069694600F00400F7
:100B700004904FF4807000901448FFF78BFB002224
:100B800011461820FFF7E2FC1820FFF7D1FC0022E5
:100B900011461920FFF7DAFC1920FFF7C9FC0022E3
:100BA00011461A20FFF7D2FC1A20FFF7C1FC0022E1
:100BB00011461B20FFF7CAFC1B20FFF7B9FC05B04C
:100BC00000BD0000002C0140001002400008014060
:100BD00070B5044690F83C000025012817D0012686
:100BE00084F83C60022084F83D002068826822F08E
:100BF000770222F47F4282600868502838D00DDCEA
:100C000020284FD005DC90B3102811D14AE00220F3
:100C100070BD302846D040280AD13BE060282FD054
:100C200070280DD0B0F5805F03D0B0F5005F12D012
:100C3000012584F83D60002084F83C00284670BD02
:100C4000CB68D1E90121206800F087FC2068816829
:100C500041F0770109E0CB68D1E90121206800F07B
:100C60007CFC2068816841F480418160E1E719E003
:100C7000CA684968206800F06BFD5021206806E0D2
:100C8000CA684968206800F0A1FD6021206800F072
:100C90006EFCCEE7CA684968206800F059FD402123
:100CA0002068F4E7226801461046F0E770B5124A62
:100CB000016891420AD1017F104C012907D0022915
:100CC00004D1042100F0D0FA401C606070BD002106
:100CD00000F0CAFA401C206000F0A8FE05466068DB
:100CE00000F0A4FE294600F0DFFDA060294604487C
:100CF00000F0DAFDE06070BD002C01400000002033
:100D0000002474492DE9F041054690F83C00002686
:100D10000C46012810D0012085F83C0072B1042A4D
:100D20001CD0082A2CD00C2A50D00126002085F88F
:100D30003C003046BDE8F0810220FBE7D4E9001218
:100D4000E368286800F016FD2868816921F00C012D
:100D5000816128688169A26811430FE0D4E900121B
:100D6000E368286800F044FD2868816921F4406147
:100D7000816128688169A26841EA02218161D5E721
:100D80002868D4E9002C277B036A016A21F480716A
:100D90000162C16923F4007321F0030141EA0C01EF
:100DA00021F0F00C39074FF400774CEA116107EAA3
:100DB00002221A43C16102622868C16921F00C0154
:100DC000C1612868C169A26811432BE02868D4E991
:100DD0000021E768036AD0F820C02CF4805CC0F8DA
:100DE00020C0D0F81CC023F400532CF4407C4CEA03
:100DF000012121F4704C4FF6FF7101EA07314FF4E5
:100E0000005741EA0C0107EA02321A43C16102624B
:100E10002868C16921F44061C1612868C169A2687C
:100E200041EA0221C16181E710B5040003D094F8C2
:100E30003D0010B107E0012010BD002084F83C0007
:100E4000204600F01EF8022084F83D00211D206895
:100E500000F040FB012084F8460084F83E0084F84E
:100E60003F0084F8400084F8410084F8420084F890
:100E7000430084F8440084F8450084F83D000020D5
:100E800010BD704730B50446002551B104290DD07E
:100E9000082910D094F8410094F84520012811D178
:100EA0000EE094F83E0094F84220F7E794F83F00F3
:100EB00094F84320F2E794F8400094F84420EDE7DA
:100EC000012A01D0012030BD022059B1042912D0DD
:100ED000082919D084F8410084F845000C2938D03D
:100EE000012534E084F83E0084F842002068C2689E
:100EF00042F0020210E084F83F0084F843002068CA
:100F0000C26842F0040207E084F8400084F844001C
:100F10002068C26842F00802C2600122206800F026
:100F20000FFB0E492068884208D0B0F1804F05D0F1
:100F30000B49884202D00B49884204D1816801F0F4
:100F40000701062903D0016841F00101016028462C
:100F500030BD2068C26842F01002DDE7002C01407D
:100F6000000400400008004070B5044600680169B4
:100F70004FF00005C943890715D4C168C9438907E3
:100F800011D4E91E01610120207720688069800763
:100F9000204602D0FFF78AFE04E000F0BDF82046AC
:100FA00000F060F9257720680169C943490717D423
:100FB000C168C943490713D46FF0040101610220DD
:100FC00020772068806910F4407F204602D0FFF728
:100FD0006DFE04E000F0A0F8204600F043F925770C
:100FE00020680169C943090716D4C168C9430907C4
:100FF00012D46FF008010161042020772068C069D5
:101000008007204602D0FFF751FE04E000F084F88C
:10101000204600F027F9257720680169C943C906F1
:1010200017D4C168C943C90613D46FF01001016118
:10103000082020772068C06910F4407F204602D045
:10104000FFF734FE04E000F067F8204600F00AF9EC
:10105000257720680169C943C90708D1C168C94318
:10106000C90704D1891E0161204600F0FCF8206800
:101070000169C943090609D4C168C943090605D4F1
:101080006FF0800101612046FFF7F2FC20680169E2
:10109000C943490609D4C168C943490605D46FF05C
:1010A00040010161204600F01FF920680169C94331
:1010B00089060BD4C168C943890607D46FF02001A3
:1010C00001612046BDE87040FFF7D3BC70BD000051
:1010D00000B585B000210091019102910391006853
:1010E000B0F1804F11D10A48816941F0040181615A
:1010F0008069694600F004000490032000900220FB
:10110000019003900348FFF7C5F805B000BD00004B
:101110000010024000080140704770B5044690F886
:101120003C0000260D4601280FD0012084F83C0029
:101130006AB1042A1DD0082A2FD00C2A3FD00126DC
:10114000002084F83C00304670BD022070BD20684D
:1011500000F016FA2068816941F008018161206879
:10116000816921F004018161206881692A69114344
:1011700011E0206800F02CFA2068816941F40061D8
:1011800081612068816921F48061816120688169C1
:101190002A6941EA02218161D2E7206800F044FA1D
:1011A0002068C16941F00801C1612068C16921F06E
:1011B0000401C1612068C1692A69114311E02068F6
:1011C00000F05EFA2068C16941F40061C1612068E5
:1011D000C16921F48061C1612068C1692A6941EA5D
:1011E0000221C161ACE710B5040003D094F83D00C2
:1011F00010B107E0012010BD002084F83C0020461B
:1012000000F01EF8022084F83D00211D206800F047
:1012100061F9012084F8460084F83E0084F83F001C
:1012200084F8400084F8410084F8420084F84300C8
:1012300084F8440084F8450084F83D00002010BD87
:1012400008B50068B0F1804F08D10548C16941F088
:101250000101C161C06900F00100009008BD0000FB
:1012600000100240704770470246002041B1042937
:1012700009D008290AD00C2901D11068006C7047E8
:101280001068406B70471068806B70471068C06BC7
:10129000704770B5044690F83C00012812D0012533
:1012A00084F83C50022084F83D00204600F00AFA01
:1012B00001004FF0000007D084F83D5084F83C0056
:1012C000012070BD022070BD2168CA6822F0400272
:1012D000CA602168CA6822F48042CA6084F83D501E
:1012E00084F83C00002070BD7047FEE710B590B058
:1012F000002409940A940B94142104A80C94FEF77A
:1013000063FF2D480D940E94009401940294294992
:10131000039401604721C0E901144FF6FF71C0E951
:10132000031444618461FFF7D9FB08B172B6FEE78C
:101330004FF48050099009A91F48FFF749FC08B1F4
:1013400072B6FEE71C48FFF76FFD08B172B6FEE704
:10135000042004905020CDE9050404A916480894FF
:10136000FFF797FF08B172B6FEE70D940DA912487A
:101370000E94FFF77FFB08B172B6FEE70120CDE9BE
:1013800000400294002269460B480394FFF7BAFC20
:1013900008B172B6FEE7022000900190042269466F
:1013A0000548FFF7AFFC002801D072B6FEE710B089
:1013B00010BD0000002C01402000002010B58AB0B4
:1013C000002407941C2168460894FEF7FDFE194886
:1013D0004FF08041C0E900144FF6FF71C0E90241AF
:1013E00004618461FFF7FFFE08B172B6FEE707945F
:1013F00007A910480894FFF73DFB08B172B6FEE755
:101400006020CDE900040294002269460948049452
:10141000FFF783FE08B172B6FEE70422694605486D
:10142000FFF77BFE08B172B6FEE70248FFF750FEF9
:101430000AB010BD68000020FEE7FEE77047704765
:10144000FFF71EB830B58FB028216846FEF7BCFE06
:1014500014210AA8FEF7B8FE01210804CDE9001006
:101460000024029402250491CDE907504FF4E010C6
:1014700009906846FFF758F908B172B6FEE70F20E9
:10148000CDE90A054FF48060CDE90C4002210AA89D
:101490000E94FFF78DF8002801D072B6FEE70FB06A
:1014A00030BD70470148FFF75FBD000020000020FD
:1014B0000148FFF759BD0000200000200148FFF758
:1014C00053BD0000200000200148FFF74DBD000083
:1014D00020000020F0B50268164B174C174D4FF056
:1014E0008047984205D0B84203D0A04201D0A8421C
:1014F00003D122F070064A683243984205D0B842C0
:1015000003D0A04201D0A84203D122F44074CA689B
:1015100022434C6922F08002224302608A68C26240
:101520000A688262984201D109690163012141611F
:10153000F0BD0000002C0140000400400008004005
:1015400010B501F01F030121046A99408C43046225
:10155000016A9A401143016210BD10B5846842EAE5
:10156000032224F47F440A432243826010BD826830
:1015700022F070020A4342F00701816070470000C8
:1015800030B5036A026A22F001020262426884698D
:1015900024F073050C682C4323F002058B682B4361
:1015A0000A4DA8420BD123F00805CB6822F4407203
:1015B0002B434D6923F0040315438A692A43426093
:1015C000846149684163036230BD0000002C014022
:1015D00030B5026A036A23F010030362436884692A
:1015E0000D6824F4E64444EA05248D6822F02002C4
:1015F00042EA05120B4DA8420ED1CD6822F08002BE
:1016000042EA05124D6923F4406343EA85038D697C
:1016100022F0400243EA85034360846149688163A4
:10162000026230BD002C014030B5036A026A22F428
:10163000807202624268C46923F4007324F0730567
:101640000C682C438D6843EA05230C4DA8420ED14B
:10165000CD6823F4006343EA05234D6922F4405228
:1016600042EA05128D6923F4806342EA0512426062
:10167000C4614968C163036230BD0000002C0140B1
:1016800030B5046A026A22F4805202624268C36979
:101690000D6823F4E64343EA05238D6824F40054DF
:1016A00044EA0534064DA84204D14D6922F4804233
:1016B00042EA85124260C36149680164046230BD38
:1016C000002C014070B5036800249A6822F0700570
:1016D0004A682A4322F007050A682A439A604A6842
:1016E00012F00F0F31D11211082A2ED2DFE802F0CA
:1016F0002E2E2E2E0B2127040B69D1E90221006822
:10170000FFF72BFF22E00A68052A10D00268136A4F
:10171000156A25F00105156202689569096925F0C9
:10172000F00545EA01119161006803620EE00120B5
:1017300070BD0A698968006800F00AF806E00A6965
:101740008968006800F042F800E00124204670BD7E
:1017500010B5036A046A24F001040462846924F069
:10176000F00444EA021423F00A020A43846102628C
:1017700010BD000070B5056A046A24F0010404621B
:1017800084690F4EB04208D0B0F1804F05D00D4EA5
:10179000B04202D00C4EB04203D124F003041443F3
:1017A00001E044F001041A0724F0F00444EA126254
:1017B00025F00A0301F00A0119438261016270BD3C
:1017C000002C0140000400400008004010B5036AEE
:1017D000046A24F010040462846923F0A00324F452
:1017E000704444EA023243EA01118261016210BD91
:1017F00030B5046A056A25F010050562856925F48F
:10180000407545EA022222F470454FF6FF7202EA63
:10181000033224F0A0032A43A02404EA011119434F
:101820008261016230BDFEE70907090E002804DB72
:1018300000F1E02080F80014704700F00F0000F184
:10184000E02080F8141D704708B5FEF721FEFFF771
:10185000F9FD1348816941F010018161816901F04E
:1018600010010091816941F020018161816901F0DD
:1018700020010091816941F004018161806900F0DB
:1018800004000090FFF732FDFFF798FD00210548A6
:10189000FFF7F8FA04210348FFF7F4FAFEE7000027
:1018A00000100240200000204FF47F0C1CEAD012F0
:1018B0001EBF1CEAD11392EA0C0F93EA0C0F00F042
:1018C000858090EA010F48BF42F4807240F4000C1A
:1018D00041F400002CF07F4120F07F4000B58142B0
:1018E000A2EB03020FF2081CACEB504EC0F100005B
:1018F0009EF800E04FEA4E0E00FB0EFC38BF490098
:101900004FEA2C1C02F5FA020CFB0EF34FEACE1E36
:101910004FEA112C4FEAC1210EEB635E42EB2242EB
:101920000EFB0CFC4FEA1C5300FB03114FEA112C79
:101930004FEA01310EFB0CFC4FEADC4C00FB0C11B2
:10194000C14228BF09184CEB03335DF804EB10EBE0
:10195000410143EBC250B2F57C0F38BF704729D527
:1019600012F0F00F1CBF00F1C04000F000407047C3
:10197000008182838485868788898B8C8D8E8F9168
:101980009293959697999A9C9D9FA0A2A3A5A7A88C
:10199000AAACAEB0B2B3B5B7B9BCBEC0C2C5C7C9B8
:1019A000CCCED1D4D7D9DCDFE2E6E9ECF0F3F7FA1C
:1019B000FE0000004FEA400C0CF1807CBCF17E4F31
:1019C00028BF7047B0F1C04000F089B890EA010F1D
:1019D0000CEAD11348BF42F48072624538BF6345B8
:1019E00007D213F47F0F16D080EA010000F0004008
:1019F000704710B500F02DF8097EFC3E00F005B8E8
:101A000080EA010000F00040704780EA010000F029
:101A1000004000F064B812F47F0F04BF0248704722
:101A200080EA010000F05BB80000C07FB0FA80F3EC
:101A300010FA03F2C3F19D030AD0D90501EB12207D
:101A4000530638BF704700F1010008BF20F00100C5
:101A500070470EF1020E2EF0030E5EF8044B244286
:101A600004D44FEA4102B2F17F4F11D84FEA40034C
:101A7000B3F17F4F0CD80ED14FEAD07CB2F17F4F3B
:101A80000CEB4C0C0CF1020C08BF4CEBD17C04E0CD
:101A90004FF0080C01E04FEAD17C0CEB4C0324FA28
:101AA00003F404F00704B4F1040C06D20EEB840C2A
:101AB000BDE810404CF0010C6047DFE80CF007086F
:101AC00002024FF00040A0F5800010BD0846420021
:101AD00018BFD2F1807288BF00F0004010BDFF2116
:101AE00041EAD050C0057047010202030405060711
:101AF00008090A0B0C0D0E0F10100000000000006A
:101B00000000010203040607080900002C1B00085E
:101B10000000002020000000280100084C1B0008E5
:101B200020000020F0060000440100080000000032
:101B300000000000000000000000000001000000A4
:0C1B400010000000000000000024F40071
:04000005080000ED02
:00000001FF
