:020000040800F2
:100000006808002089010008131B00087117000808
:10001000111B00088F020008D11F0008000000001B
:10002000000000000000000000000000171B000896
:100030009102000800000000151B0008191B0008B1
:10004000A3010008A3010008A3010008A301000800
:10005000A3010008A3010008A3010008A3010008F0
:10006000A3010008A3010008A3010008A3010008E0
:10007000A3010008A3010008A3010008A3010008D0
:10008000A3010008A3010008A3010008A3010008C0
:10009000A3010008A3010008A3010008A3010008B0
:1000A0007D1B0008A11B0008951B0008891B000888
:1000B000A3010008AD1B0008B91B0008A30100083C
:1000C000A3010008A3010008A3010008A301000880
:1000D000A3010008A3010008A3010008A301000870
:1000E000A3010008A3010008A301000800F002F822
:1000F00000F03AF80AA090E8000C82448344AAF188
:100100000107DA4501D100F02FF8AFF2090EBAE885
:100110000F0013F0010F18BFFB1A43F0010318473B
:10012000BC210000DC210000103A24BF78C878C14F
:10013000FAD8520724BF30C830C144BF04680C60ED
:10014000704700000023002400250026103A28BF35
:1001500078C1FBD8520728BF30C148BF0B60704739
:100160001FB51FBD10B510BD00F058F81146FFF7C0
:10017000F7FF01F03FFF00F076F803B4FFF7F2FF5E
:1001800003BC00F07DF8000009488047094800479B
:10019000FEE7FEE7FEE7FEE7FEE7FEE7FEE7FEE737
:1001A000FEE7FEE704480549054A064B7047000094
:1001B0007B1B0008ED000008680200206808002092
:1001C00068040020680400204FF0000200B51346C8
:1001D00094469646203922BFA0E80C50A0E80C5067
:1001E000B1F12001BFF4F7AF090728BFA0E80C5018
:1001F00048BF0CC05DF804EB890028BF40F8042B11
:1002000008BF704748BF20F8022B11F0804F18BF7D
:1002100000F8012B7047704770477047754600F033
:100220002BF8AE4605006946534620F00700854688
:1002300018B020B5FFF7B6FFBDE820404FF000062C
:100240004FF000074FF000084FF0000B21F00701BE
:10025000AC46ACE8C009ACE8C009ACE8C009ACE801
:10026000C0098D46704710B50446AFF300802046A4
:10027000BDE81040FFF781BF00487047040200202E
:1002800001491820ABBEFEE7260002007047FEE7DA
:10029000704772B6FEE700002DE9F84FDFF8B8911D
:1002A0000024A9F1040B23460F2709F1040AABF13E
:1002B000040EC9E00125A5402A40AA427DD1674E1F
:1002C000D1F804C0ACEB0608B44532D014DCBCF164
:1002D000030F3AD009DCBCF1000F2AD0BCF1010FAA
:1002E0001CD0BCF1020F31D11DE0BCF1110F17D0B1
:1002F000BCF1120F2AD119E0B8F5881F19D006DC1D
:10030000B8F5803F15D0B8F5801F1FD111E0B8F5C2
:10031000001F0ED0B8F5041F18D10AE0CB6815E015
:10032000CB681B1D12E0CB6808330FE0CB680C33A1
:100330000CE08B682BB1012B4FF0080303D0456113
:1003400004E0042302E0056100E00023FF2A01D855
:10035000064601E000F104064FEA840501D9A5F143
:100360002005D6F8008007FA05FC28EA0C0803FAF5
:1003700005F548EA0508C6F800804D68ED0062D52D
:10038000374DAE6946F00106AE61AD6924F0030653
:1003900005F001050095334D06EB050CDCF808501F
:1003A000A607360F07FA06F825EA0805DFF8B88031
:1003B000404503D14FF0000817E044E0DFF8AC807F
:1003C000404502D14FF001080FE0DFF8A48040451E
:1003D00002D14FF0020808E0DFF89880404502D1D2
:1003E0004FF0030801E04FF0040808FA06F848EA65
:1003F0000508CCF808804D68D9F80060ED024D463C
:1004000001D5164300E096432E604D68DAF800608F
:10041000AD02554601D5164300E096432E604D6867
:10042000DBF80060AD035D4601D5164300E096435E
:100430002E604D68DEF80060ED03754601D5164369
:1004400000E096432E60641C0D682A46E5407FF468
:1004500031AFBDE8F88F0000080401400000111022
:10046000001002400000014000080140000C014063
:1004700000100140001401400AB1016170470904F5
:10048000FBE7000001488068704700002000002062
:100490000248816802781144816070472000002082
:1004A000074810B5016841F010010160032000F019
:1004B00075F80F2000F006F800F024F8002010BDB9
:1004C0000020024070B50D4D04464FF47A71287833
:1004D000B1FBF0F00A490968B1FBF0F000F0DCFA7A
:1004E00048B9102C07D200222146501E00F036F8E1
:1004F00000206C6070BD012070BD00002000002055
:100500002C0000200C4808B5816941F0010181618F
:10051000816901F001010091C16941F08051C1611F
:10052000C06900F0805000900448416821F0E0610B
:1005300041F00071416008BD001002400000014020
:10054000002809DB00F01F020121914040098000D2
:1005500000F1E020C0F8001170470000F0B40E4B2D
:100560001B680C46C3F30223C3F10705042D00D911
:100570000425191D072901D2002300E0DB1E0126F6
:1005800006FA05F1491E214099409E40761E16400C
:100590003143F0BC01F01DBD0CED00E0064900F058
:1005A000070208684FF6FF03184040EA0220034A9A
:1005B00010430860704700000CED00E00000FA05F1
:1005C0002DE9F0470F46050061D0434E306800F03A
:1005D0000700B84209D2306820F007003843306085
:1005E000306800F00700B84251D128683B4C8107C1
:1005F00012D5400703D5606840F4E0606060287859
:10060000000703D5606840F4605060606068A968C6
:1006100020F0F000084360602878C00728D06868A0
:10062000012810D02168022810D0890700292EDA6D
:10063000616821F0030101436160FFF723FF8046F9
:1006400041F288390DE021688903EFE78901EDE780
:10065000FFF718FFA0EB0801494502D90320BDE8C8
:10066000F0876068696800F00C00B0EB810FEFD193
:10067000306800F00700B8420BD9306820F007005E
:1006800038433060306800F00700B84201D00120E4
:10069000E5E72878400705D56068E96820F4E06060
:1006A000084360602878000706D56068296920F44F
:1006B000605040EAC100606000F038F86168084AA4
:1006C000C1F30311515CC840064908600648006840
:1006D000FFF7F8FE0020C2E70020024000100240B1
:1006E000C22200082C0000202400002004480549F4
:1006F00000684968044AC1F30221515CC840704750
:100700002C00002000100240D222000804480549B5
:1007100000684968044AC1F3C221515CC84070476F
:100720002C00002000100240D22200080E4A51681E
:100730000E4801F00C03042B11D0082B0FD10C48EC
:10074000C1F38343C903C05C0AD55168084AC1F3A9
:100750004041921E515C054A5043B0FBF1F0704796
:1007600004494843704700000010024000127A001C
:10077000B222000800093D002DE9F84F040070D0B6
:100780002078C04DC00749D06868C0F381000128B7
:1007900007D06868C0F38100022809D16868C003E7
:1007A00006D52868800339D560680028E7D035E091
:1007B0006068B0F5803F0BD010B1B0F5A02F11D01C
:1007C000286820F480302860286820F4802002E027
:1007D000286840F480302860606890B1FFF752FECE
:1007E00006460AE0286840F480202860F0E700BF51
:1007F000FFF748FE801B642873D828688003F7D56C
:100800000CE0FFF73FFE064605E000BFFFF73AFEAB
:10081000801B6428F0D828688003F7D420789A4E8B
:1008200080074FF001094FF0000839D5686810F0D3
:100830000C0F07D06868C0F38100022809D16868EE
:10084000C00306D42868800714D52069012808D180
:1008500010E02069B0B1C6F80090FFF713FE07461C
:1008600005E00AE1FFF70EFEC01B0228C4D8286885
:100870008007F7D52868616920F0F80040EAC100D8
:1008800028600DE0C6F80080FFF7FCFD074604E095
:10089000FFF7F8FDC01B022823D828688007F7D48B
:1008A000207800072CD57948A169D9B1C0F800900B
:1008B000FFF7E8FD074604E0FFF7E4FDC01B022850
:1008C0000FD8686A8007F7D571484FF4FA5100686D
:1008D000B0FBF1F0009000BF0098411E0091FAD2E9
:1008E0000EE080E0C0F80080FFF7CCFD074604E092
:1008F000FFF7C8FDC01B022875D8686A8007F7D4C7
:100900002078400760D5E8690027C00008D4E8696E
:1009100040F08050E861E869012700F080500090C5
:100920005C480168C90513D40168834641F48071AD
:100930000160FFF7A7FD824606E000BFFFF7A2FDBA
:10094000A0EB0A0064284ED8DBF80000C005F5D5FE
:10095000E06801280AD008B1052813D0286A20F0E1
:1009600001002862286A20F0040002E0286A40F0B2
:1009700001002862E06841F2883B98B1FFF782FDF0
:1009800082460BE0286A40F004002862EEE700BFD0
:10099000FFF778FDA0EB0A0159455AD8286A80076D
:1009A000F6D50CE0FFF76EFD824605E0FFF76AFD25
:1009B000A0EB0A0159454CD8286A8007F6D41FB12C
:1009C000E86920F08050E861E06988B36968C1F3A4
:1009D0008101022944D00228C6F8608004D0FFF7C4
:1009E00051FD044638E034E0FFF74CFD074604E0D3
:1009F000FFF748FDC01B02282BD828688001F7D4D8
:100A0000206AB0F5803F05D16868A16820F4003005
:100A100008436860D4E908010843696821F4741147
:100A200008436860C6F86090FFF72CFD044606E0B6
:100A300025E000BFFFF726FD001B022809D8286823
:100A40008001F7D51BE000BFFFF71CFD001B02284B
:100A500002D90320BDE8F88F28688001F4D40EE0A5
:100A60000128F7D06868226A00F48031914204D1ED
:100A7000616A00F47010884201D00120EAE700208A
:100A8000E8E70000001002400000424280044242B9
:100A90002C0000200070004010B5401EB0F1807F97
:100AA00001D3012010BD4FF0E02460610F216017D9
:100AB00001F08FFA0020A06107202061002010BD06
:100AC0007047704770B590F83C20012A26D0012469
:100AD00080F83C40022280F83D2003685A689D68F7
:100AE00022F070060A6832435A600D4B02689A423F
:100AF00008D0B2F1804F05D00A4B9A4202D00A4B7F
:100B00009A4204D1496825F080031943916080F826
:100B10003D40002180F83C10084670BD022070BDA9
:100B2000002C0140000400400008004010B5040003
:100B300003D094F83D0010B107E0012010BD002063
:100B400084F83C00204600F01FF8022084F83D00A5
:100B5000211D206801F036F8012084F8460084F851
:100B60003E0084F83F0084F8400084F8410084F897
:100B7000420084F8430084F8440084F8450084F877
:100B80003D00002010BD000000B585B0002100919F
:100B90000191029103913C4A01683C48914235D150
:100BA000816941F400618161816901F4006104910E
:100BB000816941F0040181618069694600F00400A7
:100BC00004904FF4407000903148FFF765FB00221D
:100BD00011461820FFF7C2FC1820FFF7B1FC0022D5
:100BE00011461920FFF7BAFC1920FFF7A9FC0022D3
:100BF00011461A20FFF7B2FC1A20FFF7A1FC0022D1
:100C000011461B20FFF7AAFC1B2027E0214A914236
:100C100028D1C16941F00201C161C16901F002013D
:100C20000491816941F0080181618069694600F0A1
:100C300008000490102000901748FFF72DFB17487C
:100C4000416821F4406141F0E06141F4006141609C
:100C5000002211461D20FFF781FC1D20FFF770FCCC
:100C600005B000BD0E4A9142FAD1C16941F00401BC
:100C7000C161C069002200F00400049011461E20EA
:100C8000FFF76CFC1E20E9E7002C01400010024039
:100C90000008014000040040000C01400000014039
:100CA0000008004090F83D10012901D00120704754
:100CB000022180F83D100168CA6842F00102CA6052
:100CC00000680B49884208D0B0F1804F05D009492F
:100CD000884202D00849884204D1816801F00701A6
:100CE000062903D0016841F001010160002070472E
:100CF000002C0140000400400008004070B504468C
:100D000090F83C000025012817D0012684F83C60AB
:100D1000022084F83D002068826822F0770222F4E5
:100D20007F4282600868502838D00DDC20284FD0E0
:100D300005DC90B3102811D14AE0022070BD3028A4
:100D400046D040280AD13BE060282FD070280DD033
:100D5000B0F5805F03D0B0F5005F12D0012584F8B4
:100D60003D60002084F83C00284670BDCB68D1E986
:100D70000121206800F069FF2068816841F0770157
:100D800009E0CB68D1E90121206800F05EFF20680E
:100D9000816841F480418160E1E719E0CA684968EF
:100DA000206801F04DF85021206806E0CA684968C3
:100DB000206801F083F86021206800F050FFCEE742
:100DC000CA684968206801F03BF840212068F4E7D0
:100DD000226801461046F0E72DE9F041054600681B
:100DE0002649274F274C884221D1287F012802D04D
:100DF000022816D01BE00021284600F00EFC401C03
:100E0000206001F0F7F90646606801F0F3F9314619
:100E100001F02EF9A0603146384601F029F9E06072
:100E200005E00421284600F0F8FB401C60601649EC
:100E3000286888420AD1287F012809D0022805D1D4
:100E40000421284600F0E9FB401C6061BDE8F08108
:100E50000021284600F0E1FB401C206101F0CAF9A6
:100E60000546606901F0C6F9294601F001F9A06163
:100E70002946384601F0FCF8E061E7E7002C014024
:100E80000024744900000020000400402DE9F041D6
:100E9000054690F83C0000260C46012810D00120A1
:100EA00085F83C0072B1042A1CD0082A2CD00C2AE8
:100EB00050D00126002085F83C003046BDE8F08186
:100EC0000220FBE7D4E90012E368286800F0CAFFBB
:100ED0002868816921F00C01816128688169A26814
:100EE00011430FE0D4E90012E368286800F0F8FF2E
:100EF0002868816921F44061816128688169A2685C
:100F000041EA02218161D5E72868D4E9002C277BDA
:100F1000036A016A21F480710162C16923F40073DC
:100F200021F0030141EA0C0121F0F00C39074FF4E4
:100F300000774CEA116107EA02221A43C16102629A
:100F40002868C16921F00C01C1612868C169A268E3
:100F500011432BE02868D4E90021E768036AD0F840
:100F600020C02CF4805CC0F820C0D0F81CC023F452
:100F700000532CF4407C4CEA012121F4704C4FF6D4
:100F8000FF7101EA07314FF4005741EA0C0107EA0B
:100F900002321A43C16102622868C16921F44061CA
:100FA000C1612868C169A26841EA0221C16181E783
:100FB00010B5040003D094F83D0010B107E0012003
:100FC00010BD002084F83C00204600F01EF80220EE
:100FD00084F83D00211D206800F0F4FD012084F814
:100FE000460084F83E0084F83F0084F8400084F80E
:100FF000410084F8420084F8430084F8440084F8F7
:10100000450084F83D00002010BD704730B504460F
:10101000002551B104290DD0082910D094F84100C1
:1010200094F84520012811D10EE094F83E0094F880
:101030004220F7E794F83F0094F84320F2E794F851
:10104000400094F84420EDE7012A01D0012030BD92
:10105000022059B1042912D0082919D084F841007E
:1010600084F845000C2938D0012534E084F83E008E
:1010700084F842002068C26842F0020210E084F85E
:101080003F0084F843002068C26842F0040207E091
:1010900084F8400084F844002068C26842F00802E6
:1010A000C2600122206800F0C3FD0E49206888421A
:1010B00008D0B0F1804F05D00B49884202D00B49CF
:1010C000884204D1816801F00701062903D0016834
:1010D00041F001010160284630BD2068C26842F03D
:1010E0001002DDE7002C0140000400400008004031
:1010F00070B50446006801694FF00005C9438907CF
:1011000015D4C168C943890711D4E91E01610120C2
:101110002077206880698007204602D0FFF75CFEB8
:1011200004E000F0D5F8204600F078F92577206833
:101130000169C943490717D4C168C943490713D492
:101140006FF004010161022020772068806910F4AB
:10115000407F204602D0FFF73FFE04E000F0B8F8E1
:10116000204600F05BF9257720680169C94309072B
:1011700016D4C168C943090712D46FF00801016190
:10118000042020772068C0698007204602D0FFF73E
:1011900023FE04E000F09CF8204600F03FF925779C
:1011A00020680169C943C90617D4C168C943C90683
:1011B00013D46FF010010161082020772068C06906
:1011C00010F4407F204602D0FFF706FE04E000F056
:1011D0007FF8204600F022F9257720680169C9438D
:1011E000C90708D1C168C943C90704D1891E016173
:1011F000204600F011FA20680169C943090609D4A4
:10120000C168C943090605D46FF080010161204619
:10121000FFF756FC20680169C943490609D4C16833
:10122000C943490605D46FF040010161204600F032
:1012300034FA20680169C94389060BD4C168C943DF
:10124000890607D46FF0200101612046BDE8704097
:10125000FFF737BC70BD000000B585B000210091DC
:10126000019102910391026815480221B2F1804F69
:1012700016D0144B9A4211D1826942F00802826161
:101280008069039100F0080004904FF47070CDE97C
:1012900000010D48694600BFFEF7FEFF05B000BD26
:1012A000826942F0040282618069039100F00400C7
:1012B00004900320CDE9000169460448ECE70000F2
:1012C0000010024000080040000C014000080140EE
:1012D000704770B5044690F83C0000260D46012882
:1012E0000FD0012084F83C006AB1042A1DD0082ADE
:1012F0002FD00C2A3FD00126002084F83C00304635
:1013000070BD022070BD206800F0B2FC20688169C9
:1013100041F0080181612068816921F00401816147
:10132000206881692A69114311E0206800F0C8FC37
:101330002068816941F4006181612068816921F43C
:1013400080618161206881692A6941EA02218161A5
:10135000D2E7206800F0E0FC2068C16941F0080194
:10136000C1612068C16921F00401C1612068C169BF
:101370002A69114311E0206800F0FAFC2068C16975
:1013800041F40061C1612068C16921F48061C161DB
:101390002068C1692A6941EA0221C161ACE710B540
:1013A000040003D094F83D0010B107E0012010BD07
:1013B000002084F83C00204600F01EF8022084F84B
:1013C0003D00211D206800F0FDFB012084F846004F
:1013D00084F83E0084F83F0084F8400084F841001F
:1013E00084F8420084F8430084F8440084F84500FF
:1013F00084F83D00002010BD08B50068B0F1804FB2
:1014000008D10548C16941F00101C161C06900F01E
:101410000100009008BD00000010024070B50646B3
:1014200000681D49884236D11C4C002505EBC501DA
:10143000336854F8210002689A4229D1327F012A88
:1014400006D0022A09D0042A0DD0082A11D01FE0A4
:1014500004EB810252688AB11AE004EB81025268FF
:10146000042A0BD014E004EB81025268082A05D04C
:101470000EE004EB810252680C2A09D104EB8102D0
:10148000D16811B1491ED16002D1516800F06CF8E9
:101490006D1C032DCAD370BD000800403000002031
:1014A00030B500250446022249B1042912D008298A
:1014B0003ED094F84100012845D0012030BD94F879
:1014C0003E000128F9D184F83E202068C26842F02D
:1014D000020209E094F83F000128EED184F83F2091
:1014E0002068C26842F00402C2600122206800F055
:1014F0009FFB1A492068884203D1426C42F40042A3
:1015000042642068884208D0B0F1804F05D0144969
:10151000884202D01349884204D1816801F0070152
:10152000062903D0016841F001010160284630BD61
:1015300094F840000128C0D184F840202068C26897
:1015400042F00802D0E784F841200C2901D001259F
:10155000ECE72068C26842F01002C5E7002C0140A9
:10156000000400400008004070B50D0004464FF034
:10157000000607D0042D0AD0082D0DD00C2D10D058
:1015800001263CE02068C16821F002010DE02068DE
:10159000C16821F0040108E02068C16821F0080159
:1015A00003E02068C16821F01001C16000222946D3
:1015B000206800F03DFB174B41F2111120688A10A2
:1015C000984209D1036A0B4206D1036A134203D140
:1015D000436C23F4004343642068036A0B4206D142
:1015E000016A114203D1016821F00101016001206B
:1015F0003DB1042D08D0082D09D084F841003046B3
:1016000070BD84F83E00FAE784F83F00F7E784F8FD
:101610004000F4E7002C014070470246002041B131
:10162000042909D008290AD00C2901D11068006CBE
:1016300070471068406B70471068806B7047106887
:10164000C06B704770B5044690F83C00012812D07A
:10165000012584F83C50022084F83D00204600F02B
:10166000A9FB01004FF0000007D084F83D5084F83A
:101670003C00012070BD022070BD2168CA6822F0C4
:101680004002CA602168CA6822F48042CA6084F8B5
:101690003D5084F83C00002070BD704770B50400D8
:1016A00004D094F84100002510B106E0012070BD7F
:1016B00084F84050204600F023F8242084F84100AC
:1016C0002068C16821F40051C160204600F024FC6C
:1016D0002068016921F4904101612068416921F08D
:1016E0002A0141612068C16841F40051C16065640C
:1016F000202084F8410084F842006563002070BD1A
:1017000030B585B0002400940194029403940068DD
:101710001449884223D11448C16941F40031C161A0
:10172000C16901F400310491816941F004018161D2
:1017300080690E4D00F00400049004200090022007
:1017400001900320039069462846FEF7A5FD082076
:10175000CDE90004694628460294FEF79DFD05B0D8
:1017600030BD00000044004000100240000801406D
:10177000FEE7000030B585B000241C4800940194B9
:1017800002940394816941F010018161816901F043
:1017900010010491816941F020018161816901F0AA
:1017A00020010491816941F004018161816901F0A6
:1017B00004010491816941F00801816180690C4D47
:1017C00000F0080004900022F0212846FEF754FEA5
:1017D000F02000900120CDE9010402200390694629
:1017E0002846FEF759FD05B030BD0000001002404C
:1017F0000008014010B590B0002409940A940B949D
:10180000142104A80C94FEF7DFFC2D480D940E94CF
:101810000094019402942949039401604721C0E98E
:1018200001144FF6FF71C0E9031444618461FFF7AE
:101830007DF908B1FEF72DFD4FF48050099009A9FC
:101840001F48FFF75BFA08B1FEF723FD1C48FFF7BE
:10185000AFFB08B1FEF71DFD042004905020CDE938
:10186000050404A916480894FFF7ECFE08B1FEF73A
:1018700010FD0D940DA912480E94FFF723F908B13D
:10188000FEF707FD0120CDE90040029400226946E1
:101890000B480394FFF7FAFA08B1FEF7FAFC0220AE
:1018A00000900190042269460548FFF7EFFA0028EE
:1018B00001D0FEF7EEFC10B010BD0000002C01407E
:1018C0009C00002010B58AB0002407941C216846B3
:1018D0000894FEF779FC19484FF08041C0E90014E4
:1018E0004FF6FF71C0E9024104618461FFF757FDC3
:1018F00008B1FEF7CEFC079407A910480894FFF73B
:10190000E1F808B1FEF7C5FC6020CDE900040294BF
:101910000022694609480494FFF7DBFC08B1FEF792
:10192000B8FC042269460548FFF7D3FC08B1FEF76E
:10193000B0FC0248FFF790FC0AB010BDE4000020A4
:1019400010B590B0002409940A940B94142104A8B3
:101950000C94FEF739FC2C480D940E9400940194DD
:1019600002942849039401604721C0E901144FF60D
:10197000FF71C0E903148461FFF7D8F808B1FEF7DE
:1019800088FC4FF48050099009A91F48FFF7B6F969
:1019900008B1FEF77EFC1C48FFF70AFB08B1FEF712
:1019A00078FC042004905020CDE9050404A91648D1
:1019B0000894FFF747FE08B1FEF76BFC0D940DA9E4
:1019C00011480E94FFF77EF808B1FEF762FC012083
:1019D000CDE900400294002269460B480394FFF7CA
:1019E00055FA08B1FEF755FC022000900190042240
:1019F00069460548FFF74AFA002801D0FEF749FC7E
:101A000010B010BD000400402C01002010B58EB0B5
:101A100000240794089409940A940B941C216846A6
:101A20000C94FEF7D1FB2B48294901604721C0E9FE
:101A3000011440F2E731C0E9031480218161FFF70E
:101A400075F808B1FEF725FC4FF48050079007A900
:101A50002048FFF753F908B1FEF71BFC1D48FFF7BC
:101A60009EFC08B1FEF715FC0B940BA919480C94C9
:101A7000FFF728F808B1FEF70CFC6020CDE9000460
:101A800002940022694613480494FFF722FC08B12F
:101A9000FEF7FFFB042269460E48FFF71AFC08B167
:101AA000FEF7F7FB082269460A48FFF712FC08B167
:101AB000FEF7EFFB0C2269460648FFF70AFC08B167
:101AC000FEF7E7FB0348FFF7C7FB0EB010BD0000B1
:101AD00000080040740100200C4810B50A4901605C
:101AE0004FF4E1314160002181600C22C160C0E906
:101AF00004128161C161FFF7D1FD002803D0BDE868
:101B00001040FEF7C6BB10BD00440040BC010020E1
:101B1000FEE7FEE770477047FEF7BABC30B58FB0FE
:101B200028216846FEF750FB14210AA8FEF74CFB5B
:101B300001210804CDE9001000240294022504913B
:101B4000CDE907504FF4E01009906846FEF714FE07
:101B500008B172B6FEE70F20CDE90A054FF48060A8
:101B6000CDE90C4002210AA80E94FEF729FD0028B9
:101B700001D072B6FEE70FB030BD70470148FFF7E5
:101B8000B7BA00009C0000200148FFF7B1BA00007E
:101B90009C0000200148FFF7ABBA00009C00002029
:101BA0000148FFF7A5BA00009C0000200148FFF79C
:101BB0009FBA00002C0100200148FFF799BA0000ED
:101BC00074010020F0B50268164B174C174D4FF00A
:101BD0008047984205D0B84203D0A04201D0A84225
:101BE00003D122F070064A683243984205D0B842C9
:101BF00003D0A04201D0A84203D122F44074CA68A5
:101C000022434C6922F08002224302608A68C26249
:101C10000A688262984201D1096901630121416128
:101C2000F0BD0000002C014000040040000800400E
:101C300010B501F01F030121046A99408C4304622E
:101C4000016A9A401143016210BD10B5846842EAEE
:101C5000032224F47F440A432243826010BD826839
:101C600022F070020A4342F00701816070470000D1
:101C700030B5036A026A22F0010202624268846996
:101C800024F073050C682C4323F002058B682B436A
:101C90000A4DA8420BD123F00805CB6822F440720C
:101CA0002B434D6923F0040315438A692A4342609C
:101CB000846149684163036230BD0000002C01402B
:101CC00030B5026A036A23F0100303624368846933
:101CD0000D6824F4E64444EA05248D6822F02002CD
:101CE00042EA05120B4DA8420ED1CD6822F08002C7
:101CF00042EA05124D6923F4406343EA85038D6986
:101D000022F0400243EA85034360846149688163AD
:101D1000026230BD002C014030B5036A026A22F431
:101D2000807202624268C46923F4007324F0730570
:101D30000C682C438D6843EA05230C4DA8420ED154
:101D4000CD6823F4006343EA05234D6922F4405231
:101D500042EA05128D6923F4806342EA051242606B
:101D6000C4614968C163036230BD0000002C0140BA
:101D700030B5046A026A22F4805202624268C36982
:101D80000D6823F4E64343EA05238D6824F40054E8
:101D900044EA0534064DA84204D14D6922F480423C
:101DA00042EA85124260C36149680164046230BD41
:101DB000002C014070B5036800249A6822F0700579
:101DC0004A682A4322F007050A682A439A604A684B
:101DD00012F00F0F31D11211082A2ED2DFE802F0D3
:101DE0002E2E2E2E0B2127040B69D1E9022100682B
:101DF000FFF72BFF22E00A68052A10D00268136A59
:101E0000156A25F00105156202689569096925F0D2
:101E1000F00545EA01119161006803620EE00120BE
:101E200070BD0A698968006800F00AF806E00A696E
:101E30008968006800F042F800E00124204670BD87
:101E400010B5036A046A24F001040462846924F072
:101E5000F00444EA021423F00A020A438461026295
:101E600010BD000070B5056A046A24F00104046224
:101E700084690F4EB04208D0B0F1804F05D00D4EAE
:101E8000B04202D00C4EB04203D124F003041443FC
:101E900001E044F001041A0724F0F00444EA12625D
:101EA00025F00A0301F00A0119438261016270BD45
:101EB000002C0140000400400008004010B5036AF7
:101EC000046A24F010040462846923F0A00324F45B
:101ED000704444EA023243EA01118261016210BD9A
:101EE00030B5046A056A25F010050562856925F498
:101EF000407545EA022222F470454FF6FF7202EA6D
:101F0000033224F0A0032A43A02404EA0111194358
:101F10008261016230BD000070B50446006801694D
:101F2000E26821F44051114301612169A06808432E
:101F3000616908432168CA6841F20C639A4302430D
:101F4000CA6020684169A26921F44071114341616E
:101F50001E492068884202D1FEF7D8FB01E0FEF757
:101F6000C5FB00EBC00101EB00126068642180003A
:101F7000B2FBF0F3B3FBF1F36FF018067343B2FB5F
:101F8000F0F5B2FBF0F605EB8305322303EB051504
:101F9000B5FBF1F5B6FBF1F605F0F00505EB06151E
:101FA000B2FBF0F6B2FBF0F0B0FBF1F06FF018020C
:101FB000504306EB800003EB0010B0FBF1F021680A
:101FC00000F00F002844886070BD00000038014018
:101FD000FEE70907090E002804DB00F1E02080F885
:101FE0000014704700F00F0000F1E02080F8141D8D
:101FF00070470000FEF754FAFFF790FDFFF7BAFBB9
:10200000FFF760FCFFF702FDFFF766FDFFF798FCA6
:10201000FFF7F0FB00211348FEF7F8FF04211148F9
:10202000FEF7F4FF00211048FEF7F0FF04210E48F0
:10203000FEF7ECFF0B48FEF735FE0B48FEF732FECD
:1020400000210A48FFF72CFA04210848FFF728FA74
:1020500008210648FFF724FA0C210448FFF720FA6C
:10206000FEE700009C0000202C01002074010020ED
:102070004FF47F0C1CEAD0121EBF1CEAD11392EA67
:102080000C0F93EA0C0F00F0858090EA010F48BF17
:1020900042F4807240F4000C41F400002CF07F41C7
:1020A00020F07F4000B58142A2EB03020FF2081C32
:1020B000ACEB504EC0F100009EF800E04FEA4E0E2F
:1020C00000FB0EFC38BF49004FEA2C1C02F5FA0257
:1020D0000CFB0EF34FEACE1E4FEA112C4FEAC12142
:1020E0000EEB635E42EB22420EFB0CFC4FEA1C53EC
:1020F00000FB03114FEA112C4FEA01310EFB0CFCDF
:102100004FEADC4C00FB0C11C14228BF09184CEB14
:1021100003335DF804EB10EB410143EBC250B2F521
:102120007C0F38BF704729D512F0F00F1CBF00F1AB
:10213000C04000F00040704700818283848586871C
:1021400088898B8C8D8E8F919293959697999A9C76
:102150009D9FA0A2A3A5A7A8AAACAEB0B2B3B5B7E5
:10216000B9BCBEC0C2C5C7C9CCCED1D4D7D9DCDFBB
:10217000E2E6E9ECF0F3F7FAFE0000004FEA400C6B
:102180000CF1807CBCF17E4F28BF7047B0F1C0409D
:1021900000F089B890EA010F0CEAD11348BF42F46D
:1021A0008072624538BF634507D213F47F0F16D0A3
:1021B00080EA010000F00040704710B500F02DF8F3
:1021C000097EFC3E00F005B880EA010000F0004006
:1021D000704780EA010000F0004000F064B812F49B
:1021E0007F0F04BF0248704780EA010000F05BB82F
:1021F0000000C07FB0FA80F310FA03F2C3F19D0330
:102200000AD0D90501EB1220530638BF704700F100
:10221000010008BF20F0010070470EF1020E2EF001
:10222000030E5EF8044B244204D44FEA4102B2F19B
:102230007F4F11D84FEA4003B3F17F4F0CD80ED136
:102240004FEAD07CB2F17F4F0CEB4C0C0CF1020C3E
:1022500008BF4CEBD17C04E04FF0080C01E04FEAE2
:10226000D17C0CEB4C0324FA03F404F00704B4F122
:10227000040C06D20EEB840CBDE810404CF0010CAF
:102280006047DFE80CF0070802024FF00040A0F5BD
:10229000800010BD0846420018BFD2F1807288BF8E
:1022A00000F0004010BDFF2141EAD050C00570474A
:1022B000010202030405060708090A0B0C0D0E0FA4
:1022C00010100000000000000000010203040607D7
:1022D000080900000000010203040000FC220008BD
:1022E000000000209C00000028010008982300083E
:1022F0009C000020CC070000440100080000000002
:1023000000000000000000000000000000000000CD
:1023100000000000000000000000000001000000BC
:1023200010000000000000000024F40074010020F0
:10233000000000006666E63F0000000000000000AC
:102340000008014010000000000000000000000034
:1023500074010020040000006666E63F00000000F3
:102360000000000000080140200000000000000004
:102370000000000074010020080000006666E63FCF
:1023800000000000000000000008014040000000C4
:08239000000000000000000045
:04000005080000ED02
:00000001FF
