:020000040801F1
:1000000048DE0020E9020108BB160108C5150108F9
:10001000B91601081F060108C91A010800000000EE
:10002000000000000000000000000000290201089C
:10003000210601080000000085020108D51601080C
:100040000303010803030108030301080303010874
:100050000303010803030108030301080303010864
:100060000303010803030108030301080303010854
:100070000303010803030108030301080303010844
:100080000303010803030108030301080303010834
:100090000303010803030108030301080303010824
:1000A0000303010803030108030301080303010814
:1000B0000303010803030108030301080303010804
:1000C00003030108030301080303010803030108F4
:1000D00003030108B11A0108BD1A0108030301084E
:1000E00003030108030301080303010803030108D4
:1000F00003030108A1170108030301080303010812
:1001000003030108030301080303010803030108B3
:1001100003030108030301080303010803030108A3
:100120000303010803030108030301080303010893
:100130000303010803030108030301080303010883
:100140000303010803030108030301080303010873
:100150000303010803030108030301080303010863
:100160000303010803030108030301080303010853
:100170000303010803030108030301080000000052
:10018000030301080303010800F002F800F03CF843
:100190000AA090E8000C82448344AAF10107DA45E2
:1001A00001D100F031F8AFF2090EBAE80F0013F0F8
:1001B000010F18BFFB1A43F0010318475C30000021
:1001C0007C300000103A24BF78C878C1FAD85207B2
:1001D00024BF30C830C144BF04680C6070470000C1
:1001E0000023002400250026103A28BF78C1FBD840
:1001F000520728BF30C148BF0B6070471FB502F0DF
:10020000B1FF1FBD10B510BD00F0D0F91146FFF7CA
:10021000F5FF01F06AFC00F0EEF903B4FFF7F2FF1E
:1002200003BC00F0F5F900002C4B19680868B0E831
:10023000F04F80F30988BFF36F8F4FF0000080F319
:10024000118870470000000008480068006880F3CB
:1002500008884FF0000080F3148862B661B6BFF3DF
:100260004F8FBFF36F8F00DF00BF00BF08ED00E0CE
:10027000DFF80C00016841F470010160704700BFB5
:1002800088ED00E0EFF30980BFF36F8F134B1A681E
:100290001EF0100F08BF20ED108A20E9F04F10600B
:1002A00009B44FF0500080F31188BFF34F8FBFF3B4
:1002B0006F8F02F029FA4FF0000080F3118809BC1B
:1002C00019680868B0E8F04F1EF0100F08BFB0ECD6
:1002D000108A80F30988BFF36F8F70471C000020DD
:1002E000EFF3058070470000094880470948004740
:1002F000FEE7FEE7FEE7FEE7FEE7FEE7FEE7FEE7D6
:10030000FEE7FEE704480549054A064B7047000032
:10031000851701088901010848D8002048DE00201F
:1003200048DA002048DA002053EA020C00F0698025
:100330002DE9F04B4FF00006002B1FBFB3FA83F5F9
:1003400003FA05F424FA05F65E4012BF1643B2FA2A
:1003500082F502FA05F4C5F120051EBF22FA05FC5C
:1003600044EA0C04203556EA044C4FEA144418BF02
:10037000641C4FF000084FF00009904271EB030C31
:1003800039D3002919BFB1FA81F701FA07F6B0FA9B
:1003900080F700FA07F6C7F120071EBF20FA07FC16
:1003A00046EA0C062037B6FBF4FCA7EB0507103F26
:1003B00007F01F0BCBF120060CFA0BFB2CFA06F60C
:1003C00044BFB3460026202FA4BF5E464FF0000B6B
:1003D0005BEA060C08BF4FF0010B19EB0B09ABFBF6
:1003E000027C48EB0608C01B06FB02CC0BFB03CCCF
:1003F00071EB0C01C1E70B46024641464846BDE899
:10040000F08B13B54FF000004FF00001AFF3008008
:10041000BDE81C407047032A40F2308010F0030C06
:1004200000F0158011F8013BBCF1020F624498BF47
:1004300011F801CB00F8013B38BF11F8013BA2F1E4
:10044000040298BF00F801CB38BF00F8013B11F05F
:10045000030300F05780083AC0F0088051F8043BCD
:10046000083A51F804CBA0E80810F5E7121D5CBF6C
:1004700051F8043B40F8043BAFF30080D20724BF9F
:1004800011F8013B11F801CB48BF11F8012B24BF33
:1004900000F8013B00F801CB48BF00F8012B704782
:1004A00002F0FF0343EA032242EA024200F05EB890
:1004B0004FF0000200B5134694469646203922BFFD
:1004C000A0E80C50A0E80C50B1F12001BFF4F7AF48
:1004D000090728BFA0E80C5048BF0CC05DF804EB2A
:1004E000890028BF40F8042B08BF704748BF20F898
:1004F000022B11F0804F18BF00F8012B7047704796
:100500007047704710B5203AC0F00B80B1E8185022
:10051000203AA0E81850B1E81850A0E81850BFF4ED
:10052000F5AF5FEA027C24BFB1E81850A0E818508C
:1005300044BF18C918C0BDE810405FEA827C24BFE0
:1005400051F8043B40F8043B08BF7047D20728BF6E
:1005500031F8023B48BF11F8012B28BF20F8023BBD
:1005600048BF00F8012B70474FF000020429C0F08B
:10057000128010F0030C3FF49DAFCCF1040CBCF1E1
:10058000020F18BF00F8012BA8BF20F8022BA1EB27
:100590000C01FFF78FBF5FEAC17C24BF00F8012B7D
:1005A00000F8012B48BF00F8012B7047754600F09A
:1005B0002BF8AE4605006946534620F007008546F5
:1005C00018B020B5FFF79EFEBDE820404FF00006B2
:1005D0004FF000074FF000084FF0000B21F007012B
:1005E000AC46ACE8C009ACE8C009ACE8C009ACE86E
:1005F000C0098D46704710B50446AFF30080204611
:10060000BDE81040FFF709BE00487047E4D700205E
:1006100001491820ABBEFEE7260002007047FEE746
:10062000704772B6FEE72DE9F0410446876D00F091
:100630004DF9064694F835000025022806D08020A2
:10064000606584F834500120BDE8F08120680168BD
:1006500021F0160101602068416921F080014161AB
:10066000206C08B9A06C20B12068016821F0080155
:1006700001602068016821F0010101600CE000F0D8
:1006800025F9801B052807D920206065032084F800
:10069000350084F83450D7E720680068C007EED1F1
:1006A00094F85C103F208840B860012084F8350041
:1006B00084F834500020C7E790F83510022903D0A1
:1006C0008021416501207047052180F835100068C0
:1006D000016821F001010160002070472DE9F84F09
:1006E000DFF8BCA10022012503264FF00F090AF113
:1006F000040BAAF1040E00BF0B6805FA02F42340B4
:10070000A34270D10F7907F00307012F01D0022F08
:1007100016D187684FEA420806FA08FC27EA0C0758
:10072000D1F80CC00CFA08FC4CEA070CC0F808C061
:100730004768A7430C79C4F3001494403C434460D9
:100740000C79E443A4070AD0C4684FEA420C06FAC5
:100750000CF7BC438F6807FA0CF72743C7600C7986
:1007600004F00304022C12D1D40800EB840CDCF852
:1007700020405707FF0E09FA07F824EA0804D1F8C9
:10078000108008FA07F848EA0408CCF820800468CA
:100790004FEA420C06FA0CF7BC430F7907F0030747
:1007A00007FA0CF7274307604C6814F4403F70D0F9
:1007B0003C4C276847F480472760246822F00307F1
:1007C00004F480440094384C07EB040CDCF808482F
:1007D00097074FEA177809FA08F7BC43334FB84236
:1007E00002D1002724E054E0314FB84201D1012763
:1007F0001EE0304FB84201D1022719E02E4FB84217
:1008000001D1032714E02D4FB84201D104270FE096
:100810002B4FB84201D105270AE02A4FB84201D137
:10082000062705E0284FB84201D1072700E0082736
:1008300007FA08F72743CCF80878DAF8004057465B
:10084000D1F804C09C435FEACC2C00D51C433C602B
:10085000DBF800405F46D1F804C09C435FEA8C2C73
:1008600000D51C433C60DEF800407746D1F804C058
:100870009C435FEA8C3C00D51C433C60084F083F1A
:100880003C68D1F804C09C435FEACC3C00D51C43D3
:100890003C60521C102AFFF42FAFBDE8F88F000017
:1008A000083C014044380240003001400000024052
:1008B0000004024000080240000C02400010024008
:1008C0000014024000180240001C024001488068E9
:1008D000704700000C000020024881680278114433
:1008E000816070470C0000200B4810B5016841F48E
:1008F00000710160016841F480610160016841F4A8
:1009000080710160032000F09FF80F2000F006F8CE
:1009100000F050F8002010BD003C024030B5054604
:100920001F4887B00024016841F4807101600068AD
:1009300006A900F48070009001A800F031F9049835
:10094000A8B100F04DF940001649174AB0FBF1F18B
:100950001648491E026040F2E732C0E90324C0E9AC
:100960000114846100F046FB040003D015E000F0A0
:1009700037F9E9E70D4800F06BFB04000DD12D209D
:1009800000F034F8102D07D2002229462D2000F067
:100990003BF80748056000E0012407B0204630BD61
:1009A0004038024040420F0000200040C88E002026
:1009B000100000200C4882B0016841F480410160C1
:1009C000006800F4804000900748001F016841F073
:1009D000805101600068002200F0805000900F21DB
:1009E000901E02B000F010B844380240002809DB25
:1009F00000F01F02012191404009800000F1E02039
:100A0000C0F8001170470000F0B40E4B1B680C4694
:100A1000C3F30223C3F10705042D00D90425191DD2
:100A2000072901D2002300E0DB1E012606FA05F1AA
:100A3000491E214099409E40761E16403143F0BC2D
:100A400001F043B80CED00E0064900F00702086829
:100A50004FF6FF03184040EA0220034A10430860A3
:100A6000704700000CED00E00000FA052DE9F047AA
:100A70000E46050065D0DFF81481D8F80000F7B203
:100A800000F00700B04207D288F80070D8F80000E4
:100A900000F00700B04254D128683D4C810712D5C0
:100AA000400703D5206840F4E05020602878000714
:100AB00003D5206840F4604020602068A96820F0D9
:100AC000F000084320602878C0072DD030496868BE
:100AD0000839012812D0022813D0032811D0096840
:100AE000890700292DDA216821F0030101432160E3
:100AF000FFF7ECFE814641F2883A0EE0096889036F
:100B0000EFE709688901ECE7FFF7E0FEA0EB0901D8
:100B1000514502D90320BDE8F0872068696800F0DC
:100B20000C00B0EB810FEFD1D8F80010404601F077
:100B30000701B14207D90770006800F00700B04212
:100B400001D00120E7E72878400705D52068E9684B
:100B500020F4E050084320602878000706D520687C
:100B6000296920F4604040EAC100206000F058F894
:100B70002168084AC1F30311515CC8400649086066
:100B800006480068FFF7CAFE0020C4E7003C0240A8
:100B900008380240DC310108180000201000002055
:100BA0000F2202600C4A136803F0030343601368CA
:100BB00003F0F0038360136803F4E053C36012682A
:100BC0004FF4E05303EAD20202610448006800F0E7
:100BD000070008607047000008380240003C0240EF
:100BE0000448054900680968044AC1F38221515C40
:100BF000C84070471800002008380240EC31010856
:100C00000448054900680968044AC1F34231515C4F
:100C1000C84070471800002008380240EC31010835
:100C2000154810B5006810F00C02144813D0144990
:100C3000042A0FD0082A0ED10F4C241F22682368E3
:100C400002F03F025B0207D52068C0F38810A0FBCA
:100C5000010106E0084610BD2168C1F38811A1FB1F
:100C600000010023FFF760FB2168C1F30141491C2B
:100C70004900B0FBF1F010BD083802400024F40038
:100C800040787D012DE9F84F04006ED02078DFF820
:100C90004C93C007A9F104054AD009F1040001688A
:100CA000C1F38101012908D00068C0F38100022846
:100CB0000AD1D9F80000400206D52868800337D54C
:100CC00060680028E1D033E06068B0F5803F10D064
:100CD000B0F5A02F286810D020F480302860286854
:100CE00020F4802028606068A8B1FFF7EFFD064679
:100CF0000DE0286840F48030F4E740F4802028605C
:100D0000F7E700BFFFF7E2FD801B642873D828686F
:100D10008003F7D50CE0FFF7D9FD064605E000BFDC
:100D2000FFF7D4FD801B6428F0D828688003F7D42F
:100D30002078DFF8AC8280074FF0000A3ED5A74844
:100D4000001D016811F00C0F08D00068C0F381008D
:100D500002280BD1D9F80000400207D42868800788
:100D600016D5E068012800D112E033E1E068B8B19F
:100D70000120C8F80000FFF7A9FD064605E000BF06
:100D8000FFF7A4FD801B0228C0D828688007F7D58C
:100D90002868216920F0F80040EAC10028600DE0D1
:100DA000C8F800A0FFF792FD064604E0FFF78EFDAD
:100DB000801B02281FD828688007F7D420780007F6
:100DC00022D5864F87486169703771B10121016072
:100DD000FFF77CFD064604E0FFF778FD801B022844
:100DE00009D838688007F7D50EE0C0F800A0FFF7F3
:100DF0006DFD064605E082E0FFF768FD801B0228D6
:100E00007DD838688007F7D42078400768D5DFF8A8
:100E1000CCB100270BF13C0BDBF80000C0000BD479
:100E2000DBF8001041F08051CBF80010DBF8000037
:100E3000012700F0805000906B4E3068C00510D440
:100E4000306840F480703060FFF740FD009005E0AE
:100E5000FFF73CFD0099401A022850D83068C005C1
:100E6000F6D55E4EA0686C3601280FD00528306894
:100E700010D020F001003060306820F004003060B5
:100E8000A068B8B1FFF722FD00900FE0306840F095
:100E90000100F4E740F004003060F7E7FFF716FDCB
:100EA0000099411A41F28830814266D83068800743
:100EB000F4D50EE0FFF70AFD009007E0FFF706FD0E
:100EC0000099411A41F28830814256D83068800733
:100ED000F4D42FB1DBF8001021F08051CBF80010D2
:100EE000A069C8B33D49091D0968C1F38101022900
:100EF0004AD00228504607D0C8F8600000E03CE025
:100F0000FFF7E4FC04463BE04746C8F86000FFF703
:100F1000DDFC064605E000BFFFF7D8FC801B022879
:100F20002BD828688001F7D4D4E907010843A16AC7
:100F30002E4A490802EB0141626A41EA82110843E4
:100F400094F82C1040EA0161C9F8001001203866BD
:100F5000FFF7BCFC044606E03EE000BFFFF7B6FC2E
:100F6000001B022809D828688001F7D534E000BFAB
:100F7000FFF7ACFC001B022802D90320BDE8F88F64
:100F800028688001F4D427E00128F7D0D9F80000C0
:100F9000E26900F4800191421CD1226A00F03F0115
:100FA000914217D147F6C071626A0140B1EB821FCE
:100FB00010D1A26A4FF0FF3300F4403103EB52022C
:100FC000B1EB024F06D194F82C1000F07060B0EB3A
:100FD000016F01D00120D1E70020CFE704380240A3
:100FE00000004742800E4742007000400000FFFFB3
:100FF0007047704710B5040003D094F83D0010B15D
:1010000007E0012010BD002084F83C00204600F0DD
:101010001EF8022084F83D00211D206800F0C6FB68
:10102000012084F8460084F83E0084F83F0084F8EC
:10103000400084F8410084F8420084F8430084F8BA
:10104000440084F8450084F83D00002010BD70473E
:1010500090F83D10012901D001207047022180F84D
:101060003D100168CA6842F00102CA600068114977
:10107000884214D0B0F1804F11D00F4988420ED071
:101080000E4988420BD00E49884208D00D4988424B
:1010900005D00D49884202D00C49884204D18168AC
:1010A00001F00701062903D0016841F00101016048
:1010B000002070470000014000040040000800408C
:1010C000000C0040000401400040014000180040B6
:1010D00070472DE9F04104460068C66805694FF085
:1010E0000007A90713D5B10711D5F91E0161012029
:1010F0002077206880698007204602D0FFF7E8FF4C
:1011000004E000F07EF8204600F07CF827776807BE
:1011100016D5700714D521686FF00400086102200D
:1011200020772068806910F4407F204602D0FFF7C6
:10113000CFFF04E000F065F8204600F063F8277761
:10114000280715D5300713D521686FF0080008610E
:10115000042020772068C0698007204602D0FFF76E
:10116000B7FF04E000F04DF8204600F04BF8277779
:10117000E80616D5F00614D521686FF01000086156
:10118000082020772068C06910F4407F204602D0F4
:10119000FFF79EFF04E000F034F8204600F032F83C
:1011A0002777E80708D0F00706D021686FF0010024
:1011B0000861204600F028F8280608D5300606D534
:1011C00021686FF0800008612046FFF711FF680674
:1011D00008D5700606D521686FF0400008612046EA
:1011E00000F01CF8A8060AD5B00608D521686FF0F3
:1011F000200008612046BDE8F041FFF7FABEBDE8D7
:10120000F08170477047000000680349884201D1AF
:10121000FFF762BB70470000002000407047704736
:1012200070470000F8B5016804460868CA684B6951
:1012300010F00F0F4FF0000559D003F0010602F433
:101240009077374365D0C10705D0D10503D5616CD0
:1012500041F001016164410705D5D90703D0616CF4
:1012600041F002016164810705D5D90703D0616CA3
:1012700041F004016164010707D502F02001314308
:1012800003D0616C41F008016164616C00293AD0BF
:10129000800604D5900602D5204600F022FB206887
:1012A0004069616CC0F38010090700D460B3204628
:1012B00000F0F0FA20684069400621D5206814301B
:1012C00050E8001F21F0400140E80012002AF5D14B
:1012D000E06BA8B16E490165E06BFFF7EDF90028FE
:1012E00011D0E06B016D01B0BDE8F0400847830606
:1012F0000FD593060DD52046BDE8F84000F0F1BAB1
:101300002046FFF78DFFF8BD2046FFF789FF656493
:10131000F8BD266B2023012E7DD1C6067BD5D606CF
:1013200079D508684868009048694FF00206400681
:1013300041D5E16B086840680004000CE8D0A28D3C
:101340008242E5D9E085C869B0F5807F2DD020685C
:101350000C3050E8001F21F4807140E80012002A90
:10136000F5D12068143050E8001F21F0010140E859
:101370000012002AF5D12068143050E8001F21F037
:10138000400140E80012002AF5D184F8423025637C
:1013900020680C3050E8001F21F0100140E80012D6
:1013A000002AF5D1E06BFFF73EF96663A08DE18D71
:1013B000401A81B22AE0A08DE18D401A81B2E08D01
:1013C0000028A5D00029A3D022680C3252E8000FD3
:1013D00020F4907042E80007002FF5D12068143007
:1013E00050E8002F22F0010240E80027002FF5D13D
:1013F00084F84230256320680C3050E8002F22F03A
:10140000100240E80023002BF5D166632046FFF769
:1014100006FFF8BDFFE705062BD5150629D594F87C
:1014200041002128F5D1A068B0F5805F01D1206985
:10143000B0B1206A411C2162216800784860E08CCC
:10144000401E0004000CE084E3D12068C16821F054
:101450008001C1602068C16841F04001C160D8E7E7
:10146000206A0088C0F308004860206A801C20625F
:10147000E5E74006CDD55006CBD5CA68204622F018
:101480004002CA6084F8413000F09BF8C1E70000D8
:101490008518010870B5040004D094F841000025B7
:1014A00010B106E0012070BD84F84050204600F0E5
:1014B00023F8242084F841002068C16821F40051F9
:1014C000C160204600F06EFA2068016921F4904165
:1014D00001612068416921F02A0141612068C168E9
:1014E00041F40051C1606564202084F8410084F813
:1014F00042006563002070BDF0B587B0044614213A
:101500006846FEF7D5FF2A4F2368002229490224A6
:10151000032507262848BB4221D1264B14331F68D8
:1015200047F010071F601B6803F0100305930B685A
:1015300043F001030B60096802AB01F00101059162
:101540006902CDE9001483E864006946FFF7C6F834
:10155000002205212520FFF757FA252023E0174F09
:10156000BB4222D1134B10331F6847F400371F6072
:101570001B6803F4003305930B6843F001030B6011
:10158000096802AB01F0010105910C21CDE90014BD
:1015900083E864006946FFF7A1F8002205212620B0
:1015A000FFF732FA2620FFF721FA07B0F0BD00005E
:1015B000001001403038024000000240004400406A
:1015C00070477047FEE7000010B50B4A00210B483A
:1015D00000F0D8FA0A4C084A002120602432094859
:1015E00000F0D0FA044A606048320021064800F05A
:1015F000C9FAA06010BD000070310108BD160108D5
:1016000000000020C5160108CD1601080D4808B5D8
:10161000016841F004010160016801F004010091DA
:10162000016841F080010160016801F080010091D2
:10163000016841F001010160006800F001000090C4
:1016400008BD0000303802400C4810B50A4901605E
:101650004FF4E1314160002181600C22C160C0E99A
:1016600004128161C161FFF715FF002803D0BDE8B6
:101670001040FEF7D6BF10BD00100140388E00208C
:101680000C4810B50A4901604FF4E1314160002176
:1016900081600C22C160C0E904128161C161FFF761
:1016A000F9FE002803D0BDE81040FEF7BABF10BD18
:1016B00000440040808E0020FEE7FEE7012000F09D
:1016C00025FAFBE7012000F021FAFBE7012000F0FA
:1016D0001DFAFBE710B54FF0E020006901F08CFB2C
:1016E000012803D0BDE8104001F0BAB810BD0000D9
:1016F00030B593B030216846FEF7DAFE14210CA80D
:10170000FEF7D6FE1D480025016841F080510160BA
:10171000006800F0805011901948016841F4804140
:1017200001600068022400F48040119001200390C1
:1017300010200490009406940820CDE90750A820BA
:10174000CDE9090404200B906846FFF79BFA08B125
:1017500072B6FEE70CA90F2081E831004FF4A050CB
:101760000F904FF48050109005210CA8FFF77EF9E0
:10177000002801D072B6FEE713B030BD40380240F9
:10178000007000400448016841F4700101600249A2
:10179000024880390860704788ED00E000000108C9
:1017A0000148FFF796BC0000C88E0020F0B5026823
:1017B000294C2A4D2A4E2B4F2B4B4FF0804CA042E8
:1017C00009D0604507D0A84205D0B04203D0B84246
:1017D00001D0984204D122F0700E4A6842EA0E020B
:1017E000A0421BD0604519D0A84217D0B04215D0F6
:1017F000B84213D0984211D01C4DA8420ED01C4DB7
:10180000A8420BD01B4DA84208D01B4DA84205D0C2
:101810001A4DA84202D01A4DA84203D122F44075B5
:10182000CA682A434D6922F080022A4302608A680E
:10183000C2620A688262A04201D0984201D109695D
:101840000163012141610169C90703D0016921F0E8
:1018500001010161F0BD00000000014000040040F2
:1018600000080040000C004000040140004001401E
:10187000004401400048014000180040001C0040A6
:101880000020004010B5806B0021C185C184FFF7A6
:10189000C7FC10BD01680C3151E8002F22F4907292
:1018A00041E80023002BF5D10168143151E8002FE5
:1018B00022F0010241E80023002BF5D1016B012940
:1018C00009D101680C3151E8002F22F0100241E8E3
:1018D0000023002BF5D1202180F842100021016364
:1018E000704708B590F84210222901D0022008BDA7
:1018F00082684FF480539A4201D1016921B1816A13
:101900009A421BD04AB10AE00268816A5268C2F367
:1019100008020A80816A891C08E0026972B10268C3
:10192000526802F07F020A70816A491C8162C18D8F
:10193000491E0904090CC18503D01BE002685268E6
:10194000F1E70168CA6822F02002CA600168CA682B
:1019500022F48072CA6001684A6922F001024A6179
:10196000202180F8421000214163026B012A03D03C
:10197000FFF726FE002008BD016301680C3151E825
:10198000002F22F0100241E80023002BF5D101685E
:101990000A68D20602D50A6849680091818DFFF76E
:1019A0003EFCE7E770B5044600680169E26821F48F
:1019B0004051114301612169A068E26908436169EE
:1019C000114308432168CA6849F20C639A430243F1
:1019D000CA6020684169A26921F4407111434161E4
:1019E00031492068884202D03049884202D1FFF74D
:1019F00007F901E0FFF7F4F8E269002319216425F3
:101A00003226B2F5004F626828D0A0FB0101930F87
:101A10009200FEF789FC0146B0FBF5F06FF018026A
:101A2000504301EB800006EB0010B0FBF5F000F036
:101A3000F002B1FBF5F002EB0012B1FBF5F06FF034
:101A40001803584301EB800006EB0010B0FBF5F0E3
:101A500000F00F0021681044886070BDA0FB0101F8
:101A600092185B41FEF760FC0146B0FBF5F0020105
:101A7000B1FBF5F06FF01803584301EB800006EB63
:101A8000C000B0FBF5F000F0F80002EB4002B1FB43
:101A9000F5F0584301EB800006EBC000B0FBF5F019
:101AA00000F00700D6E700000010014000140140DC
:101AB0000148FFF7B7BB0000388E00200148FFF750
:101AC000B1BB0000808E0020FEE70907090E002848
:101AD00004DB00F1E02080F80014704700F00F00F4
:101AE00000F1E02080F8141D7047FEF7FDFEFFF7BF
:101AF000FFFDFFF78BFDFFF7A7FDFFF7C1FD00F02E
:101B000013F8FFF761FD00F021F8FEE710B5EFF3E1
:101B1000058111B16FF0050403E0002408B100F065
:101B20003FFD204610BD0000EFF3058010B16FF0BF
:101B3000050070470448016811B14FF0FF3070474D
:101B400001210160002070476C00002010B5EFF308
:101B5000058010B16FF0050010BD0848016801292B
:101B600002D04FF0FF3010BD054A002182F8141D4D
:101B70000221016000F07CFD002010BD6C000020FF
:101B80000BE000E02DE9FF414FEA01034FF00005B3
:101B9000EFF30581039549BB40B38027182100244A
:101BA0004AB3166806B1344696691EB13146761EB0
:101BB000382E02D21679F60703D0002004B0BDE813
:101BC000F081566906B1B708D2F808C0BCF1000F21
:101BD0000DD0D5685C2D18D312693AB136B18DE8B5
:101BE00006103A46214601F0DCF803900DE0D66875
:101BF0005EB912694AB903AACDE90012BAB2214608
:101C000001F0A2F8012800D003950398D6E7000060
:101C10002DE9F041134C0F460546E6682068001D8B
:101C200000F0B0FB681C07D137B12168BDE8F04176
:101C30000D48091D00F0F6BB20683544B5424560EB
:101C4000216805D2A06BBDE8F041091D00F0D2BBB0
:101C5000606B091D00F0CEFBA06A854200D2A56230
:101C6000BDE8F0811C000020009400202DE9F04127
:101C7000054600F0E3FB2D4CA068401CA0602068E6
:101C80002B4F10B1606930B32BE02560A0680128AC
:101C900027D1002606EB860007EB800000F09CFBB6
:101CA000761C382EF6D3234800F096FB21481430DA
:101CB00000F092FB1F48283000F08EFB1D483C309E
:101CC00000F08AFB1B48503000F086FB1948606327
:101CD0001430A06305E02068E96AC06A884200D831
:101CE0002560606A401C60626864E86A2169884215
:101CF00000D9206100EB800007EB8000291D00F077
:101D000091FB00F0BBFB606900280CD02068E96AF9
:101D1000C06A884207D208494FF080500860BFF37C
:101D20004F8FBFF36F8FBDE8F08100001C000020D3
:101D3000508F0020B093002004ED00E038B500F093
:101D40007DFB104C2068C8B90F4800F045FB0E48D9
:101D5000143000F041FB0C48E060143020610A4B65
:101D60000020F03B009003F1500210210A2000F007
:101D70008DFD206010B105A100F0DCFBBDE838400E
:101D800000F07CBB5800002004950020546D725177
:101D90000000000030B4026C0B46002A0BD0C16872
:101DA0001144C1608468A14201D30168C16030BCA4
:101DB0001846FEF730BB30BC70472DE9F041856B0B
:101DC000174604460026026C82B1C7B1E068FEF7F0
:101DD00022FBE168206C091AE1602268914202D27C
:101DE000A168081AE060022F16D017E02068A8B991
:101DF000A06801F079F806460020A0600EE0606857
:101E0000FEF709FB216C606808446060A1688842A5
:101E100004D32068606001E005B16D1E6D1CA563F0
:101E20003046BDE8F08110B5044690F8590058B12D
:101E300001280CD002280FD0502080F31188BFF366
:101E40004F8FBFF36F8FFEE7206B00F02BFB204618
:101E5000BDE8104000F026BB10BD0000144E154C2C
:101E6000A6F29C474FF08058DFF84C9012E000BF7C
:101E700000F0E4FAF068C568281D00F083FAA06855
:101E8000401EA0606068401E606000F0F7FA2846BF
:101E9000FFF7C9FF60680028EAD138680128F9D93E
:101EA000C9F80080BFF34F8FBFF36F8FF2E70000D8
:101EB000EC9300201C00002004ED00E070B51D46EE
:101EC000049C51B1C4F80020C4E90F01012120464F
:101ED00000F010FD84F84C5070BD2460F4E7000061
:101EE0002DE9F05F8846DDE90B94154683469100A5
:101EF0009A460A9EA522206BFEF7D2FA6FF00301E4
:101F0000206B01EB8501084420F00707780707D014
:101F1000502080F31188BFF34F8FBFF36F8FFEE720
:101F20000025B8F1000F0FD05FF00000221818F85C
:101F3000001082F8341018F8001011B1401C10285D
:101F4000F4D384F8435001E084F83450382E00D3A1
:101F50003726E662C4E91365201D00F048FA04F153
:101F6000180000F044FA2461C6F138006462A061F0
:101F7000656584F8585052465946384600F0ECF9E9
:101F80002060B9F1000F01D0C9F80040BDE8F09F12
:101F900070B5002441600B4D0061914206D8D11A02
:101FA0008269914206D2011D286907E09A4203D254
:101FB000994201D3012403E0011DE86800F01AFAF8
:101FC000204670BD5800002010B5044600F036FAD7
:101FD000A06B28B15FF0000400F050FA204610BD5D
:101FE0000124F9E730B589B03C4D6EE00498002833
:101FF00006DADDE90601059A90470498002864DBBB
:10200000069C606910B1201D00F0BCF903A800F027
:10201000D7F8024604980A2857D2DFE800F00505F1
:10202000052D334A05052D3394F8280040F00100B2
:1020300084F828000599A069059B01442046FFF714
:10204000A7FF68B3216A2046884794F82800400714
:102050003BD5002000900598A1690023421819463D
:10206000204601F04BF8D8B9502080F31188BFF317
:102070004F8FBFF36F8FFEE714F8280F20F0010099
:10208000207022E094F8280040F0010084F8280035
:102090000598A06128B1811813462046FFF778FF04
:1020A00013E0502080F31188BFF34F8FBFF36F8F81
:1020B000FEE794F82800810703D4204600F0F2F9E7
:1020C00003E020F0010084F82800002204A9286819
:1020D00000F064FD002889D109B030BD580000200F
:1020E0002DE9FC410F46054600F006FB01A800F073
:1020F00067F80446019818B100F06EFFBDE8FC8156
:10210000254EAFB130690068D0B30027291B3A468D
:10211000306800F023FA00F05FFF0028EED11F497D
:102120004FF080500860BFF34F8FBFF36F8FE5E72C
:10213000A542EBD800F050FFF0682746C068C4689D
:10214000201D00F01FF994F82800410719D5A06957
:102150002B4641193A462046FFF71AFFA8B1002046
:102160000346014600902A46204600F0C7FF60B9AA
:10217000502080F31188BFF34F8FBFF36F8FFEE7BE
:1021800007E020F0010084F82800216A20468847F3
:10219000B4E70127BAE700005800002004ED00E092
:1021A0000648416B096829B1416BC968C96849682B
:1021B000816270474FF0FF31FAE700001C000020F9
:1021C00070B5054600F026FE064E0446B06884420F
:1021D00003D200F009F8012000E00020286020462A
:1021E000B46070BD58000020F8B5194D20E0C068FB
:1021F000C4680668201D00F0C5F8216A204688479B
:1022000094F82800400713D5A0693044B04206D99D
:1022100024616060211DE86800F0ECF808E000200F
:102220000346014600903246204600F067FF38B171
:10223000E86801680029DAD12969C5E90310F8BD09
:10224000502080F31188BFF34F8FBFF36F8FFEE7ED
:102250005800002008484068401C4FF0500080F3B0
:10226000118804D0BFF34F8FBFF36F8FFEE7BFF32A
:102270004F8FBFF36F8FFEE778000020074CE068B8
:10228000016841B1C0680021D0F80000FFF728FFC5
:10229000FFF7A8FEF3E701210020F7E75800002030
:1022A0002DE9F041044600F0C9F894F9455004F1D5
:1022B000240609E0606A48B1304600F055FE08B1D6
:1022C00000F09CF96D1E6DB2002DF3DC4FF0FF366F
:1022D00084F8456000F0D2F800F0B0F894F944506A
:1022E00004F1100709E0206948B1384600F03CFECF
:1022F00008B100F083F96D1E6DB2002DF3DC84F897
:102300004460BDE8F04100F0B9B8000070B5044683
:102310000025400704D004F00700C0F10800044481
:1023200000F0EAF90A49486818B90A4820F007009D
:1023300048600A6843F6F8331019984204D2904274
:1023400002D94B6808609D1800F046FE284670BD13
:1023500070000020EC9B002010B5031F4FF080742C
:102360001C601B1F21F001011960191F044B0B6039
:1023700014390A60091F6FF0020244380A6010BD68
:1023800055220108D0E9013201699A60D0E90123A0
:102390005A604A68824201D182684A600022026122
:1023A0000868401E0860086870470000034B03601F
:1023B00003F15C0008608020106070472C950020BD
:1023C000044B036003F15C0008604FF48070106000
:1023D000704700008897002000F108014FF0FF329D
:1023E000C0E90112C1600161002101607047002154
:1023F0000161704730B50B685A1C02D000F1080229
:1024000002E0026904E02246546825689D42FAD938
:1024100053684B6099608A60516008610168491C8B
:10242000016030BD42684A6093688B609368596070
:10243000916008610168491C01607047502080F379
:102440001188BFF34F8FBFF36F8F0A494868401C54
:10245000486001280CD10848006810F0FF0F07D031
:10246000502080F31188BFF34F8FBFF36F8FFEE7CB
:10247000704700007800002004ED00E0084948683B
:1024800028B1401E486001D180F311887047502068
:1024900080F31188BFF34F8FBFF36F8FFEE700000B
:1024A00078000020002807D0502080F31188BFF367
:1024B0004F8FBFF36F8FFEE7704700004FF0E020B3
:1024C00000210161816105494FF47A720968B1FB0D
:1024D000F2F1491E41610721016170471800002097
:1024E00010B5FDF7FDFE114910280ED300F1E020D4
:1024F00090F8F0030A78904207D2502080F31188B8
:10250000BFF34F8FBFF36F8FFEE7094800688968FC
:1025100000F4E060884207D9502080F31188BFF3AF
:102520004F8FBFF36F8FFEE710BD000078000020D3
:102530000CED00E010B5084B002200BF53F832400C
:102540001CB1521C082AF9D310BD43F8321003EB1A
:10255000C201486010BD0000108F002070B5154604
:102560000E460446FFF76AFF94F944100020491C08
:1025700001D184F8440094F94510491C01D184F834
:102580004500FFF77BFFA06B28B92A46314604F1CE
:10259000240000F051F82046BDE87040FFF780BEEF
:1025A00010B5020014D00F48006B38B1502080F3F2
:1025B0001188BFF34F8FBFF36F8FFEE700F09CF8D9
:1025C00000211046FFF724FB00F006FD002807D18C
:1025D00005494FF080500860BFF34F8FBFF36F8FF6
:1025E00010BD00001C00002004ED00E002490A6A52
:1025F0000260C968416070471C0000200149012049
:10260000C86170471C00002010B50C4650B1094944
:1026100009681831FFF7EEFE2046BDE810400121A1
:10262000FFF7F6BA502080F31188BFF34F8FBFF346
:102630006F8FFEE71C00002070B514460D4668B190
:102640000A4909681831FFF7EDFE0CB14FF0FF356C
:1026500021462846BDE87040FFF7DABA502080F3E3
:102660001188BFF34F8FBFF36F8FFEE71C00002070
:1026700030B587B00024039405AA04A903A80494E4
:10268000FFF794FEDDE903010094CDE9011000237A
:1026900015A11748059A00F084FB164D0028E86242
:1026A0001FD000F0FBFC012809D0401C19D150209C
:1026B00080F31188BFF34F8FBFF36F8FFEE7502079
:1026C00080F31188BFF34F8FBFF36F8F4FF0FF3050
:1026D000A86201206861EC6007B0BDE8304000F0FE
:1026E00045B807B030BD000049444C45000000002B
:1026F0005D1E01081C0000200248016B491C01639B
:10270000704700001C000020164810B5016B11B185
:102710000121C16110BD0021C1610169124A01E0BE
:10272000B9B1491E01EB810352F82330002BF7D0D9
:1027300001EB810302EB830202F1080453685B683A
:102740005360A34201D15B685360DA6802600161A3
:1027500010BD502080F31188BFF34F8FBFF36F8FF0
:10276000FEE700001C000020508F00201CB53748F9
:102770000168374A914207D1502080F31188BFF396
:102780004F8FBFF36F8FFEE700683149491E8842C3
:1027900007D1502080F31188BFF34F8FBFF36F8FA5
:1027A000FEE72C4908780190FF20087008788DF822
:1027B00000009DF800009DF8002000F0F00090421D
:1027C00007D0502080F31188BFF34F8FBFF36F8F76
:1027D000FEE79DF80000204C00F05000207007201C
:1027E000A06005E09DF8002052008DF80020401EFA
:1027F0009DF800201206F5D4A060032807D05020D1
:1028000080F31188BFF34F8FBFF36F8FFEE74FF454
:102810004070A060019808700C482030016841F4B5
:1028200070010160016841F070410160FFF746FEF0
:1028300000206060FDF71CFD0848016841F0404140
:102840000160FDF701FD00201CBD000000ED00E06F
:1028500071C20F4100E400E07800002034EF00E096
:1028600010B5502080F31188BFF34F8FBFF36F8FE7
:1028700000F0D6FA18B104494FF0805008600020EB
:1028800080F3118810BD000004ED00E038B5049D10
:1028900018B153B1CAB181B120E0502080F3118842
:1028A000BFF34F8FBFF36F8FFEE7502080F3118887
:1028B000BFF34F8FBFF36F8FFEE7502080F3118877
:1028C000BFF34F8FBFF36F8FFEE739B1502080F316
:1028D0001188BFF34F8FBFF36F8FFEE750241C4664
:1028E000012384F846302B460094FFF7E7FA204690
:1028F00038BD000070B50D46040025D0FFF79EFDE1
:10290000D4E90F20216802FB0011A1600021A1631E
:10291000216861600A46D4E90F01401E00FB0121D5
:10292000E16021464FF0FF3001F8440F487004F198
:1029300010008DB1FFF750FD04F12400FFF74CFDAE
:10294000FFF79CFD012070BD502080F31188BFF37C
:102950004F8FBFF36F8FFEE721690029F0D000F0A1
:1029600003FB0028ECD004494FF080500860BFF30F
:102970004F8FBFF36F8FE3E704ED00E02DE9FF47D2
:1029800082B01D468A464FF00008040003D0BAF119
:10299000000F08D011E0502080F31188BFF34F8F53
:1029A000BFF36F8FFEE7206C38B1502080F31188A1
:1029B000BFF34F8FBFF36F8FFEE7022D0AD1E06B9D
:1029C000012807D0502080F31188BFF34F8FBFF349
:1029D0006F8FFEE700F010FA3F4F4FF000094FF005
:1029E000805648B9049838B1502080F31188BFF35D
:1029F0004F8FBFF36F8FFEE7FFF720FDA06BE16BFA
:102A0000884207D3022D05D00498D0B1B8F1000F49
:102A10001AD01EE02A4651462046FFF7CEF9616AD9
:102A200019B104F1240000F09FFA20B13E60BFF319
:102A30004F8FBFF36F8FFFF721FD012006B0BDE878
:102A4000F087FFF71BFD22E06846FFF7CFFD4FF050
:102A50000108FFF713FDFFF74FFEFFF7EFFC94F9B6
:102A60004400401C01D184F8449094F94500401C76
:102A700001D184F84590FFF701FD04A9684600F0F4
:102A800029F930B12046FFF70BFC00F0A5FA002031
:102A9000D4E7FFF7D3FCA06BE16B884213D1FFF7BB
:102AA000EDFC04F110000499FFF7AEFD2046FFF79E
:102AB000F7FB00F091FA00289ED13E60BFF34F8FE4
:102AC000BFF36F8F98E7FFF7D9FC2046FFF7E8FBCD
:102AD00000F082FA90E7000004ED00E02DE9F047F5
:102AE0001F4690468946040003D0B9F1000F08D074
:102AF00011E0502080F31188BFF34F8FBFF36F8F29
:102B0000FEE7206C38B1502080F31188BFF34F8F5F
:102B1000BFF36F8FFEE7022F0AD1E06B012807D0C9
:102B2000502080F31188BFF34F8FBFF36F8FFEE704
:102B3000FFF7D6FC5020EFF3118680F31188BFF326
:102B40004F8FBFF36F8FA06BE16B884206D3022FCC
:102B500004D0002086F31188BDE8F08794F9455031
:102B6000A06B3A4649462046FFF727F9681C04D077
:102B70006D1C84F845500120ECE7606A0028FAD00B
:102B800004F1240000F0F0F90028F4D0B8F1000FAF
:102B9000F1D00121C8F80010EDE700002DE9F7475A
:102BA000002683B08A46040003D0BAF1000F08D093
:102BB00011E0502080F31188BFF34F8FBFF36F8F68
:102BC000FEE7206C38B1502080F31188BFF34F8F9F
:102BD000BFF36F8FFEE700F00FF9DFF8F4804FF0DE
:102BE00000094FF0805748B9059838B1502080F35C
:102BF0001188BFF34F8FBFF36F8FFEE7FFF71EFC07
:102C0000A56BC5B151462046FFF7C4F86D1EA563FC
:102C1000206950B104F1100000F0A6F928B1C8F8FD
:102C20000070BFF34F8FBFF36F8FFFF727FC0120BA
:102C300006B0BDE8F087059808B11EB106E0FFF7C1
:102C40001DFC27E06846FFF7D1FC0126FFF716FCC4
:102C5000FFF752FDFFF7F2FB94F94400401C01D14D
:102C600084F8449094F94500401C01D184F84590C3
:102C7000FFF704FC05A9684600F02CF80028204660
:102C80000AD0FFF70DFB00F0A7F92046FFF79CF9EB
:102C90000028B3D00020CBE7FFF796F990B104F1FC
:102CA00024000599FFF7B0FC2046FFF7F9FA00F081
:102CB00093F90028A2D1C8F80070BFF34F8FBFF37B
:102CC0006F8F9BE72046FFF7EBFA00F085F995E759
:102CD00004ED00E02DE9F0410C46050011D0C4B12F
:102CE000FFF7ACFB174BDA686E682068911B471C36
:102CF00017D02F681B6A9F4219D0964217D801241B
:102D000010E0502080F31188BFF34F8FBFF36F8F17
:102D1000FEE7502080F31188BFF34F8FBFF36F8F12
:102D2000FEE70024FFF7AAFB2046BDE8F0818842B9
:102D300005D9401A20602846FFF758FCF1E700202B
:102D40002060DCE71C0000202DE9FF5F8346DDE901
:102D50000E87994616468A469000FFF7D7FA050077
:102D60001CD05C20FFF7D2FA040014D000202563A9
:102D700084F85900CDE90240CDE900874B46324640
:102D800051465846FFF7ACF82046FEF76FFF01208A
:102D900004B0BDE8F09F2846FFF784FB4FF0FF30FA
:102DA000F6E7F0B585B0DDE90B640A9DA6B1DCB1AC
:102DB0005C2700972663022684F85960002604AF3A
:102DC000CDE90246CDE90057FFF78AF82046FEF725
:102DD0004DFF049805B0F0BD502080F31188BFF37B
:102DE0004F8FBFF36F8FFEE7502080F31188BFF342
:102DF0004F8FBFF36F8FFEE70548416919B1006B34
:102E000018B1002070470120704702207047000071
:102E10001C0000200148C068704700001C00002012
:102E20002DE9F0412E4C0027206B28B1A069401CF1
:102E3000A0613846BDE8F081E668761CE66013D1F3
:102E4000606B006838B1502080F31188BFF34F8F5A
:102E5000BFF36F8FFEE7606BA16B6163A063206AB5
:102E6000401C2062FFF79CF9A06ADFF87880864258
:102E700009D3606B0068A0B1606BC068C568686802
:102E8000864211D2A0622068C06A00EB800158F827
:102E90002100012800D90127E0690028C9D00127B5
:102EA000C7E74FF0FF30EDE7281DFFF76BFAA86A80
:102EB00018B105F11800FFF765FAE86A2169884240
:102EC00000D9206100EB800108EB8100291DFFF78C
:102ED000A9FAE86A2168C96A8842CAD30127C8E703
:102EE0001C000020508F002070B504004FF000013E
:102EF00033D01B4D2868844207D0502080F31188BE
:102F0000BFF34F8FBFF36F8FFEE7206D38B1401EC8
:102F10002065E36CE26A9A421FD040B11DE0502068
:102F200080F31188BFF34F8FBFF36F8FFEE7201D33
:102F3000FFF728FAE06CE062C0F13800A061E06AB7
:102F40002969884200D92861064900EB800001EB1D
:102F50008000211DFFF766FA0121084670BD0000C0
:102F60001C000020508F002070B5C068C46854B1A8
:102F700004F118000646FFF705FA144D286B50B10E
:102F80003146134815E0502080F31188BFF34F8F6E
:102F9000BFF36F8FFEE7201DFFF7F4F9E06A2969A0
:102FA000884200D928610B4900EB800001EB8000CA
:102FB000211DFFF737FAE06A2968C96A884202D9F9
:102FC0000120E86170BD002070BD00001C000020E1
:102FD000D8930020508F00202DE9F0472C4D00247D
:102FE0002746286B38B1FFF729FA286B401E286363
:102FF000286B40B146E0502080F31188BFF34F8F1B
:10300000BFF36F8FFEE7A968224E0120D1B3A6F56A
:10301000916980463068E0B1F068C46804F1180036
:10302000FFF7B0F9201DFFF7ADF9E06A2969884282
:1030300000D9286100EB800109EB8100211DFFF719
:10304000F1F9E06A2968C96A8842E3D3C5F81C80AF
:10305000E0E70CB1FFF7A4F8AC694CB14FEA080601
:10306000FFF7DEFE00B1EE61641EF9D10020A86119
:10307000E86938B10849012738070860BFF34F8F66
:10308000BFF36F8FFFF7FAF93846BDE8F08700000D
:103090001C000020D893002004ED00E010B586B09D
:1030A000FEF74CFE114C2068B8B10020039004904C
:1030B00005AA04A903A8FFF783F9DDE9032102208B
:1030C0008DE8070000230AA10B48059AFFF769FE67
:1030D000606010B106B0012010BD502080F311884F
:1030E000BFF34F8FBFF36F8FFEE700005800002043
:1030F000546D7220537663007D2201082DE9FF4153
:103100001E46134602000A9D4FF0000016D0144CD4
:103110002768002F0FD0CDE900130292062917DA95
:10312000FFF76AFE02284FF000030FD00022694625
:103130002068FFF723FC04B0BDE8F081502080F345
:103140001188BFF34F8FBFF36F8FFEE72A46EEE77C
:103150000023324669463846FFF7C0FCEBE7000023
:10316000580000204FF04070E1EE100A7047000058
:103170000C32010800000000642F00205C000000F9
:1031800084000020E02E0000180000000000000075
:1031900000000000F431010800000000A05E0020E3
:1031A0005C000000C02F0020E02E0000080000009E
:1031B00000000000000000000032010800000000D4
:1031C000DC8D00205C000000FC5E0020E02E000092
:1031D00008000000000000000000000000000000E7
:1031E00000000000010203040607080900000000B7
:1031F000010203046D795461736B303200000000EA
:103200006D795461736B3033000000006465666152
:10321000756C745461736B00383201080000002033
:1032200084000000C4010108BC32010884000020B1
:10323000C4DD0000E0010108000000000000000003
:10324000000000000100000010000000000000006D
:103250000024F40000000000000000000000000056
:10326000000000000000000000000000000000005E
:10327000000000000000000000000000000000004E
:10328000000000000000000000000000000000003E
:10329000000000000000000000000000000000002E
:1032A000000000000000000000000000000000001E
:0C32B00000000000AAAAAAAA000000006A
:040000050801018964
:00000001FF
